:020000040001F9
:10B0000078480020D5B00100EFB00100F1B0010098
:10B010000000000000000000000000000000000030
:10B02000000000000000000000000000F3B001007C
:10B030000000000000000000F5B00100F7B00100C2
:10B04000FDB30100F9B0010039B50100F9B001000C
:10B05000F9B001000000000041B20100F9B00100A8
:10B06000F9B00100F9B00100F9B00100F9B0010038
:10B07000F9B00100F9B00100F9B00100F9B0010028
:10B08000F9B0010051B40100F9B00100F9B00100BC
:10B0900071B40100F9B0010079B40100F9B0010008
:10B0A000F9B00100F9B0010000000000000000004C
:10B0B0000000000000000000000000000000000090
:10B0C0000348854600F07EF800480047C1EB0100C8
:10B0D000784800200321094802680A4302600848B2
:10B0E00002680A4302600748804707480047FEE7B6
:10B0F000FEE7FEE7FEE7FEE7FEE70000240500406E
:10B100005405004099B40100C1B0010030B50B46B0
:10B11000014600202022012409E00D46D5409D4231
:10B1200005D31D469540491B2546954040191546B7
:10B13000521E002DF1DC30BD10B5431A934209D2E6
:10B140008318881803E0401E01785B1E1970521E98
:10B15000F9D210BD03460B439B0703D009E008C991
:10B16000121F08C0042AFAD203E00B780370401CB7
:10B17000491C521EF9D210BDD2B201E00270401C2F
:10B18000491EFBD270470022F6E710B513460A4667
:10B1900004461946FFF7F0FF204610BD421C017817
:10B1A000401C0029FBD1801A704730B504460020AE
:10B1B000034600E05B1C934203D2E05CCD5C401B85
:10B1C000F8D030BD064C0125064E05E0E36807CCFB
:10B1D0002B430C3C98471034B442F7D3FFF774FF6D
:10B1E00098220200B822020070B58C180578401C25
:10B1F0006B075B0F01D10378401C2A1106D102783E
:10B20000401C03E006780E70401C491C5B1EF9D1FF
:10B210002B0705D40023521E0DD40B70491CFAE7EE
:10B220000378401CCB1A921C03E01D780D70491C5A
:10B230005B1C521EF9D5A142D8D3002070BD00007E
:10B24000F0B50024FF268BB0013601252746069471
:10B25000304603F0EFFF002807D0544840682842EA
:10B2600003D0304603F0DEFF2C43361D6D007F1CFB
:10B27000B6B2042FECD3FF257D35284603F0DAFF64
:10B28000002809D0284603F0CDFF6807044306AA2A
:10B290000121002003F0B2FF454D200714D0012703
:10B2A000002627420CD04348B200111808690969EA
:10B2B000C004C00E8903AA58890F002A00D0904705
:10B2C0007F00761C042EECD3002C6DDA0020089051
:10B2D000401E63E0281940300778B906890E0091B6
:10B2E00000214156491C49D009A9009803F0C4FD2A
:10B2F000002843D0B8090190009801F0D7FC8000E5
:10B300002F580198002F02D0032802D00DE0032807
:10B3100034D1009808ABC20841079446985C490FA5
:10B3200001228A401043624698540098052109077B
:10B3300080004018072109024018006806A9800310
:10B34000800F0290009803F097FD0028029802D029
:10B35000022802D012E0032810D10198032808D156
:10B36000029802281ED00221009803F02AFF761CC2
:10B37000F6B2002F02D001990098B847641C042C43
:10B38000A8D3002E10D06A460121002003F036FF1A
:10B3900006990098884207D00690089800263446FF
:10B3A000099097E70321DFE70BB0F0BD0063004091
:10B3B000903E0020006500408307FF22DB0E9A408C
:10B3C0008907090E994000280BDA0007000F08389A
:10B3D000830808489B001818C36993430B43C36153
:10B3E0007047830804489B001B1818689043084363
:10B3F0001860704700ED00E000E400E0F8B5FF20C1
:10B40000013003F044FD002401250E4E0E4F0028AC
:10B4100007D00E4804600120B0607D70002001F06C
:10B42000D3FCFF20053003F032FD002808D0074888
:10B43000001D04600220B060BD70012001F0C4FC5A
:10B44000F8BD0000000300407C3E002000010040E9
:10B4500010B506490020086048608860C86003494C
:10B4600040390860486006F00BFB10BD40110140F8
:10B4700010B506F077FA10BD10B5064840680028F0
:10B4800005D08047002801D000F0F6F910BD03F088
:10B4900047F810BD3035002010B503F08FF80028B4
:10B4A00005D01F491D484860C8131E4988611E48C1
:10B4B000018CC9B201290BD1828C120708D1028DEF
:10B4C0001206120F042A03D1828D1206120F0AD01F
:10B4D000012921D1818C09071ED1018D0906090F8F
:10B4E0000A2904D007E0114A01219160F5E7828D15
:10B4F0001206120F05D00D290ED1808D0006000F07
:10B500000AD10B480168012904D00A490160016889
:10B510000129FCD1C021416110BD0000DFFF07C03F
:10B5200000050040006C0040C00F00F00006004025
:10B5300000EC06407593000010B50249024806F081
:10B540003AFB10BDD83E00200020004030B47446C5
:10B55000641E2578641CAB4200D21D46635D5B000F
:10B56000E31830BC184702E008C8121F08C1002ABF
:10B57000FAD170477047002001E001C1121F002A74
:10B58000FBD17047202804DA0121814003480142A1
:10B5900001D001207047002070470000FC06FFBC6E
:10B5A00010B500280CD000290AD002780B789A42F6
:10B5B00006D10622401C491CFFF7F7FD002801D0E8
:10B5C000002010BD012010BDF7B584B0064600254F
:10B5D0001788158020300290407B1446002806D042
:10B5E0003A462146059800F011FF050009D1B078D0
:10B5F000002823D0059886462088001DB84202D92D
:10B600000C2007B0F0BD684679DF0028F9D1218809
:10B6100003207246505420881921401C80B220809B
:10B62000115420887146401C80B220804118684621
:10B63000008806F054FB218840182080F07800280C
:10B6400017D0218803230A46F356C91C0598B9422E
:10B65000D6D80221815421880122491C89B2218037
:10B6600042542188491C89B2218043542088401CBF
:10B6700020807068002817D021880023C3560A460E
:10B68000C91C0598B942BBD80221815421880A22DD
:10B69000491C89B2218042542188491C89B22180E9
:10B6A00043542088401C2080308900280AD0009410
:10B6B00030460197062202210830059B06F068FB00
:10B6C00005009ED1308A00280AD0009430460197A8
:10B6D000072203211030059B06F05AFB050090D18C
:10B6E000308B00280AD0009430460197152214218F
:10B6F0001830059B06F04CFB050082D1306A00280B
:10B7000006D03B462246059901F0C6FB0500D8D17C
:10B71000706A002806D03B462246059903F0E0FAFD
:10B720000500CED10298007B002807D03B46224678
:10B730003046059905F016FD0500C2D13078002885
:10B7400007D03B4622463046059903F0FDFA050036
:10B75000B7D1284655E70000174A0021535C002B5B
:10B7600001D0012203E0491C0629F7D30022134926
:10B77000012806D002280BD0032810D0042818D1A5
:10B7800012E04878002803D0002A01D00120704739
:10B790008878002803D0002A01D002207047C8789A
:10B7A000002801D0032070470879002801D0042028
:10B7B000704700207047000011340020343800200A
:10B7C00010B501220221002001F044F9002801D027
:10B7D000072812D107220221012001F03BF900289D
:10B7E00001D0072809D100210A22084601F032F9C8
:10B7F000002801D0072800D1002010BD10B503207B
:10B8000000F082FB002801D000F036F810BDF0B542
:10B810000F468DB0002116466D460F24621A825CD9
:10B820006A54491C1029F9D328460D211030FFF71E
:10B83000AAFC0020221A395C5219401C11740328FA
:10B84000F8D368464DDF0020211A491920310978C4
:10B850003154401C0328F7D30DB0F0BDBFF34F8F18
:10B8600004490348C860BFF34F8F00BFFDE70000E5
:10B870000400FA0500ED00E00EB5002102900091F1
:10B880006A4601910148FFF7E9FF0EBD0140000043
:10B89000094B5B68002B07D0002A07D0002805D091
:10B8A0000068037C002B03D00820704707207047F6
:10B8B0004174426100207047F8340020FFB507460C
:10B8C0009007002581B01E461446002825D1002C83
:10B8D00023D005F04DF93046114EF060304610305F
:10B8E000057045700299817044607560357001245F
:10B8F0000C4875702405046003211420FFF75CFDDB
:10B9000009480460094CA76003211120FFF754FD8A
:10B910006068B060002005B0F0BD0720FBE70000C4
:10B92000E834002080E200E000E100E00015014082
:10B93000FEB51F4B5B68002B30D000282ED00529A8
:10B9400001D20720FEBD4369002B27D0437C012B89
:10B9500026D00027029104460025694616460D7040
:10B96000684600F03DF801A806F0FCF9002819D05F
:10B97000012101700F4944604968816002990761A3
:10B980004661C16068460A49007948706846007897
:10B9900000F044F806F028F82846FEBD0820FEBD59
:10B9A0000F46D7E768460425007800F037F8F3E73C
:10B9B000F83400200015014010B5084949680029F5
:10B9C0000AD0002808D04169002905D0002101745F
:10B9D000022106F031F810BD082010BDF834002017
:10B9E00030B5EFF3108172B6094A54680123002C78
:10B9F00004D00370002900D162B630BD5360054BFE
:10BA00001D68054C254015601C6000220270F1E79E
:10BA10000C35002080E100E0FC06FFBC08494A68C4
:10BA2000002A0CD000280AD1EFF3108072B60A6801
:10BA3000044B1A6000224A60002800D162B67047A9
:10BA40000C35002000E100E010B5144C012100226B
:10BA500009042068FFF76CFF002801D0FFF70CFFF6
:10BA600001210022C9036068FFF762FF002801D0AE
:10BA7000FFF702FF00220A49A068FFF759FF0028DC
:10BA800001D0FFF7F9FE05210022C903E068FFF7A6
:10BA90004FFF002801D0FFF7EFFE10BDB0210200DC
:10BAA00066260000F0B504468BB0008800F04AFC22
:10BAB0000590208802F082FC0646A0680090657A16
:10BAC000684605741E4F20880022397800F08AFCF1
:10BAD0000598002831D06079400710D507213046FD
:10BAE00003F05CFF002813D0082269460A742288FC
:10BAF0004A828E82069004A801F050FB08E020885C
:10BB0000B97800F05DFC002802D0304602F040FC1D
:10BB10000321684601712188C18060794007C10F07
:10BB200068460172A0794007C10F684641720178EA
:10BB30008172C57201A801F031FB0BB0F0BD0000AD
:10BB400084340020F0B50546007D002493B00E46F5
:10BB500000280DD00120014668461031039401737E
:10BB6000717B4173817BF92001406846891C817398
:10BB70001C2104A8FFF707FB6946087C0221084343
:10BB8000694608742A7DEF21002A02D01022104352
:10BB900000E008406A461074059407940894287DD4
:10BBA000002800D003A8099001270A941046977135
:10BBB000304A82800094B27B0270F27B42708078BF
:10BBC000F9221040F722801C1040EF210840410864
:10BBD000490068468170317B017214210BA8FFF780
:10BBE000D2FA01A80B9068460C908786C486078716
:10BBF00002A80F90A888AB1D0BAA04A9A2DF0028F9
:10BC000035D1B068002830D0684687711A498180E4
:10BC10000094317C017000200146684641708078B4
:10BC2000F9210840F721801C0840EF210840410815
:10BC300049006846817011A8B16800F093FD06467E
:10BC400014210BA8FFF79FFA01A80B9068460C90EF
:10BC50008686C486068711A80F902A46E8880E3289
:10BC60000BA9A3DF002802D100E0EC81002013B073
:10BC7000F0BD0000192A00000829000010B50B498A
:10BC80000B4805F0C7F9C1B20848783800F0C0F990
:10BC9000002809D0082807D00649884204D0064960
:10BCA000884201D0FFF7E8FD10BD00009837002062
:10BCB000B83300200430000001340000F0B50C4619
:10BCC00093B01F216A461180072600279180002823
:10BCD00009D0C17849070DD502A9FFF775FC0028E6
:10BCE00009D102AD01E000251780002C0ED0E078CC
:10BCF000002802D0304613B0F0BD01AA0AA92046A0
:10BD0000FFF762FC0028F6D10AAA02E0684600228A
:10BD1000878068468088C3B268460088C1B22846DA
:10BD200072DFE8E7FFB581B01E460A9F13460400A4
:10BD300047D0002B45D0504D012028700020E870DE
:10BD4000202219464D48FFF7F7F900206F61C043E4
:10BD50002E612881284607211830FFF714FA47483A
:10BD60003C212030FFF70FFA444821782030017041
:10BD7000A1788170E178C170617841703F4A65694E
:10BD800023695563114613632031E368A268CB60D1
:10BD90008A603A49E369A269CB638A63616A0029D0
:10BDA0001AD001463C310246483241628A60636AD9
:10BDB0001B880B80616A436A898899800021436AE5
:10BDC00007E00E2005B0F0BD656AAD686D5C5554A6
:10BDD000491C9D888D42F7D8A16A00291CD0274AAA
:10BDE000943211460C398A608162A36A9B888B80E9
:10BDF000A16A836A098819800021836A04E0A56A20
:10BE0000AD686D5C5554491C9D888D42F7D82C2136
:10BE10000A5D1A4940310A73216A002909D016497E
:10BE20000A310162226A52884A80216A026A0988BC
:10BE300011806168002900D04160104A0E4900203D
:10BE4000B3322031C3001B1A85009B180C68401CBC
:10BE500063510828F6DB094A0020EB320301850014
:10BE60009B188C68401C63510828F7DB0348029933
:10BE70002030FFF723FFA5E7F833002034380020F7
:10BE800010B50188134C102915D0112919D01B2980
:10BE900010D1007A00280DD1E0780521401CFFF771
:10BEA00035F9084600F030F8002803D06169002910
:10BEB00000D0884710BD817D0129FBD18088208179
:10BEC00010BD00216171808821898842F8D101204C
:10BED000E8E70000F833002010B5022801D003285D
:10BEE0000ED1084C607800280AD000206070E078FD
:10BEF00000F00AF8002803D06169002900D08847C3
:10BF000010BD0000F8330020F1B53F4C88B0207818
:10BF100000280AD00898E07006A801F03BFC0698BB
:10BF20000125002804D065706AE0082009B0F0BD42
:10BF30003548002707211830FFF725F9334E707870
:10BF4000002802D0E078012807D0B07800280CD073
:10BF5000E078012801D0022807D12169002903D007
:10BF600025710820884700E027710898FFF7F4FB47
:10BF7000E0702169002909D0032801D0042805D1E7
:10BF80003078002802D06079002811D0A7711821DC
:10BF90006846FFF7F8F8684607700772E1781A48B4
:10BFA0000B001830FFF7D2FA052E080F191D2000DC
:10BFB000A57107208847EAE7A570019068460570DB
:10BFC0004782078213E00221A17001906846057044
:10BFD000B18941823189018209E0684605F082F920
:10BFE00002E0684605F0AAF9E078002803D0684628
:10BFF00073DF00289AD12169002901D0A0788847F1
:10C00000002093E7A770F6E7F833002034380020CB
:10C0100073B586B004002FD06A46217C127F0020C1
:10C02000914227D00025012668460095068045806C
:10C0300007A80190E188608A6A46A4DF002819D128
:10C040006846007F2074608A0D49884216D0207DA2
:10C05000002813D00295039504950595E18868465C
:10C060000181867241888181049001980590608ADF
:10C0700002A9A6DF08B070BD0E20FBE70820F9E793
:10C08000FFFF000038B50D4604001AD0002D18D06F
:10C09000286820600020C043608228792075FF2036
:10C0A000207401216846817007490180221D69467C
:10C0B0000120A0DF002803D129462046FFF742FDDA
:10C0C00038BD0E2038BD00000F18000038B500281C
:10C0D00024D0002922D00A88102A1AD0112A1AD076
:10C0E000502A1BD10446007D002817D0C8886289D9
:10C0F000891D904212D1488902280FD1206800285A
:10C100000CD008460C3000F026FB002807D0002099
:10C1100006E0898801E00021C943418238BD012041
:10C120006946087022682046904738BD70B50546BC
:10C1300001461C220E48FEF7FFFF0E4C002626701B
:10C140002968002906D00822201DFEF7F5FF201DD2
:10C150007ADF02E00748001D7BDF002807D1401E80
:10C1600060806670044A00210448FFF791FB70BDAF
:10C17000003A002028340020E91C0200FC210200C3
:10C18000F8B5214C0146028800261E48E589102A90
:10C1900013D01E4F112A1FD0122A2BD0502A1AD189
:10C1A000881DC988A94216D14189022913D10C30B2
:10C1B00000F0D1FA00280CD112E08A8804464280AF
:10C1C000104808220C301831FEF7B6FF6670002DBB
:10C1D00001D100F0A9FEF8BD0021C943418046709D
:10C1E0003868FFF7E9FB0028F5D0A1690029F2D0F3
:10C1F0008847F8BD034808220C300831FEF79CFF41
:10C20000E7E7000028340020003A0020FC2102006B
:10C2100010B503490A7D091D04F07FFD10BD000023
:10C220001C3A0020034B10B50246D97D181D04F0BE
:10C2300061FD10BD1C3A0020034B10B50246197E6B
:10C24000181D04F057FD10BD1C3A0020F0B504463F
:10C2500002883A488DB0014615310191102A09D063
:10C26000112A50D01A2A4AD1217A090901294ED916
:10C2700001234DE0027D417D05468A43011D07A84B
:10C2800004F04BFD142207A902A8FEF755FF002673
:10C290002A483746143008900AE0710002A80818AE
:10C2A00083881D220097281D089904F0E3FC761C62
:10C2B0000298B042F1D8287DA688C043C0B204F0ED
:10C2C000FDFC1F49884217D0400040198680012399
:10C2D0003246281D019904F043FD01233246281DF2
:10C2E000089904F03DFDA07D02280AD000231349DF
:10C2F000A2881631281D1DE00420FFF7BDFA0DB0FD
:10C30000F0BD0123F3E70023A288001D12E0002303
:10C310000A490546A2881731001D04F021FD207A44
:10C320000009022801D9012300E000230349A28863
:10C330001831281D04F014FDE1E700001C3A00202C
:10C34000FFFF000070B50B4E05460024317D2A46E4
:10C35000301D04F0CFFC002809D0B17D2A46301DE5
:10C3600004F0C8FC002801D0022400E0012420468B
:10C3700070BD00001C3A002010B50024204605F0D6
:10C38000E5FC002805D0641CE4B2182CF6D3182074
:10C3900010BD044801220168A240114301602046FB
:10C3A00010BD00001C3A002010B5044605F0CEFC7C
:10C3B000002802D001480019407E10BD1C3A002020
:10C3C00070B505460C46084605F0C0FC002806D0AE
:10C3D00003482A460119497E001D04F08BFC70BDFC
:10C3E0001C3A002070B5064615460C46084605F076
:10C3F000ADFC002807D004482B4601193246001D29
:10C40000193104F0ADFC70BD1C3A00207CB5054626
:10C4100008880C460930904201D90C207CBD684642
:10C4200071DF0028FAD121880820685420881B2158
:10C43000401C80B220802954208800A9401C80B272
:10C440002080401906220131FEF776FE20886946D9
:10C45000801D80B220800978002900D00121295454
:10C460002088401C208000207CBD00007FB5044651
:10C470000121684681714A4981804A4A01A9012007
:10C48000A0DF00287ED1228825463C35002A09D02D
:10C4900044482B46801C00904348616800F00EFC25
:10C4A00000287BD12289002A0AD03E482B460A3038
:10C4B00000903D48E168401F00F000FC00286DD16D
:10C4C000228A002A0AD037482B461230009036487C
:10C4D0006169001F00F0F2FB00285FD1228B002A67
:10C4E0000AD030482B461A3000902F48E169801E50
:10C4F00000F0E4FB002851D1228C002A0AD0294800
:10C500002B46223000902848616AC01E00F0D6FBFE
:10C51000002843D1228D002A0AD022482B462A30F7
:10C5200000902148E16A401E00F0C8FB002835D188
:10C53000216B00290ED002A805F0ECF919482B4612
:10C54000323000901848082202A9801F00F0B6FB84
:10C55000002823D1606B00280BD012492B463A31BA
:10C560000091027901681048401C00F0A7FB0028E8
:10C5700014D1A16B002910D002A804F095F8094845
:10C58000423000E00AE0009007482B46072202A94B
:10C59000273000F093FB002800D1002004B070BDCC
:10C5A0000A1800009E340020292A000010B5044615
:10C5B000FFF74CFE204603F0D3FE21460C4800F066
:10C5C00075F80B4821461838FFF780FD2046FFF725
:10C5D000D7FD204600F0A6F9204602F053FE204683
:10C5E000FFF74EFC02482146503002F04FFC10BDD0
:10C5F0003837002030B50446008C134AADB0904265
:10C600001FD006AA204601F03DFD69460546088078
:10C610000020019002900390049022898A800122D8
:10C620008A71088106A803910490208C01A9A6DFD5
:10C63000002804D169460988A94200D00C202DB0F9
:10C6400030BD0820FBE70000FFFF000038B50446BE
:10C6500008682060087960710020C0430D4620847E
:10C660000021222001552046403081811421817310
:10C670000121684681700C490180A21D6946012094
:10C68000A0DF00280FD12946204601F0A3FC002896
:10C6900009D1A868002805D02946204600F0A0F856
:10C6A000002800D1002038BD0D18000038B5024622
:10C6B0000888102816D0112816D0502817D1881DA8
:10C6C000C9889389994212D14189144602290ED111
:10C6D000216800290BD00C3000F03DF8002807D06D
:10C6E000002006E0888801E00020C043108438BDA7
:10C6F00001206946087022682046904738BD028CA8
:10C700000B889A4203D189784030C91E81737047E3
:10C7100070B5054604464035A8890E46142807D151
:10C720002622A118881EFEF707FDA889401EA881B1
:10C7300080B241000919401CA8818E8470BD203050
:10C740008170704770B504460D460846FEF726FD19
:10C750002080656070BD4178027808021043C007F0
:10C76000C00F70470A780270497841700220704704
:10C7700000B5174887B0006905900023D0221549FD
:10C7800005A805F083F8002801D0FFF775F86A4680
:10C790000121002005F062F8002801D0FFF76CF8B5
:10C7A000684605F051F8002801D0FFF765F80A48FF
:10C7B00005F040F8002801D0FFF75EF8074805F0C3
:10C7C00097F8002801D0FFF757F807B000BD000028
:10C7D000B021020050360020ADC50100051902004D
:10C7E000F0B58FB00D4606461C216846FEF7CBFC1F
:10C7F00068460178022001436846017000240194D4
:10C80000039404940594012708A806948770154999
:10C81000684601840794E97B0177297C4177807F12
:10C82000F9210840F721801C0840EF210840410809
:10C83000490068468177142109A8FEF7A4FC08A8DE
:10C84000099007A80A9068468785C4850786A86866
:10C850000D903346F088103309AA6946A2DF0FB065
:10C86000F0BD0000382A00000149085C7047000054
:10C87000CC21020005490B5C05494A68012098401B
:10C88000034693438B601040C8607047C821020084
:10C890000005005010B50349085C012102F0A2FC1C
:10C8A00010BD0000C821020010B50349085C00213A
:10C8B00002F098FC10BD0000C82102000549095C87
:10C8C00005484068C840C007C00F00D001200121C2
:10C8D00048407047C82102000005005010B50024F0
:10C8E0002046FFF7D7FF641C042CF9D310BD10B508
:10C8F00000242046FFF7D8FF641C042CF9D310BD98
:10C900000246002010B5C043054B00215C5C9442F8
:10C9100001D1084610BD491C0429F7D310BD000001
:10C92000CC21020010B51C4C0188606810290DD084
:10C9300011290AD1401E606007D1FEF741FF00288F
:10C9400003D02168002900D0884710BD00281ED1DF
:10C9500000210122084600F07DF8002801D00728B8
:10C9600011D107220221012000F074F8002801D023
:10C97000072808D104220221002000F06BF80028CB
:10C9800005D0072803D02168002900D088476068B7
:10C99000401C606010BD0000F033002010B5002086
:10C9A00000F04AF9002801D0062807D1012000F044
:10C9B00043F9002801D0062800D1002010BD000056
:10C9C000F3B581B00D460198FFF79AFF044604289D
:10C9D00013D21D481D4F1E4E002D27D0012D0DD006
:10C9E000022D0AD160002018C0194578002D04D00E
:10C9F000F168002901D028468847FEBD6100611812
:10CA00007D5CCF19797800290BD071680A225143D7
:10CA10000F4A8068921CFEF78BFF002801D1019815
:10CA2000B0700B48B97810300155DFE78068FEF729
:10CA3000C3FF0748610061181030C919005D8D7887
:10CA4000A842D3D0FEBD0000D0210200083800204B
:10CA5000DC33002070B50023042811D244000419EF
:10CA60000D4D012A02D101290DD000224600801966
:10CA7000094E801900290CD0012906D0022906D0C0
:10CA80000723184670BD0E30C2B22A55F9E742702E
:10CA9000F7E78270F5E700000838002010B5054A76
:10CAA0000146127A0020D20702D0084600F004F8AE
:10CAB00010BD0000DC330020F8B55D4C0546607801
:10CAC0000026002803D000206070FFF707FF012038
:10CAD000584F2B00FEF73AFD18970D0D2E3D4A5F7B
:10CAE00064686F686FA97777777777979A9DA0A921
:10CAF000A9950020FFF7E2FE00280AD00020FFF7EA
:10CB0000C9FE022D02D1E120C0000BE07D204001D2
:10CB100008E00020FFF7C8FE022D01D1C82001E087
:10CB2000FF20913025706421FEF7F0FA61684143DF
:10CB300000222BE00020FFF7C1FE002805D00020D6
:10CB4000FFF7A8FE19204001ECE70020FFF7ACFE3C
:10CB5000E4E70020FFF7B2FE002803D00020FFF733
:10CB600099FED3E70020FFF79FFED9E70020FFF7EB
:10CB7000A5FE002803D00020FFF78CFE02E0002075
:10CB8000FFF792FE25706068410000223868FEF7CA
:10CB9000CFFE064635E00020FFF76CFE257007E06B
:10CBA00000203FE025702CE060700120FFF762FE5E
:10CBB00000226168EAE760700120FFF75BFE6068B1
:10CBC00081004118E1E77868FEF7F6FE064611207D
:10CBD000401B01D0002E03D00220FFF75BFE10E0C7
:10CBE00001280BD9C82148436421FEF78FFA6168F8
:10CBF000002241437868FEF79BFE06460220FFF7BD
:10CC000053FE3046F8BDFFF769FECBE7FFF766FE3F
:10CC1000C6E7FFF763FE04E0FFF760FE0020FFF7C2
:10CC200043FE0120FFF740FEBCE7FFF760FEB9E7D7
:10CC3000DC330020D021020010B5FFF715FE0321E0
:10CC400002F0AEFA002010BD0022D2438300044956
:10CC50000428CA5002D30818203002777047000019
:10CC6000903E0020F0B50025ED43002A02D00023BD
:10CC7000042601E0042308260B4C04E09F00E7593A
:10CC80007F1C04D05B1CB342F8D32846F0BD2618A5
:10CC90005DB2203635709E00A151002AF5D1E11811
:10CCA00020310877F1E70000903E00200249091882
:10CCB0002020085670470000903E0020FFB58FB03E
:10CCC0001E4615460F0002D10020FEF7D5FD002DAF
:10CCD00002D10020FEF7D0FD1C216846FEF753FA72
:10CCE00068460178022001436846017000240194DF
:10CCF000039404940594012108A806948170684661
:10CD00000F99018407943178017771784177807F9A
:10CD1000F9210840F721801C0840EF210840410814
:10CD2000490068468177142109A8FEF72CFA08A863
:10CD3000099007A80A9068468585C4850586044839
:10CD40000D9709AA69460088189BA2DF13B0F0BDB1
:10CD50009E340020002807D00449814204D80449A9
:10CD6000814201D9012070470020704748350020DA
:10CD700058350020044A0168914201D0083101E091
:10CD80000149383901607047D03F002070B50D4D22
:10CD900004460A462846AC4208D1FF240134214605
:10CDA000104603F09BFAA0420AD070BDFF2CFCD8BD
:10CDB0002146104603F084FA002801D0204670BDB9
:10CDC000284670BDFFFF000070B5084C050009D073
:10CDD00010342168002907D0086820604968284677
:10CDE0008847F6E70834F4E770BD00007C3E002079
:10CDF000F8B52348416800293ED00E6821494C68A7
:10CE000087688078E11B0D022D0AED1C002814D1E3
:10CE100001201D4A000450601B4A403A50601B49E3
:10CE2000400008601A4908601A49012008602F2054
:10CE300002F036F8124901208870B54200D235461A
:10CE4000E81900020F4B000A403318600D4A516880
:10CE5000001B091B0902090A0002000AC91C8142C1
:10CE600009D9506818602F2002F01AF801200749EC
:10CE7000400480390860F8BD03F07AFEF8BD000078
:10CE8000E8340020001501404013014080E200E03A
:10CE900000E100E000100140F8B506461088144695
:10CEA0008446801D0D46984201D90C20F8BD328879
:10CEB0000720062AFAD31927FF01184BBA4201D9D5
:10CEC0009A42F3D171880629F0D3B94201D9994227
:10CED000ECD19A4203D0994201D08A42E6D805218A
:10CEE0006046295420881221401C80B22080295499
:10CEF0002088401C80B220804119308804F0EFFE69
:10CF00002188401880B220804119708804F0E7FE23
:10CF10002188401820800020F8BD0000FFFF00009D
:10CF200010B5FEF7A9FC10BDF8B5164801F038FBA6
:10CF3000144D00260C3D144C002807D061690029CF
:10CF40001CD001206A461070684616E02878002838
:10CF500005D06169002911D0684606700DE0687837
:10CF600000280DD0A168094800220068FEF7E0FC07
:10CF7000002803D0A169002900D088472E70F8BD91
:10CF80006168F0E734340020003A0020FC21020000
:10CF90007FB50C46002802D0012004B070BD207976
:10CFA0000026002806D01B4D01281CD0022828D0BE
:10CFB0000F20F2E702960396E0680190694601A807
:10CFC00003F0B0FC00280AD002988188E180008834
:10CFD000208169460988029803F01EFD00E00A20BE
:10CFE00002212171D9E70C4B6A460021A01D03F0F4
:10CFF00057FC002807D0084908398E60CE600A28FF
:10D00000CBD12846C9E704488188019803F004FD84
:10D01000F5E700001D1D00001C35002010B50E496D
:10D0200000230A784C78A24212D0521CD2B20A7065
:10D03000022A00D10B700A78074B920018339A58D5
:10D040000260886810180002000A8860012010BD84
:10D050000360002010BD0000E83400203EB5094DFB
:10D0600038CD0093029501946B46588099809A714F
:10D07000054900220978FFF7B5F9684600F08EF8F7
:10D080003EBD0000702202008434002010B50478F8
:10D0900000222300FEF75AFA070605070D1D262C6D
:10D0A00006000A7010BD01220A7002898A818288F6
:10D0B00014E002220A7002898A818288CA81C268C9
:10D0C0008A60007C062802D00020087410BD012070
:10D0D000FBE703220A70C2888A810289CA81C0687C
:10D0E000886010BD04230B70C0888881CA8110BD80
:10D0F0000520087010BD000070B5064D06460024DE
:10D10000A0002958002901D030468847641C082C0B
:10D11000F6D370BD003F00200EB5002910D01129B4
:10D120000ED00022009202926A46508001910D2991
:10D1300007D0862907D009201070104600F03CF86F
:10D140000EBD0B20F8E70A20F6E700000149096848
:10D15000084700004434002070B5054D0646002401
:10D16000A000295830468847641C022CF8D370BDB3
:10D1700018220200F8B507460024064E064D04E0CA
:10D18000A000315838468847641CE8788442F7DBB1
:10D19000F8BD0000303E00207434002070B5054D0D
:10D1A00006460024A000295830468847641C022CFB
:10D1B000F8D370BD38220200014909680847000011
:10D1C0007C220200704700007FB5044640680028BA
:10D1D0000BD00020039020780026414D0300FEF77D
:10D1E000B5F9066D0606304E7B6D0120F2E7A08989
:10D1F00000F0DAF9002804D1E08903F02FFC0028C0
:10D200005CD0A08900F0CAF9014668464180E089F7
:10D2100003F01EFC01466846017120780128606811
:10D2200007D0002809D00420694608706068039080
:10D2300020E00028F8D00320F6E70120F4E70846B4
:10D240003AE0A08900F0B0F9002804D1E08903F0A9
:10D2500005FC002832D0A08900F0A0F9694648807A
:10D26000E08903F0F5FB694608716068002804D086
:10D2700005200870A0680290E1E70220F9E7A08984
:10D2800000F092F9002819D0E089002816D1A08971
:10D2900000F084F969464880E08903F0D9FBFF205B
:10D2A00069460871606800280FD0072008706E700A
:10D2B000AE7002F04FFD684602F008FC6878002866
:10D2C00002D06E7002F046FD7FBD062168460170F7
:10D2D000408802F0CDFDEAE7082069460870AEE715
:10D2E0006034002000B5104987B00978890702D45E
:10D2F000022007B000BD0D49884201D10420F8E7A3
:10D30000052269460A7001220A71C880002211466E
:10D31000684602F041F8002803D003F0A5FA002087
:10D32000E7E70820E5E7000014350020FFFF0000D4
:10D3300000B50F4887B00078800702D4022007B0FC
:10D3400000BD06206946087000221146684602F0BA
:10D3500023F8002809D007480178002901D00121CD
:10D36000017303F081FA0020E9E70820E7E70000F5
:10D37000143500200040002010B58CB01421684600
:10D38000FDF701FF1D480078810703D56846FFF7C8
:10D39000B3FE30E0C0072ED1012000F02BF900F0E1
:10D3A000A3F901246846047502F088F80300FEF72B
:10D3B000CDF80C071107111B190A191B1317131BA2
:10D3C0000B200CB010BD022000F014F9012000F079
:10D3D000F7F8DBE7002000E003206946087603E069
:10D3E0000220FAE7684604760022114605A801F0FB
:10D3F000D3FF03F039FA0020E3E7000014350020E2
:10D4000038B5040014D0694603F08CFA002813D014
:10D41000684600880101094809188889002809D050
:10D42000A27A002A06D0401E88810020A07238BD52
:10D43000052038BD062038BD0A2038BDE03F002059
:10D440001FB501A9684603F02BFA04B010BD07B55B
:10D4500013460A466946002003F022FA0EBD07B5BE
:10D4600013460A460021684603F01AFA0EBD00284A
:10D4700005D0002903D0006808600020704705200F
:10D480007047000038B50D46040017D0002D15D0A8
:10D49000694603F047FA002812D0684600886168A0
:10D4A0000201084812189089401C90812960606828
:10D4B0000C3068600120A072002038BD052038BD06
:10D4C0000A2038BDE03F002010B5002804D0032317
:10D4D000002204F037FD10BD052010BD10B5022359
:10D4E000002204F02FFD10BD10B5002A03D0022346
:10D4F00004F028FD10BD052010BD000010B5064A3F
:10D500005178082906D08B00044C491CE05051701A
:10D51000002010BD0C2010BD14350020003F00205D
:10D5200038B504460A480D460078800701D4022029
:10D5300038BD002C0AD06946284604F013FE0028A6
:10D54000F6D1694609882180658038BD052038BD3F
:10D550001435002010B504460E480078800701D429
:10D56000022010BD002C10D0218802290FD80A4AB1
:10D570000801801842896088121A032A07D404F02F
:10D58000E7FD00202080608010BD052010BD042034
:10D5900010BD000014350020E03F00200321890366
:10D5A000401A80B27047000003218903401A0349E2
:10D5B000884201D80120704700207047FE3F0000DC
:10D5C00002490A7882430A7070470000143500202F
:10D5D00010B504460078182802D1FEF7CDFE207061
:10D5E00010BD10B504460078182802D1FEF7C4FE1D
:10D5F000207010BD02490A7802430A70704700008B
:10D600001435002070B5064600200546862906D050
:10D61000112902D0002903D070BD012500E00120AE
:10D620000E4C002A02460FD061793046FEF7DAFE32
:10D630002A4621793046FEF7D5FE00226178304631
:10D64000FEF7D0FE002204E061783046FEF7CAFE05
:10D650002A4621783046FEF7C5FE70BD883400208A
:10D66000F8B506461C481F46007815460C46C0070C
:10D670000AD03046FFF76EFB002807D0002C07D0F9
:10D68000A00507D00620F8BD0120F8BD0220F8BD96
:10D690000320F8BD3068A04204D8A80271680019C0
:10D6A000884201D90520F8BD002D10D0684603F04E
:10D6B0002DF800280DD000980221C0C00170A101F2
:10D6C000090C8180058103F0DDF80020F8BD0420FD
:10D6D000F8BD0720F8BD00002C35002010B5084625
:10D6E00003F030F810BD0000F0B52648264C001BB2
:10D6F0000309264819464069421C03D1012000074E
:10D7000040698002224A12789646D2070CD0002047
:10D71000F0BD1D4C15012C192568002D03D064683F
:10D72000002C00D0491E521C9A42F2D3002420E063
:10D73000E2B2002594462A460FE0134E1701BE19A7
:10D740003768002F02D07768002F05D1767BAE4274
:10D7500002D93546D6B2B446521C9A42EDD362463F
:10D760001501094AAA185060157BAD02401B641CC4
:10D7700010608C42DCD306487146012211430170CF
:10D78000C5E7000058350020483500200010001083
:10D790002C350020002804D00349496E0160002088
:10D7A000704703207047000010400020F8B507467E
:10D7B0001E481E46007815460C46C0070ED0384657
:10D7C000FFF7C8FA00280BD0002D0BD0002C09D091
:10D7D00028462043800707D00620F8BD0120F8BD69
:10D7E0000220F8BD0320F8BD3868A04204D8B1007B
:10D7F00078680919884201D20520F8BD002E11D0A1
:10D80000684602F083FF00280ED000980699076052
:10D81000416001210172C5600461868203F032F823
:10D820000020F8BD0420F8BD0720F8BD2C350020ED
:10D8300070B5174B0446186E182148431549C01897
:10D840000A78950715D5022C02D0032C1CD102E0D2
:10D8500001F078FD18E04A78521CD2B24A70032ACF
:10D8600012D900224A70082103F04CFB02F038FF65
:10D870000AE0500708D5FB2002400A70586E0028C5
:10D8800002D0022002430A7002F0B8FF70BD00000F
:10D89000104000202C3500200EB51120694608727A
:10D8A0000A2211A102A87CDF002801D0FDF7E4FFC5
:10D8B000104878DF002801D0FDF7DEFF0020FF22AE
:10D8C00000904132694601900A804122D2004A808C
:10D8D0008880FF209130C88068467ADF002801D018
:10D8E000FDF7CAFF0EBD00004D616C61706173638E
:10D8F000756100004103000010B50248FEF7FFFE0D
:10D9000010BD00003837002010B50449044801F06C
:10D91000BBFA002801D0FDF7AFFF10BDF9D8010018
:10D920008837002070B5002801D0012070BD164C4A
:10D930000025207B002801D0257301E000F09CF831
:10D9400020780300FDF702FE081E05080B0E1E11CD
:10D950001A1E00F01BF870BD00F07EF870BD00F0DC
:10D9600061F870BD00F038F870BD608806490001AC
:10D9700020394018406801F081FD70BD656001F0FC
:10D980008BFD70BD0F2070BD0040002070B51049A8
:10D9900000208A1C0D460346203D0C18A67A002E56
:10D9A00008D0A37204016419A689002E02D1A47BB9
:10D9B000012C08D0401C80B20228EED30B704B80A3
:10D9C00004484B6070BD108000F046F870BD000048
:10D9D000004000201D1D000010B50F4C60880101A3
:10D9E000204620380818818900290BD00520207096
:10D9F0000A48022181800168002301220848FFF7BC
:10DA00002FFE10BD4168002301220548FFF728FEC4
:10DA10000421217010BD00000040002024350020AA
:10DA20004835002038B50A4908480B68898842689B
:10DA3000890059185388032404700020DB1C0090CF
:10DA40009BB20448FFF7B2FE38BD00000040002042
:10DA5000243500204835002010B506494888091DA6
:10DA600002F0B0FF002802D0FFF7DCFF10BDFFF787
:10DA7000B3FF10BD00400020F0B51D481D490778D8
:10DA80000246012502268C88203A3B00FDF75EFD08
:10DA9000080517171A212C2C16170189491C01811A
:10DAA0000021418001730B01D35C002B08D00023BF
:10DAB0004418491C89B2A3720229F4D30570F0BD41
:10DAC0000123F5E742685288D21CA2188A800670AA
:10DAD000F0BD45880B682D01AA1855680D6053608C
:10DAE00014818E80062100E007210170F0BD000046
:10DAF0000040002024350020F0B504460088384D51
:10DB00008DB050281DD0522802D0542826D103E0D1
:10DB1000A08800F0C3FF21E0062069460870A088B5
:10DB200000F04CFC69464880A2888A8000F02CF9FD
:10DB3000A0880022E978FEF755FC6846FFF706FB4F
:10DB40000CE0207B012809D1A07A012806D1208988
:10DB50002449884202D1A08800F0DCFFA878FEF7B3
:10DB600023FC002819D008A8FEF752FB142208A9AC
:10DB700003A8FDF7E1FA002403AE0BE0600087196B
:10DB8000B888A978FEF71CFC002802D0B88800F0FD
:10DB900085FF641C0398A042F0D86878FEF704FC67
:10DBA000002819D008A8FEF733FB142208A903A8FF
:10DBB000FDF7C2FA002403AE0BE060008719B888B5
:10DBC0006978FEF7FDFB002802D0B88800F0A2FFBC
:10DBD000641C0398A042F0D803F02AFA0DB0F0BDFF
:10DBE0003C340020022900003EB5044640886946C6
:10DBF00048802078002814D001281DD002280FD199
:10DC0000207900280CD0608800F00CFB0E49884277
:10DC100006D00E490122C978FEF7E4FB03F008FAAA
:10DC20003EBD002008700846FFF790FA608800F0BB
:10DC3000F9FA00F033FF3EBD012168460170A1886A
:10DC40008180FFF783FA3EBDFFFF00003C340020D7
:10DC500010B50446007801280DD1608800F01EFF41
:10DC6000608800F057F9002805D003496088012238
:10DC7000C978FEF7B7FB10BD3C34002010B5104C3E
:10DC800000202070FEF778FB6070FEF775FBA07037
:10DC9000FEF772FBE070FEF76FFB207161781829C8
:10DCA0000BD0A178182908D0E178182905D01828B8
:10DCB00003D001202070002010BD032010BD000003
:10DCC0003C340020F0B585B000F076F86846FEF7E9
:10DCD0009FFA00246D460C4F0EE060004619B08894
:10DCE00000F06CFBB84205D10849B0880122C97820
:10DCF000FEF778FB641CA4B20098A042EDD803F0B4
:10DD000097F905B0F0BD0000FFFF00003C34002093
:10DD100010B50178072902D1408800F0FBFE10BD44
:10DD200010B504460A4841782046FEF749FB002812
:10DD30000CD0084800210C224A4312185288A242F3
:10DD400001D1C8B210BD491C0829F4D3FF2010BD71
:10DD500054340020503A002070B5094D094E00247B
:10DD60000C206043401940887178FEF729FB002899
:10DD700004D0641C082CF3D3FF2070BDE0B270BD4A
:10DD8000503A0020543400201CB5054A9168D268EE
:10DD9000019200910022694601F060FD1CBD000067
:10DDA0000422020003480021C9438180012101703F
:10DDB000002070474834002010B5044801F082FC70
:10DDC0000349888003F060F910BD0000FFFF0000E8
:10DDD00048340020F1B582B0029800F0EFFA002438
:10DDE0001649032501272646884209D06A4608219C
:10DDF00001F00AFD002803D1019886880568841D7A
:10DE00002B46324621460298A9DF042804D0082870
:10DE100004D00B2807D002E0112000E00020002FE2
:10DE200000D10B20FEBD0027A80701D50125E7E79B
:10DE30003443F6D0002426460325E1E7FFFF000027
:10DE4000F1B582B0029800F0B9FA07461B48874244
:10DE500001D11B48FEBD01252A466D1C0026ADB22E
:10DE60006B460821384601F0FFFC040002D0072C65
:10DE700021D021E0019903230B600A1D891D02981E
:10DE8000AADF040004D00C2C08D0052C08D008E030
:10DE90000821384601F082FD04460DE0012600E02D
:10DEA00000240821384601F063FD002800D0032437
:10DEB000002ED1D100E00C242046FEBDFFFF000063
:10DEC000023000001FB504460078012815D12079E2
:10DED000012812D1608802AA012101F095FC0028D6
:10DEE0000BD1022168460170618841800398017856
:10DEF000684601710549096888470448044908389B
:10DF00008088884201D003F0BFF81FBD5034002044
:10DF1000FFFF00001CB500F051FA6A46012101F034
:10DF200073FC002801D000201CBD019800781CBDA6
:10DF3000F8B5074E074C084D07463246618838460B
:10DF4000A7DFA84203D16088401C6080F5E7F8BDD8
:10DF5000FFFF000048340020033000008188054A9C
:10DF6000914204D00088002801D001207047002091
:10DF700070470000FFFF000010B51249124803F07F
:10DF800049F8114C81B2103C6068401C60600D483B
:10DF90007038FEF72FFB002809D0082807D00B495E
:10DFA000884204D00A49884201D0FDF765FC03216C
:10DFB0006068FDF7ABF8002901D0012000E00020E7
:10DFC000207010BDA8370020C033002004300000AE
:10DFD00001340000F0B5002406460D46601C010720
:10DFE000B7B0090F08A810310C940174297B417453
:10DFF000817CF9273940891C81741C2105A8FDF713
:10E00000C2F86846017D10200143684601750CA8DE
:10E0100006940A900894099401220B9408A8827629
:10E020001749684601870D94697B08A80175A97B8B
:10E030004175817DF7203940891C0140EF20014066
:10E04000114308A8817514216846FDF79CF80EA8B5
:10E0500000900DA801900FAA0021304600F012F8A0
:10E060000146684601819B21448181810FA804906B
:10E070003346F08808336A4605A9A2DF37B0F0BD01
:10E08000372A0000F7B542790025002A00D0042580
:10E090002222135C0222002B00D01543CBB2FF29B1
:10E0A00007D901221543029A090A53709170032679
:10E0B00002E0029902264B7004464034A1890029EF
:10E0C00001D010210D43002717E0A27BB11C8A422A
:10E0D00009D2A189C91B4A007900091824302431CA
:10E0E000FDF72AF80CE0029B7A0012189B19928C1B
:10E0F0001A70120A5A70CEB27F1CA189B942E4DCB0
:10E10000A089C01BA081029805703046FEBD3EB5B7
:10E11000044600780D46022815D10322611C68468A
:10E12000FDF70AF80322211D02A8FDF705F801AA50
:10E1300002A92846FDF76BFB032201A96846FDF7FB
:10E1400034F8002801D000203EBD01203EBD000073
:10E1500010B50C46FFF7E4FDFF280AD00C21484318
:10E160000549072241182046091DFCF7E5FF00205C
:10E1700010BD052010BD0000503A002070B5018888
:10E1800090B0102949D1011D2C2202A8FCF7D4FF20
:10E190006846234E007B344602AD03282AD001F0A6
:10E1A00005FD6846007B00280ED001280CD002280F
:10E1B00020D118E00E99281D1131FDF7F1F9002842
:10E1C00002D06846048815E00DAA6946072001F0D0
:10E1D000C3FC0028EED10DE00E99281D491CFFF765
:10E1E00096FF0028EDD10DAA6946072001F0B4FC86
:10E1F0000028F1D168460089291D00F0F5FDB442E0
:10E200000BD068460089214600F086F868460189EF
:10E21000418001210170FEF79FFF10B070BD00002A
:10E22000FFFF0000084A00210C234B43D35A8342CE
:10E2300004D10C204143881840887047491C0829A4
:10E24000F2D3024870470000503A0020FFFF000060
:10E2500010B50E4C182060700D4A0E4900200C239A
:10E2600043435B18401C5A800828F8D3FEF784F813
:10E270006070182804D00548C01C71DF002801D048
:10E28000032010BD01202070002010BD5434002058
:10E29000FFFF0000503A002070B504460D46401CB8
:10E2A00000F0B0F9002810D01022691C601CFCF7A7
:10E2B0007CFF00280AD00026294620461131113063
:10E2C000FDF76EF901463046084370BD0126F3E7BD
:10E2D0000188002903D142189278002A01D0012038
:10E2E0007047491C0829F6D30020704710B50C462A
:10E2F0000346FFF7EDFF00280BD0188821888842DD
:10E3000006D10822A11C981CFCF74FFF002801D061
:10E31000002010BD012010BD10B501F005FE10BD9C
:10E3200010B50446007888B0002826D12079072847
:10E3300023D1608801AA072101F066FA00281CD1C8
:10E3400001F034FC1BE0694660880988884216D0D9
:10E3500004990298FFF7A0FF002810D06088FFF70B
:10E3600061FF01466846C182002101756188018311
:10E370000188418305A8FEF7EFFE08B010BD03AA8F
:10E380006946072001F0E8FB0028DCD1F5E7000032
:10E3900070B50446FFF746FF0546204601F039FAFE
:10E3A000054904468D4204D0002C02D1284601F0D4
:10E3B000BBFD204670BD0000FFFF000010B5FFF759
:10E3C000AFFCFF2804D00C2148430249085A10BD75
:10E3D000014810BD503A0020FFFF00003EB5044642
:10E3E00001F0E4FB10E0019920464631FFF77EFF83
:10E3F000002806D1019920462A31FFF777FF00282F
:10E4000002D0684600893EBD6A4602A9072001F095
:10E41000A3FB0028E7D101483EBD0000FFFF00003C
:10E4200010B501200A4A000790600B4B09490B4CBC
:10E430001B6800BF00BF00BF00BF00BF00BF00BF20
:10E4400000BFA34200D000BF0139F2D1D06010BD9F
:10E4500000050050404B4C00443500200024F400DF
:10E46000F8B50F46002804D00120FFF7A9F80120D5
:10E47000F8BD397900290AD00026254D01290BD095
:10E48000244C022920681FD003293BD125E001F04C
:10E4900003F80121397133E000200101695C022990
:10E4A0000BD0401C80B20228F7D30220FFF7A2F85D
:10E4B0000120FFF785F81848F8BD0401601940688D
:10E4C00000F0DCFF2E551BE001460023012213481B
:10E4D000FFF7C6F80221A18011E000F0CFFF0C4940
:10E4E0002368203149880A01094951184D6825607F
:10E4F0004B60A3880B810221A18005498E543E7197
:10E500000028D9D00120FFF75BF80E20F8BD0000ED
:10E51000E03F0020243500201D1D0000483500206C
:10E52000F8B51E4C2078002836D0E0680026002878
:10E530000CD00025607800282ED1684652DF0528CF
:10E5400006D0002806D0FDF797F90BE00125F1E78A
:10E55000012607E0009800F0F9FC2169002901D0AC
:10E5600000988847002D13D16078002814D1608866
:10E5700069460880A06861DF052804D0002804D01F
:10E58000FDF77AF904E0012502E0E168A068884718
:10E59000002ECFD0002DE5D0F8BD00003035002092
:10E5A000418805480288914204D34088814201D8BD
:10E5B00001207047002070472C3400201048018C47
:10E5C000C9B2012917D1818C090714D1018D09061F
:10E5D0000A0F03D1828D1206120F0ED0090F0129E6
:10E5E00003D1828D1206120F07D0032903D1808D2B
:10E5F0000006000F01D00020704701207047000086
:10E60000C00F00F00021425C002A01D001207047B9
:10E61000491C1029F7D300207047800701D0002043
:10E620007047012070470000FFB5244D81B0287A63
:10E630001F460E46084304D0039A002E04D0002142
:10E6400004E0052005B0F0BD1C491031019802F02E
:10E65000F3FF0446014600220198FEF7D3FF002F86
:10E6600003D021460198FEF757FD112C0FD006DC90
:10E67000002C0AD0082C08D00D2C05D105E0862CE2
:10E6800011D00F48C44200D003242046DAE73246B6
:10E69000E9780198FDF7A6FEA978039A0198FDF79D
:10E6A000A1FE0024F1E73246E9780198FDF79AFED1
:10E6B000A978039A0198FDF795FEE6E788340020D3
:10E6C000FECFFFFFFEB517460C00064604D02078AB
:10E6D000C00704D0012003E000217EDFFEBD022040
:10E6E000694608713046FFF769FE174905468842BA
:10E6F00008D001A800902B463A462146304600F04B
:10E7000025F806E020782146C007304603D000F007
:10E7100081F804460BE07EDF044600200090002CC8
:10E7200008D0002201232946304602F0B7FB002C16
:10E7300002D006E00122F5E768460179304602F092
:10E74000D3FB2046FEBD0000FFFF0000FFB585B0F3
:10E7500000252E4601AA07210E9F089801F054F8C3
:10E76000040008D1029D4420405D1835C607F60F0D
:10E7700001D0029D34350798204312D1002D10D0CE
:10E78000002E05D128461230FFF7A2FD002808D040
:10E7900029462A461231059885DF04460020387044
:10E7A00023E0002C01D0052C1FD106980078C0076B
:10E7B0000DD003AB01220721089801F055F80400A1
:10E7C0000AD10721089801F04DF9040004D10699F7
:10E7D00005987EDF040008D00721089801F0C8F8EA
:10E7E000002802D0052800D00324002000903878AB
:10E7F000002801D0012300E00023002C07D00022D4
:10E800000899059802F04AFB204609B0F0BD0122A4
:10E81000F6E70000FEB50F46064600F0F1FF05469C
:10E820001848854220D001AB01220721284601F07B
:10E830001BF804000AD10721284601F013F904004F
:10E8400004D1394630467EDF040008D0072128462F
:10E8500001F08EF8002802D0052800D00324012002
:10E860000090002C0BD002E0032400200090002236
:10E8700001232946304602F011FB2046FEBD01224D
:10E88000F6E70000FFFF0000F7B5114D0F461646F2
:10E8900029780098FDF794FD002812D00098FFF722
:10E8A0008DFD04460B4884420BD069780098FDF733
:10E8B00087FD002806D033463A462146009800F0EE
:10E8C00075FEFEBD324639460098FEF7C7FBFEBD19
:10E8D00084340020FFFF0000F1B586B00698FDF7F4
:10E8E00063FD002821D06846FDF792FC00246E46A7
:10E8F00018E060008519A8880699FDF761FD0028D9
:10E900000FD00B4FA888B978FDF75AFD0590A8885D
:10E91000F978FDF755FD0146A8880123059AFFF710
:10E9200083FE641C0098A042E3D807B0F0BD00004D
:10E9300088340020F0B5284C2146103948688B688F
:10E94000227886469C46CF78667836E01823534373
:10E950006168521CC918A378D2B2934200D1002238
:10E960000B78022B02D0032B27D123E003464D68FE
:10E97000194603E0A94204D00B46C96900291CD0FE
:10E98000F8E7002919D08B4208D1C069002805D1C9
:10E99000124F0125BD600025AC4601270D68C969ED
:10E9A000D961002909D00B685B190B6005E001747F
:10E9B000C06900E000210028F9D19642C6D106497D
:10E9C000624610398A604860CF70704501D00120DE
:10E9D000F0BD0020F0BD0000F83400200010014020
:10E9E000F8B52C4E044670680025009041E0002CDC
:10E9F00002D02046E46920E0264818231030017830
:10EA000042684B43491CC9B2D218017083789942BD
:10EA100000D105701178506801292CD1017C0029A2
:10EA200029D191684160D16881601169C1605169E3
:10EA30008161F178002900D045604368B268164FC3
:10EA4000991A0902090AB94202D28268891806E0B5
:10EA5000D11A09028268090A8A4202D9511A016050
:10EA600000E005604560012185600174C56102F028
:10EA7000C3FF002CBBD10748103001784078814299
:10EA8000BAD171680098814201D00120F8BD002000
:10EA9000F8BD0000E8340020FFFF7F00FEB504460B
:10EAA0001948002684422DD02046FFF793F905002F
:10EAB00012D00B2D14D0112D10D01448C5421BD0EC
:10EAC0000921684601702046FFF778FC0146684638
:10EAD0004180848002950DE0022102E001260BE0D6
:10EAE0000321684601702046FFF768FC014668462E
:10EAF00041808480FEF72AFB054832468178204613
:10EB0000FDF770FCFEBD0000FFFF0000FECFFFFF21
:10EB10003C340020FEB504460026FFF791F9054677
:10EB2000112818D004DC002D13D00C2D05D114E0D1
:10EB3000862D25D01348C5421BD009216846017097
:10EB40002046FFF73BFC01466846418084800295E1
:10EB50000DE0012102E001260BE00721684601706B
:10EB600084802046FFF72AFC014668464180FEF774
:10EB7000EDFA0548324641782046FDF733FCFEBDEC
:10EB80000821EBE7FECFFFFF3C340020F8B5054637
:10EB900000780C46002620420FD1002069460870FC
:10EBA0006846FCF71DFF2878204202D120432870D8
:10EBB000012668460078FCF731FF3046F8BD0000BA
:10EBC00098B01C2000F0E2FA1E2000F0DFFA0124C9
:10EBD0003B49A007C860886002F092FFFDF7C8FDBE
:10EBE000204601F0B5F9FEF757FE3C2101A8FCF7DD
:10EBF000CAFA02216846017184710621C171032697
:10EC0000868230480690202110A8FCF7BCFA10A894
:10EC1000C470FF202D301490B420002515902A4B8D
:10EC200010AA2946009501A8FDF77CF8002801D01C
:10EC3000FCF722FEFEF768FE02F0DCFA02F094F91F
:10EC40001C216846FCF79FFA0520C00301900F20A5
:10EC5000000402900095684606731C488189684646
:10EC6000C18105741A4805901A4806906846FDF758
:10EC70005DFA002801D0FCF7FFFDFCF7E5FEFCF78C
:10EC8000BDFD00F067FA002813D100F035FA1248F4
:10EC9000124A40690090684644706946182000F0A6
:10ECA000D7F9002801D0FCF7E7FD0121182000F07A
:10ECB00083F948DF0028FCD0FCF7DEFDF9E700000F
:10ECC00000050050D033002063F2010038370020E7
:10ECD00025F3010021CF0100B021020021E4010051
:10ECE00070B5144682880E4605462088111D4118CD
:10ECF000921C994201D8FE2A01D90C2070BD521CE9
:10ED000032542088FF21401C80B22080315420885A
:10ED1000401C80B220808119288802F0E0FF218801
:10ED2000401880B22080AA88002A09D0A96800294A
:10ED300008D08019FCF700FA2088A98840182080A4
:10ED4000002070BD072070BDF8B50F46017814464D
:10ED50000546012902D16878002806D02088821C47
:10ED60009A422DD8012902D006E00720F8BD697823
:10ED70004118891C994223D8181A801E86B2684609
:10ED800006802188B81C081869467DDF0028EDD16F
:10ED90002878022805D169460988B14201D809219D
:10EDA0000AE00821012805D16878B04202D86A46F5
:10EDB000108001E06846068068460088FE2801D978
:10EDC0000C20F8BD2288401CB8542088401C80B21A
:10EDD0002080395420886946401C208009884018CA
:10EDE00020800020F8BD0000F8B5FF240F4605463E
:10EDF00000291FD0104EB5421CD010480122417886
:10EE00002846FDF7EFFA2846FEF78AFF0446FF285A
:10EE100004D1FEF7A1FF0446FF280BD00C21484384
:10EE200007490246401845808E5207223946001D88
:10EE3000FCF782F92046F8BDFFFF000054340020A3
:10EE4000503A002070B50B4D0E46A84201D100206B
:10EE500000E0401C84B209E02146304601F058FA37
:10EE6000002801D0204670BD641CA4B2FF2CF3D949
:10EE7000284670BDFFFF0000C20843075B0F01205A
:10EE8000895C984008407047002070477047012116
:10EE9000890740180068002800D001207047000052
:10EEA00000280FD00849094A096800BF00BF00BF09
:10EEB00000BF00BF00BF00BF00BF914200D000BF35
:10EEC0000138F2D170470000443500200024F400DE
:10EED00070B50E4C00252078002801D0852513E060
:10EEE0000021A16061602161E1600948006801269C
:10EEF000304002D1032100F02FF802F0F3FC00288B
:10EF000001D1044886612670284670BD7C3E0020F1
:10EF100000E100E00005004038B5002069460870B7
:10EF20006846FCF75DFD084C2078002801D1FFF70A
:10EF3000CFFFE068401CE0600120A07068460078C8
:10EF4000FCF76CFD38BD00007C3E002010B50028A9
:10EF500001D1FDF739FF10BD8207D30EFF229A4081
:10EF60008907090E10B5994000280BDA03071B0F1B
:10EF7000083B9C080C4BA400E318DC6994430C4349
:10EF8000DC6107E08408094BA400E418236893437C
:10EF90000B432360C106C90E012088400449086064
:10EFA0000449086010BD000000ED00E000E400E04E
:10EFB00080E200E000E100E0F3B581B0054601F039
:10EFC0000BF81F4F0028284617D0FDF76FFEC01919
:10EFD0002030007F8009032802D001280BD005E0F3
:10EFE00018480069E840C007C00F04D00321284634
:10EFF00000F0E7F8FEBD0221F9E700F0F9FF002874
:10F00000F8D02846FDF752FE04468000C11D0E4A86
:10F01000F9318018026989B201263243026108463B
:10F0200000F000F902980028E4D02846FDF73EFEE3
:10F03000800038580028DDD00448A6404660FEBD58
:10F04000903E002000050050006500400063004035
:10F05000FEB5044625480E460019202141560027DA
:10F06000C8171346401C01D008273CE0F278194627
:10F070002046FDF7F7FD0546401C33D0B078002848
:10F080000BD005200007A10009180720000209186D
:10F09000086802229043086007E000217378204648
:10F0A00000910A46019100F05DF8F078002810D038
:10F0B0000F48AA001018317802690E4B1A400261FD
:10F0C000E206D20C8907890B0A4301690A430261EF
:10F0D00009E00648327840192030017F920111433F
:10F0E000017700E004273846FEBD0000903E002076
:10F0F00000650040FFE0FCFF70B5144D2879002842
:10F1000001D0082070BD114900204039421E0B1863
:10F110002033401CC0B21A702028F8D300242046A7
:10F12000FDF792FD641CE4B2082CF8D303210620FD
:10F13000FFF712FFFF207D3000F074F80120044932
:10F14000C007486001202871002070BDD03E00201B
:10F150000063004002480079002800D00120704779
:10F16000D03E002070B552000A439900049D0A4326
:10F170002902059E0A43310405240A43240780001E
:10F180000721001909024018026070BD052212070C
:10F190008000801807220321120280180160704746
:10F1A000052212078000821807200002101802684A
:10F1B00003231B049A430260026809040A430260A5
:10F1C00070470522120780008218072000021018DD
:10F1D000026803231B049A430260026809040A437D
:10F1E00002607047012282400348002901D08260FA
:10F1F0007047C260704700000005005038B5084BEA
:10F2000005241B68009324026B46411805E0850025
:10F210005D592D192D69401C20C28142F7D838BD97
:10F22000802202000249401800210160704700005E
:10F2300000600040034940180068012800D0002009
:10F2400070470000006000404058002800D00120B6
:10F2500070470322120280184068084000D0012045
:10F26000704710B5002809D0032806D10220FDF709
:10F2700015FC002801D0FCF7FFFA10BD02F088F859
:10F2800010BD000030B50446008889B03A2821D06E
:10F2900009DC234D022821D0102811D011280DD1CE
:10F2A0000020C04314E051281CD0552806D1A08866
:10F2B000132176DF002801D0FCF7DEFA09B030BD5B
:10F2C0000720FDF7EBFB002801D0FCF7D5FAA0885A
:10F2D0006880F3E7A088132176DFEBE700216888D8
:10F2E00067DFE7E71022A11D04A8FBF725FF6846AA
:10F2F000017C0029E2D0007E042803D0062801D03A
:10F300000528DBD1022908D0012069460870FF20BA
:10F3100083308880A088A8DFCCE70220F5E70000D2
:10F32000B033002010B50078002807D104483B21F5
:10F33000408876DF002801D0FCF79EFA10BD00005F
:10F34000B033002010B5134A00215170017A012911
:10F3500011D002290ED18189491C8181C189491CA2
:10F3600089B2C181028A914204D1002101F0CAFD13
:10F3700001F0B6F910BD838AC28A991AFF2901DC0F
:10F3800089B201E0FF210131511889B2C18299424D
:10F39000EBD010BD2C350020F7B51C4D0E460146B4
:10F3A0006A6F002082B0032A2DD82C4678340827B3
:10F3B000636CBF1BBB4226D8286F10188007800FD4
:10F3C0001C2250434019FBF7B7FE686F401C68676A
:10F3D000002E17D0216C606C40184007800E001979
:10F3E0000023009009E00498D9000A1806CA009882
:10F3F00006C06846FDF7BEFC5B1CB342F3D3606CED
:10F4000080196064012005B0F0BD0000203F00209D
:10F410000389CA1C9A1802814289511AC91E418166
:10F4200070470000F7B50D460121890247180446D0
:10F43000002608340220288012E02046FEF78EFDC8
:10F44000002817D00C48A1684268914200D9416059
:10F45000608881000C1929880818C01C28800C3489
:10F46000BC4202D22068401CE7D10298002800D09C
:10F470000670FEBD0126EBE71435002008B500211B
:10F48000009101460223024A0248FEF78FF908BDA7
:10F49000902202004835002008B500200090044862
:10F4A00002230168034A0448FEF780F908BD000002
:10F4B000243500208822020048350020F8B50025B8
:10F4C000354F2C462E4600953448B102006840184E
:10F4D0000168B94205D1324A4168891830D0012902
:10F4E0000CD000218A0082580346521C36D00320DB
:10F4F0002C4922018854641CA4B21BE00099002905
:10F500000CD0284B022221015A54274A1368254A5D
:10F51000891802224B60641C0A81A4B2224900228D
:10F520000860091DFFF77EFF1F488088022831D040
:10F5300008200543761CB6B2032EC5D3E8B2F8BD49
:10F540001849002322018B5451180A4648600E3294
:10F550000831FFF767FF02200543CCE7491CFF296C
:10F56000C0D911490A68002A0CD00E4A0221230191
:10F57000D1549A1850600B48118120304480641C8B
:10F58000A4B204E002200B608880012000900120DA
:10F590000543CFE70420CCE7DEC0ADDE48350020D0
:10F5A00002FEE10EE03F00202435002070B5184D2A
:10F5B0000E46044623CD86B0029500900191684620
:10F5C000448082808371134D2046A978FCF7F8FEB1
:10F5D000002803D03046FEF7DBFE0FE0072130465F
:10F5E00000F0C6F9002809D0052807D1092269468C
:10F5F0000A73CC81049003A8FDF7D0FD002229787E
:10F600002046FCF7EFFE6846FDF7C8FD06B070BD6A
:10F610006422020084340020F0B585B00746FCF770
:10F62000C3FE002814D06846FCF7F2FD00246D46A6
:10F630000BE060004619B0883946FCF7C1FE00288F
:10F6400002D0B08802F098F8641C0098A042F0D86C
:10F6500005B0F0BD70B5054D06460024A000295840
:10F6600030468847641C052CF8D370BD2422020064
:10F670003EB50F4D002414206043401902F03CFCBD
:10F68000641C082CF7D30821502001910A49012459
:10F69000C2000290074B0094881800F0E4FC002898
:10F6A00001D003203EBD0348447000203EBD000051
:10F6B000503D00206C340020C03A002010B500F00E
:10F6C00043FA10BD10B500F043FA10BDF0B50025A7
:10F6D00085B00095019502950395044641886846DA
:10F6E0004180217901712E462179608802F0DEFB8C
:10F6F00022780421404F1300FBF728FF0A06063644
:10F700001C1C383E43484B4D00280DD0417CC90796
:10F710000AD002F003FC684606702078012800D069
:10F720000020694608722AE0012069460870A06836
:10F73000029024E000280ED08268A3689A420AD181
:10F74000427CD30707D07B6852085B1C52000A43F7
:10F750007B6042741FE0022069460870E0680390F5
:10F760000DE0FFF777FF16E0032006E06846017022
:10F77000E06802906846F4E705206946087008468C
:10F78000EFE7062069460870E068D1E70125072009
:10F79000F3E7E06802907868002824D0174E002430
:10F7A000142027464743B819417C4A0703D48907E8
:10F7B000C90F29421CD08178F05B00F0EFF80028D7
:10F7C00016D014214C43325B69464A80B9198A78B5
:10F7D00069460A71862808D009216A46117002908C
:10F7E0006846FFF737FF05B0F0BD08200870F7E75F
:10F7F000641C082CD4D3F6E76C340020503D002064
:10F8000010B500F06BFA10BD10B5002300F0D6F96A
:10F8100010BD38B50546002420460AE08178284608
:10F8200000F0A6F8002802D0052800D00324009894
:10F83000401C00906946284602F04AFB0028EDD1A2
:10F84000002C07D1284600F051FA002802D00728E2
:10F8500002D00324204638BD0724FBE710B5134629
:10F86000002200F0E3F910BDFFB581B00498154601
:10F870000E46002804D0072E05D0082E19D102E02C
:10F880000E2005B0F0BD002D13D0082D11D8019821
:10F8900000F037FA00280CD0002000903146019883
:10F8A00002F004FB041E26D0E068A84212D2002712
:10F8B00009E00720E5E7207CC019C1B22A4800F022
:10F8C0000AFC7F1CFFB2E068B842F4D8204602F080
:10F8D00013FB10E0A84217D9EFB207E0207CC01953
:10F8E000C1B2214800F0F7FB7F1CFFB2E068B842CC
:10F8F000F4D8002C08D1FF211C48019F02F0D6FA51
:10F90000041E05D00780A670207CFF2802D00AE0E4
:10F910001120B6E72946144800F076FB2074FF2832
:10F9200013D001200090E560217C0F4800F0BCFB63
:10F9300002000ED0ABB23146049800F073FA009882
:10F9400000280FD0082E06D00CE0204602F0D4FA92
:10F95000DEE7032095E70498049900884968800051
:10F96000801F888000208CE7403D0020FFFF0000C2
:10F9700070B5002402F09AFA05000CD068680028DF
:10F9800004D000F0DAF9040000D00324284602F085
:10F99000C5FA204670BD052070BD00007CB50D463F
:10F9A0000646072903D0082D01D007207CBD002082
:10F9B00000900190684685702946304602F076FA3C
:10F9C000040004D0607CC00703D000207CBD05206B
:10F9D0007CBD217C214800F067FB020025D0294630
:10F9E0006846E36800F0B1F9684602F04DFA234634
:10F9F000083369463046626800F018F90246607CB8
:10FA00001749430704D5830702D54B685B1E4B603B
:10FA1000FB25FD23002A0AD0112A0DD0862A14D0F6
:10FA2000072A00D0032210467CBD03207CBD0121A3
:10FA30000843284018400EE04A68521C4A600421DE
:10FA40000843184060740022EDE74B6828405B1CB7
:10FA50004B60022108436074E5E70000403D002050
:10FA60006C3400207CB50D46072903D0082D01D049
:10FA700007207CBD002602F019FA040003D060685C
:10FA8000002802D01BE005207CBD217C0E4800F040
:10FA90000BFB024600200090019068468570002A0A
:10FAA0000FD02946E36800F050F9684602F0ECF9FF
:10FAB000211D684600F029F90646092801D0304684
:10FAC0007CBD03207CBD0000403D00200149096849
:10FAD000084700002022020070B588B01748FDF7E3
:10FAE0000DFD002802D0032008B070BDFDF744FCD6
:10FAF000002801D08620F7E700F0EAF90020104C3A
:10FB00000290E61F03900DE0694604A8FDF7BAFCD9
:10FB100000988088801B85B204A8FDF771FC2846F8
:10FB200000F08AF902AA04A92046FDF790FC0028FB
:10FB3000EAD00449012008700020D5E7C9D10100AE
:10FB400007C000006034002010B500F09FF910BD20
:10FB500010B500F0A3F910BD70B505460320800371
:10FB600086B014460E46281880B20F4A6946FDF743
:10FB70006EFC002805D103A96846FDF783FC002828
:10FB800002D0002006B070BDA57003984088208088
:10FB90000498606003988088FDF700FD3080684617
:10FBA000FDF72EFC0120EDE764340020024800211F
:10FBB000416081607047000060340020F0B587B07C
:10FBC0001D46144607460E46FF280CD8084600F08E
:10FBD00019F9002807D003AA3146384600F0FAF890
:10FBE000002809D102E0072007B0F0BD01A903A851
:10FBF000FDF748FC002801D00520F5E7A670019824
:10FC0000002D408820800AD082002868904204D8C5
:10FC100002996068FBF790FA03E00420E4E7029899
:10FC2000606003A8FDF7ECFB0020DDE77FB588B03E
:10FC30001D460C460646FF2834D8A07800F0E2F8AE
:10FC400000282FD060680690208869468883304657
:10FC500000F078F969460880A078032189034018EC
:10FC60006946488006A8019001200881A17803AA6E
:10FC7000304600F0AFF805280A9815D0002802D0C9
:10FC80000AA8FDF767FC694603A8FDF71DFC0028DC
:10FC900017D007281FD008281BD00E2819D0032002
:10FCA0000CB070BD0720FBE7002805D00AAA694602
:10FCB00003A8FDF719FCEAE7694603A8FDF70EFC67
:10FCC000E5E7002D03D0294603A8FDF7D0FB00206F
:10FCD000E6E71120E4E78620E2E7000010B50248DD
:10FCE00000F0AAF810BD0000FFFF000010B5FF28CB
:10FCF00001D9072010BD00F0A7F800F02BF8002074
:10FD000010BD10B500F0F8F810BD70B504460D46F2
:10FD1000807800F077F800280BD021882846FDF77E
:10FD2000FFFB002804D0072805D0092800D00320B5
:10FD300070BD072070BD862070BD01B56846FDF717
:10FD400009FC002800D0032008BD10B59BB200F0CC
:10FD500069F810BDF0B589B000261C4F04963846EE
:10FD6000059603E0204600F083F8204600F08EF868
:10FD70000446B84207D000F0E5F804AA06A9FDF74A
:10FD80006EFB0A28EED0124DA878002819D1BC428B
:10FD900017D00320800301272018AF7080B2FDF731
:10FDA000A1FA08280FD000280BD0AE7009226946AE
:10FDB0000A704C80FF220A71039002966846FFF792
:10FDC00085FE09B0F0BD6F70FBE70000FFFF00008B
:10FDD000603400207CB5054616460C46084600F007
:10FDE00011F8002003210090890301906818611820
:10FDF00080B289B26B463246FDF722FB002800D064
:10FE000005207CBD07280BD0012809D0082807D081
:10FE1000052805D0062803D0042801D0002070470B
:10FE20000120704710B5502463439BB28170DB1CE6
:10FE300099084260018010BD10B50249FCF7A6FF89
:10FE400010BD0000F03D002010B504460648844275
:10FE500007D006492046FCF799FFA04201D10120B6
:10FE600010BD002010BD0000FFFF0000103E00206C
:10FE700010B50446044900F02BFE0349204620310A
:10FE800000F026FE10BD0000F03D002010B5024934
:10FE9000FEF7D8FF10BD0000103E002070B50A49E3
:10FEA000FEF7D0FF0446094D08E000F031F80028C5
:10FEB00007D005492046FEF7C5FF0446AC42F4D101
:10FEC00070BD204670BD0000F03D0020FFFF000027
:10FED00010B508484021FBF756F9FF2401342146AC
:10FEE000044800F0E5F903482146203000F0E0F92D
:10FEF00010BD0000F03D002010B5FF2804D80146D9
:10FF0000024800F005FA10BD002010BDF03D0020B1
:10FF100010B5FF2804D80146024800F0F9F910BDD9
:10FF2000002010BD103E002010B50C46FDF7F8FE75
:10FF3000FF2803D00C21484301490C5210BD00009A
:10FF4000503A002003218903401880B27047000016
:10FF50001CB5044600F06AF9002801D0FBF78CFCC0
:10FF6000002C05D000F0B8FA002801D0FBF784FC83
:10FF700000200090019068460078012210438D21F6
:10FF8000084030304106490E684601700721417033
:10FF900010218170C378022113430B43C37003798E
:10FFA00013430B43037100F0CDFA002801D0FBF797
:10FFB00063FC074800F0AEFA002801D0FBF75CFCB8
:10FFC0000448FDF79BFA002801D0FBF755FC1CBD47
:10FFD00009010200C5D10100044908182021415639
:10FFE000042901DB0120704700207047903E00206B
:10FFF0000449081820214156042901D201207047E4
:020000040002F8
:1000000000207047903E0020F8B50F46060028D02B
:100010003068002825D07068002822D0FF240025F1
:100020001CE02946706800F04BF9002808D0FF2C2E
:1000300000D12C46281B401CB8420DD12046F8BDEB
:10004000FF2C06D108E02146304600F044F8641C3D
:10005000E4B2AC42F7D3FF246D1CEDB2B068A84205
:10006000DFD8FF20F8BDF8B50400069E089D07986C
:1000700018D0002916D0002B14D007466F439742A2
:1000800010D8C21DD208B2420CD800280AD0002DC8
:1000900008D0E560A0600AC481B2184600F008F9F3
:1000A0000020F8BD0720F8BD70B504000D4610D043
:1000B000206800280DD0606800280AD0FF2D08D0E5
:1000C00000F026F9002804D0E06821686843081889
:1000D00070BD002070BD70B504000D460FD02068C3
:1000E00000280CD06068002809D0FF2D07D000F050
:1000F0000FF9002803D02946606800F015F970BD9B
:1001000010B501F063F910BD08B501780B00FBF7DD
:100110001DFA0F0F0F0F0F0910230F210F231B23A1
:100120000F1E0F000021009140886946FFF7E8FF8D
:1001300008BDFDF7FDF80E28FAD00828F8D00028F1
:10014000F6D0FBF799FB08BDFBF758FB08BD00F0A4
:10015000A5F808BD0069F2E78068F0E770B586B0E1
:10016000044614216846FBF70EF8608869468880CB
:10017000FEF758F8694648802678002008220721B3
:1001800005253300FBF7E2F90A06060B0D0F1416DE
:10019000281A1D256B46197058721A7219E00D2025
:1001A00009E00E2007E06A4611705072157210E0E7
:1001B0000F2000E01020694608700AE068460570CC
:1001C00007E0062168460170A0680290A188684691
:1001D00041806846FCF7CEFF06B070BD10B50446FE
:1001E000007886B000281AD0012816D10E49608800
:1001F00001224979FCF7F6F814216846FAF7C3FFA3
:100200006088694648806088FEF7D8F8694688802B
:10021000002008706846FCF7ADFF06B010BDE0880E
:1002200000F04EF9F9E700007434002070B5FFF7D4
:1002300053FC00282ED1FFF71BFA00282AD101F029
:10024000D3F8002826D101F0D9F9002822D1FDF7F2
:1002500015FD00281ED1FDF7A5FD00281AD1FDF7D8
:10026000F7FF002816D10C4C401EE0800025182016
:10027000A56020716071FCF77FF82071182809D003
:10028000FCF77AF86071182804D06570012020709E
:10029000002070BD032070BD7434002010B50348E9
:1002A0000078002801D0FDF70DFD10BD743400204A
:1002B00010B5002803D0C91DC908FAF764FF10BDA6
:1002C00010B5002809D04B075B0F01229A40C908DE
:1002D000D2B208181146FEF759FC10BDF8B50D460C
:1002E000060013D0002401270EE06107490F3846AD
:1002F0008840C1B2E0088019FEF748FC002801D010
:100300002046F8BD641CA4B2AC42EED32846F8BD2A
:10031000002807D0CA08805C4A07520F012191408B
:10032000084000D001207047F8B504464805050E86
:100330004907490F01208840C6B2002C0ED0605DED
:1003400030420BD0002168460170FBF749FB605D2D
:10035000B043605568460078FBF760FBF8BD0000CD
:1003600010B5044606480078002808D02046FDF75E
:1003700005FF204601F020F82046FDF7BDFB10BD2B
:1003800074340020F0B58BB0044614216846FAF7A7
:10039000FAFE608869468880FDF744FF6946488018
:1003A00027780120082207210026434D3B00FBF758
:1003B000CDF80A060E20353B435F80787A806A4686
:1003C0001170217911725672039690726EE06A462E
:1003D0001170217911725672A16803919072A86808
:1003E000002863D0A168814260D1AE609088E88027
:1003F00012E068460270217901724672A06803908B
:10040000E0680490A868002850D0A16881424DD1CE
:10041000AE60E868401EE860039647E06A461170E7
:10042000217911725072F7E769460A7022790A72CF
:100430004872A068049039E0092069460870A878DD
:10044000002833D01D4C2046FFF73CF9A0422DD1A7
:100450002046FFF733F9A04228D1AE70142105A839
:10046000FAF791FE0B21684601750483C48214E0FB
:100470000A2069460870A0680290A878002815D064
:10048000AE70142105A8FAF77EFE0C2069460875A7
:100490000A480883C882A068079005A8FCF76AFE8E
:1004A00004E0052000E00620694608706846FCF775
:1004B00061FE0BB0F0BD000074340020FFFF0000AF
:1004C00010B504490978002902D0FDF761FF10BD7D
:1004D000082010BD7434002070B50C480178002944
:1004E00004D001210A4D8170284608E0082070BD23
:1004F000FFF7E6FF002801D0032070BD2046FFF77C
:10050000E1F80446A842F3D1002070BD7434002005
:10051000FFFF000010B5094A1178002904D0D178F6
:10052000032903D3042010BD082010BD8B00044C08
:10053000491CE050D170002010BD00007434002030
:10054000303E002010B504490978002902D000F09F
:100550008DFF10BD082010BD74340020F0B585B0AB
:100560000446012614216846FAF70DFE60886946A4
:1005700048804B4F2078002539797A790300FAF7C3
:10058000E5FF0D828D081C30424C5159646A6C7E27
:10059000820001206A4610702079002801D00122D3
:1005A00000E00022012806D000256088FBF71AFF32
:1005B00060882A4611E00125F7E702206A4610709C
:1005C0002079002801D0012000E00220107260880C
:1005D0000122FBF707FF227960887979FBF702FF98
:1005E00052E003206946087060881146FBF7E8FE78
:1005F000002801D0012100E0022168460172A179A2
:100600000173A18839E06088FBF7DAFE002845D144
:100610000220694608700D7236E0032168460170B9
:100620000572ECE7072069460870A2888A80087284
:100630004D7230E0082168460170A1888180072151
:1006400001724572A068049025E006206946087092
:100650006068029018E0052012E0032069460870E7
:1006600060881146FBF7ACFE002801D0012100E0B4
:100670000221684601720B490573418104E00420A0
:100680006946087000E000266088FDF797FE69461D
:100690008880002E02D06846FCF76CFD05B0F0BDE6
:1006A000743400200111000070B50D00044602D121
:1006B0000020FBF7E1F8002C02D10020FBF7DCF86A
:1006C0002878207069886170090AA170A988E17092
:1006D000090A2171E8886071000AA07170BD0000EC
:1006E0000848416E491E416604D10749FD230A7836
:1006F0001A400A70016E491C0166042901D10021CB
:1007000001667047104000202C35002070B50C4960
:100710000446486E042810D00A6E1218042A00D32A
:10072000121F401C486618204243551801462846AF
:10073000FAF729FD0120256070BD002070BD000082
:1007400010400020F0B52B4C1C22216F85B0514386
:100750000D192978284E00270B00FAF7F7FE071924
:100760000509090D0D1119002946FDF779FE09E06B
:10077000294601F073FC05E02946FCF709FC01E07D
:10078000FDF7D0F800282FD0B04202D1019710E039
:100790000F2001902878022801D0032809D115489C
:1007A000AA7D7830016C89180164AA7D416C891A90
:1007B000416469462846FCF769FC6846FCF79CFCE6
:1007C000206F1C2148430019FAF7DDFC606F0028F8
:1007D0000CD0216F491C8907890F2167401E606773
:1007E00004D00020FFF7AEFF05B0F0BD0420FCF7F9
:1007F000E7FEF9E7203F00201D1D000010B5184856
:100800001822016E51430C18406E00281FD0207A28
:10081000012802D0022816D10FE0A18AE08A091A25
:10082000FF2901DC8AB201E0FF220132E168800089
:1008300023690918181829DF01E0A08928DF112889
:1008400006D0002803D00921204600F05BFB10BD34
:100850000449FD220878104004221043087010BD9E
:10086000104000202C35002010B5054800784007C6
:1008700005D40420FCF7BEFE0020FFF763FF10BD87
:100880001435002010B5054801784A07920F04D1AD
:10089000022211430170FFF7B1FF10BD2C3500207B
:1008A000F8B507461D481C46007815460E468007D9
:1008B00001D40220F8BD002D01D0002C28D1052044
:1008C000F8BD01011648405C00281ED116E02068E2
:1008D000002F03D081883A8891420FD1002E03D097
:1008E00001883288914209D1806828602068686058
:1008F0000B482030008928810020F8BDA0882146BF
:1009000000F060F80028E2D12060A088401CA080A0
:10091000A0880228D5D30A20F8BD00001435002095
:10092000E03F0020F8B505464068244F00260C46FD
:10093000002828D022490A68824224D84968814286
:1009400021D3FDF76AFE00281DD028893989884205
:1009500019D103CD083D8A68904214D13A4600204F
:10096000203A0125AD0203019B185B688B4204D23B
:100970005B198B4201D9208011E0401C80B2022813
:10098000F1D30020F8BD268000960AE0009829687F
:100990008068884205D100986860388928810120E4
:1009A000F8BD2088694600F00DF80028EED12088B7
:1009B000401C80B220800228E6D3E2E700400020FD
:1009C00048350020F8B50E460A681249000145185E
:1009D000002A04D05088800084180C3401E06C6830
:1009E00008340127BF026868C019A0420FD92068E7
:1009F000401C0CD02046FDF7B1FA002802D001209F
:100A00003460F8BD6088800004190C34EBE70020E6
:100A1000F8BD0000E03F002038B50C4600210091F1
:100A200001460123074A0848FCF7C0FE002801D010
:100A30000E2038BD054A2101012089188873002045
:100A400038BD00008422020048350020E03F00202D
:100A500003218903401AC0B27047000003218903B3
:100A6000401A0349884201D801207047002070478E
:100A7000FE3F000038B5044613480025436C002BA8
:100A800008D0026CD500521C52072D18520F5B1E65
:100A90004364026400200090A08AAB888000411863
:100AA0000A482A68FCF782FEA18AAA888918A182CE
:100AB000A17D491E0906090EA17501D101212174EC
:100AC000002800D00E2038BD983F00204835002077
