:020000040000FA
:10000000C80A2000650100007F0100008101000096
:1000100000000000000000000000000000000000E0
:10002000000000000000000000000000830100004C
:1000300000000000000000008501000087010000B2
:10004000150500008901000031060000890100004B
:100050008901000000000000610200008901000029
:100060008901000089010000890100008901000068
:100070008901000089010000890100008901000058
:100080008901000069050000890100008901000064
:100090009105000089010000990500008901000018
:1000A000890100008901000000000000000000003C
:1000B0000000000000000000000000000000000040
:1000C00000F002F800F03EF80CA030C80838241800
:1000D0002D18A246671EAB4654465D46AC4201D180
:1000E00000F030F87E460F3E0FCCB6460126334274
:1000F00000D0FB1AA246AB463343184788200000C5
:10010000A8200000103A02D378C878C1FAD8520764
:1001100001D330C830C101D504680C6070470000BD
:100120000023002400250026103A01D378C1FBD813
:10013000520700D330C100D50B6070471FB51FBDFB
:1001400010B510BD00F059F81146FFF7F7FF01F0A8
:10015000E1F800F071F803B4FFF7F2FF03BC00F020
:1001600077F8000003210C4802680A4302600B483C
:1001700002680A4302600A4880470A480047FEE7CF
:10018000FEE7FEE7FEE7FEE7FEE700000648074958
:10019000054A074B70470000240500405405004005
:1001A000CD050000C1000000C8022000C80A2000E0
:1001B000C802200001E004C0091F0429FBD28B07FC
:1001C00001D50280801CC90700D002707047002949
:1001D0000BD0C30702D00270401C491E022904D371
:1001E000830702D50280801C891EE3E70022EEE728
:1001F0000022DFE7704770477047754600F024F82B
:10020000AE46050069465346C008C000854618B092
:1002100020B5FFF7BBFF60BC00274908B6460026A3
:10022000C0C5C0C5C0C5C0C5C0C5C0C5C0C5C0C5A6
:10023000403D49008D46704710B50446C046C04653
:100240002046FFF788FF10BD004870476802200075
:1002500001491820ABBEFEE72600020070470000EF
:10026000F0B58FB000200E900D90FF2001300C9063
:100270000126002416E00C9801F056F900280BD056
:1002800000BF924840683040002805D00C9801F02B
:1002900043F90E9830430E9076000C98001D80B202
:1002A0000C90641C042CE6D3FF207D3001F03CF957
:1002B00000280DD0FF207D3001F02EF90121C90763
:1002C0000E9808430E900DAA0121002001F006F9B6
:1002D0000E980007000F00282CD00126002427E0EC
:1002E0000E983040002821D000BF794851210901E3
:1002F0004018A10040581F2109020840000A074683
:1003000000BF7348512109014018A1004058032142
:1003100009040840000C0B90204600F0E5F9054662
:10032000002D02D038460B99A84700BF7600641C08
:10033000042CD5D30E98C00FC007002876D000201B
:100340000B900A90002505E00020C043A90009AAEF
:1003500050506D1C002DF7D000BF00200B900024E2
:100360007AE05C48005D0890C02108988843074601
:1003700058480057401C00286DD009A9384600F0A5
:10038000EBFF002867D0C021089808408011079033
:10039000384600F0B1F9059000F0A6F906900698ED
:1003A000002802D10798032854D10798032815D1B3
:1003B0000AA803970290039FF9080191039F790708
:1003C000490F039101990298415C0123039A9340DC
:1003D0001943CAB20199425400BF00BF00BF00BF19
:1003E000052109070846B900072212028218515850
:1003F000032212041140090C05910DA9384600F0A2
:10040000ABFF04900498002802D00598022805D07C
:10041000049800281DD1059803281AD107980328AD
:1004200010D10598022802D1032001E04BE0022000
:1004300003903846039901F018F80B98401CC0B29D
:100440000B9000BF0698002803D03846069A0799FB
:10045000904700BF00BF641C042C82D30B98002877
:100460002CD0012708AA0121002001F037F800252F
:100470000AE0A80008A90858A9000DAA5158884206
:1004800001D0002702E06D1C002DF2D000BF002F2C
:1004900002D000200B9010E000250CE0A80008A975
:1004A0000858A9000DAA5050A8000AA90858A90088
:1004B00009AA50506D1C002DF0D000BF0B980028E9
:1004C00000D04AE700BF0FB0F0BD0000006300405D
:1004D00000600040C0002000C206D20E0121914001
:1004E000014A11607047000080E200E0C206D20EAF
:1004F00001219140014A11607047000000E100E0D5
:10050000C206D20E01219140014A116070470000DD
:1005100000E200E010B5FF20013000F028FF0028C5
:100520000CD0FF20013000F02DFF012000F030FF43
:1005300001200C494870002000F024F9FF2005300C
:1005400000F015FF00280BD0FF20053000F01AFF47
:10055000022000F01DFF01200249887000F012F90E
:1005600010BD00006C00200010B500200749086095
:100570000021064841608160C16000200349403984
:100580000860486001F04CFC10BD000040110140C3
:1005900010B501F0A5FB10BD70B50B480068002830
:1005A0000ED0094800688047044600BF2546002D4C
:1005B00004D000BF284600F087F800BF00BF01E06C
:1005C00000F0FCFC70BD00004000200010B500F001
:1005D00077FD002805D0104810494860C81310491D
:1005E000886100F051FD002802D001200D4988608B
:1005F00000F09CFD00280ED00B480068012807D0B1
:100600000A480949086000BF074800680128FBD173
:10061000C0200549486110BDDFFF07C0000500404C
:10062000006C00400006004000EC0640759300009E
:1006300010B50249024801F068FC10BDC800200056
:100640000020004030B47446641E2578641CAB4220
:1006500004D3635D5B00E31830BC18471D46F8E720
:1006600010B50446002C0ED008480068A0420AD8F5
:1006700006484068A04206D3204600F081FD0028CD
:1006800001D0012010BD0020FCE700005C0020002C
:1006900000BF00BF00BF00BF00BFBFF34F8F00BF50
:1006A00000BF00BF06480749C86000BF00BF00BFC9
:1006B000BFF34F8F00BF00BF00BF00BF00BFFDE70B
:1006C0000400FA0500ED00E03EB50446002000906D
:1006D0000190029002946A4600210248FFF7D8FF79
:1006E0003EBD00000140000001468800014A10584C
:1006F00070470000800020000146014840567047C6
:10070000A00020000146002907D00548884204D8EF
:100710000448884201D9012070470020FCE700000E
:100720005C0020006C0020000A49496C00290FD0B1
:100730000849096CC900074A891801601146096C0B
:10074000491C4907490F11641146496C491E5164FF
:10075000704700007C0120000178022902D0017856
:1007600003290BD106490A6C817D5118044A116492
:1007700011464A6C817D511A014A5164704700004C
:100780007C01200070B50546002D01D1094C01E027
:10079000084C08340AE0204600F0FBFC0646002E18
:1007A00000D104E028467168884700BFF3E700BF26
:1007B00070BD000074002000FEB51F4800680028CE
:1007C00036D01D480068056801F09EF901901B486D
:1007D00004682146019801F05FFAC61C18480078A9
:1007E000002801D101F096F9AE4201D2284600E07E
:1007F000304604192402240A204601F07FF901F052
:1008000083F900900199009801F046FAC71C204630
:10081000019901F041FA874209D901F075F90746BB
:1008200001F06CF92F2000F0DDFD01F043FB01E049
:1008300001F08EF9FEBD0000080020000C00200031
:100840002000200070B506460D46002E01D0012084
:1008500070BD2879002804D0012809D0022811D1C0
:100860000EE0284601F022F80446022028710BE031
:10087000284600F0C5F804460A2C00D1044C03E0D9
:10088000034C01E00F2400BF00BF2046E0E700005A
:100890001D1D0000014614480078144A1278904249
:1008A0001DD011480078401C0F4A10701046007887
:1008B000022801D1002010700B48007880000C4AFB
:1008C000105808600B4A086812688018094A1060BE
:1008D000104600680002000A1060012070470020E6
:1008E000086000BFFAE7000018002000190020008F
:1008F000100020000C00200010B50446A08928DF5D
:1009000010BD00B502781300FFF79CFE0734050800
:1009100011212A31340000220A702CE001220A70D1
:1009200003898B818388CB81C2688A6023E002229D
:100930000A7003898B818388CB81C2688A60027CBC
:10094000062A01D1012300E000230B7413E00322E7
:100950000A70C3888B810389CB81C2688A600AE0F0
:1009600004220A70C3888B810023CB8103E0052217
:100970000A7000E000BF00BF00BD000070B5054672
:1009800000240AE0A00006490858002804D0A0006E
:100990000A46115828468847641C082CF2D370BDBB
:1009A000E4002000F0B50346002420E0134E306838
:1009B00006689E4203D90668F61A06601BE00668C0
:1009C0009B1B06683419002606600C4E35680B4FD9
:1009D000C6693E60C668002E08D00E193602360A77
:1009E0004660C66886601668C661156000BF034829
:1009F00000680028DAD100BFF0BD00000800200028
:100A00003EB504460A4B6A460021A01D00F006FFD1
:100A10000546002D06D1064A9188019800F0D6FFC0
:100A2000054603E0024800210160416028463EBDC2
:100A300034002000024909788143014A117070474F
:100A4000240020000146044800780840002801D016
:100A5000012070470020FCE72400200002490978AB
:100A60000143014A1170704724002000F8B5054683
:100A70000C4616461F461F480078C007C00F0028C6
:100A800001D10120F8BD2846FFF73CFE002801D126
:100A90000220F7E7002C01D10320F3E7A005800D29
:100AA000002801D00620EDE72868A04204D8B00253
:100AB00000196968884201D90520E3E7002E01D1B9
:100AC0000420DFE7684600F0D3FD002801D10720AD
:100AD000D8E70098476000980560022000990872E6
:100AE000A001000C009988810098068200F07EFE2B
:100AF0000020C7E73E00200070B505460C462046A2
:100B000000F0E8FD70BD0000F8B505460C4616463D
:100B10001F4623480078C007C00F002801D10120DC
:100B2000F8BD2846FFF7EEFD002801D10220F7E7C7
:100B3000002E01D0002C01D10320F1E7B007800F77
:100B4000002803D1A007800F002801D00620E7E786
:100B50002868A04204D8B90009196868884201D2FF
:100B60000520DDE7002F01D10420D9E7684600F019
:100B70007FFD002801D10720D2E700990698486040
:100B8000009805600120009908720098C6600098DE
:100B900004610098878200F029FE0020C0E7000071
:100BA0003E00200070B50546002D01D0012070BD2B
:100BB0001848007B002803D000201649087301E084
:100BC00000F0D8F8134800780300FFF73BFD081D3C
:100BD00005090D111D15191D00F03CF8044615E01E
:100BE00000F0B4F8044611E000F090F804460DE07F
:100BF00000F044F8044609E000F020F9044605E05E
:100C000000F02CF9044601E00F2400BF00BF20468D
:100C1000CDE70000E40120000C480089401C0B498E
:100C2000088100204880087300BF0CE00101084AD9
:100C3000515C002901D1012200E0002203490A3160
:100C40000A54411C88B20228F0DB7047E4012000FE
:100C5000C401200010B5074800F032F8002806D182
:100C60000449891E087048804860034810BD00F0A0
:100C70006DF8FBE7E60120001D1D000070B50D4872
:100C8000458828010C494018808900280DD1280189
:100C90000A4680180023012241680848FFF7E6FE53
:100CA000044604200349087002E000F08FF804466F
:100CB000204670BDE4012000C40120005C0020003B
:100CC00010B501460022002016E00E4B1B5C002BE5
:100CD00010D000240B4B1C5403010B4C1B199B8997
:100CE000002B07D103011B199B7B012B02D108802C
:100CF000012203E0431C98B20228E6DB00BF104645
:100D000010BD0000EE012000C4012000F8B50C4821
:100D100044680C4800680B49898889004518608838
:100D2000C01C86B2032006490870002000900846C7
:100D30003346294642680448FFF7E6FEF8BD000046
:100D4000E40120002C0020005C00200010B50849C0
:100D50004888091D00F008FE002803D0FFF7D6FFE1
:100D6000044602E0FFF78AFF0446204610BD00005B
:100D7000E401200010B5144800780300FFF762FC7E
:100D8000080520200B1117181C20FFF745FF012034
:100D90000D49087015E000F06DF802200A4908704E
:100DA0000FE000F029F806200749087009E000BFAD
:100DB00007200549087004E001200349087000E09D
:100DC00000BF00BF10BD0000E401200010B50520E9
:100DD000064908700220064988800846002301223F
:100DE00001680448FFF742FE10BD0000E401200046
:100DF0002C0020005C0020000D4908680D4949883E
:100E000009010D4A89184968094A11600949498848
:100E10000901094A8918486005498988054A5288A4
:100E20001201054BD21811810221014A91807047AD
:100E30002C002000E4012000C401200010B5062091
:100E40000449087049880901034A8918486800F074
:100E5000C9FB10BDE4012000C401200010B507202B
:100E6000034908700020486000F0CCFB10BD000072
:100E7000E4012000054A50684288D21C91B2044A1D
:100E800092885218024B9A8070470000E4012000BB
:100E90002C00200001468888044A904204D008882B
:100EA000002801D0012070470020FCE7FFFF000070
:100EB000F8B506460C460F200090002E04D0012005
:100EC000FFF7B8FD0120F8BD2079002806D00128E1
:100ED0000AD002282DD003285AD138E000F092FB26
:100EE00000900120207154E00027002513E0280124
:100EF0002D49085C02280CD129012B4A8918486821
:100F000000F070FB009000202901274A505401276F
:100F100003E0681C85B2022DE9DB00BF002F07D17A
:100F20000220FFF79BFD0120FFF784FD1F48CAE761
:100F30002FE01F480023012201681E48FFF796FD9D
:100F4000009002201A4988800020207121E0184971
:100F5000086800F047FB0090174845881448076868
:100F600028011149401840681149086028010E49BC
:100F7000401847600E48808829010B4A891808816B
:100F800002200B498880002029015054207100E084
:100F900000BF00BF0098002804D00120FFF74AFDE1
:100FA0000E2090E700208EE7C40120001D1D0000E8
:100FB0002C0020005C002000E4012000F8B52C4843
:100FC0000078002800D1F8BD00252A4800680028D4
:100FD00001D1012000E00020064600BF002D1ED1F7
:100FE00025480078002800D0EDE7684652DF044627
:100FF000052C01D1012511E0002C04D000BF2046B2
:10100000FFF762FB0AE0009800F00CFA1B4800684A
:10101000002803D0194900980968884700BF002EAE
:101020001DD115480078002800D0CCE7144800886E
:10103000009069461348006861DF0446052C01D121
:1010400001260BE0002C04D000BF2046FFF73CFB3C
:1010500004E00C48006807490968884700BF002D74
:1010600002D0002E00D000E0B8E700BF00BFAAE722
:1010700044002000500020004500200054002000C3
:101080004C002000480020000C48008CC0B2012811
:1010900012D10A48808C0007000F00280CD10748A5
:1010A000806AF0210840402806D10448C06A084000
:1010B000002801D1012070470020FCE7C00F00F09C
:1010C0001948008CC0B201282CD11748808C000729
:1010D000000F002826D11448806AF021084000281B
:1010E00006D11148C06A0840002801D1012070478C
:1010F0000D48806AF0210840102806D10A48C06ACD
:101100000840002801D10120F1E70748806AF0215A
:101110000840302806D10448C06A0840002801D1A0
:101120000120E4E70020E2E7C00F00F01348008C44
:10113000C0B201281FD11148808C0007000F002881
:1011400019D10E48806AF0210840A02806D10B482A
:10115000C06A0840002801D1012070470748806A12
:10116000F0210840D02806D10448C06A0840002871
:1011700001D10120F1E70020EFE70000C00F00F0EF
:1011800001468807800F002801D101207047002008
:10119000FCE701460868002801D002680A60704731
:1011A00070B51C4804781C48066826E01948416858
:1011B000182060430D18601CC4B216488078A04205
:1011C00000D100242878022802D0032812D103E09D
:1011D000686800F0EDFD0EE007E00F4908680021A7
:1011E00001740D4AC169116000BF0B4800680028F6
:1011F000F3D100E000BF00BF00BF06484078A04226
:10120000D4D105480068B04201D0012070BD002053
:10121000FCE700000000200008002000F8B50546AB
:10122000374806685BE0002D02D02C46E56929E0CE
:1012300034494A68097818235943501831490978C4
:10124000491C304A1170114609789278914202D1B6
:1012500000212C4A117044680178012902D1217CB7
:10126000002900D03BE081686160C168A16001692C
:10127000E1604169A16124490978002901D0002178
:10128000616000BF214960680968401A0002000AD5
:101290001F49884208D21D496068096800F0FCFCBB
:1012A000A168401820600FE018486168006800F0ED
:1012B000F3FC0746A068B84203D9A068C01B2060B1
:1012C00001E00020206000BF00206060A0600120DD
:1012D00020740020E061204600F034FD00BF002DA6
:1012E000A1D1084800780749497888429BD1044831
:1012F0000068B04201D00120F8BD0020FCE70000EA
:101300000800200000002000210020000C00200028
:10131000FFFF7F001C2000F08CF81E2000F089F8F1
:101320001E2000F0C2F81C2000F0BFF800BF1E20F5
:1013300000F0BBF81C2000F0B8F8FF20F53000F0FA
:101340002DF81E2000F0BDF81C2000F0BAF8FF2098
:10135000F53000F023F8EAE730B502460B46D40832
:101360005207520F012090401D5D284030BD0146BC
:101370000120800708180068002801D0012070476C
:101380000020FCE7002101229207821811607047BB
:101390000149886070470000000300407D22D200B0
:1013A00001465143002900D116E000BF00BF00BF35
:1013B00000BF00BF00BF00BF00BF00BF074A1268E8
:1013C000074B9A4200D101E000BF00BF0A46013A34
:1013D000114600D0EAE700BF704700005800200027
:1013E0000024F400002800D1704700BF00BF00BFF8
:1013F00000BF00BF00BF00BF00BF00BF07490968B2
:10140000074A914200D101E000BF00BF0146013907
:10141000084600D0EAE700BFE6E7000058002000D9
:101420000024F40010B50446002C01D1FFF7AAF9FE
:1014300010BDFEB501210A4600230193029300BFAF
:1014400005242407009454000C439D002C43019D67
:101450002D022C43029D2D042C43860007273F02BA
:10146000009DED19AC5100BFFEBD30B50A4600BF6E
:1014700005231B0719468300072424020C19E3588F
:1014800003242404A343840007252D024D192B5166
:101490008300072424020C19E35814042343840016
:1014A00007252D024D192B5130BD00BF052109071D
:1014B0000A460121814005231B02D318D96000BFD1
:1014C000704700BF052109070A4601218140052315
:1014D0001B02D318996000BF7047000078B50B4617
:1014E000094C24680094014609E08D006E46745949
:1014F00005252D0265192D691560121D491CC4189A
:101500008C42F2D878BD0000282100000146014835
:10151000081870470060004010B504462046FFF7E9
:10152000F5FF0021016010BD10B504462046FFF70D
:10153000EDFF0068012800D110BD0020FCE7014646
:101540000922D2018A1810680922D2018A18106073
:10155000704702465058002801D0012070470020F3
:10156000FCE7002242507047032212028218916069
:101570007047024603200002101840680840002807
:1015800001D0012070470020FCE701224250704743
:1015900030B502460A23002012E004010B4D641905
:1015A00064688C420AD20401641964680125AD02A2
:1015B00064198C4202D90023108003E0441CA0B2BD
:1015C0000228EADB00BF184630BD0000C40120003D
:1015D0000389CA1C9A1802814389CA1C9A1A42813B
:1015E0007047000038B5044600200223034A214614
:1015F00000900348FFF788FA38BD00007C21000006
:101600005C00200008B50020009004480223044A32
:1016100001680448FFF778FA08BD00002C0020009C
:10162000742100005C00200010B51049096F1C22D5
:1016300051430E4A88181C21FEF7DAFD0B48406F13
:1016400000280AD00948006F401C8007800F074916
:1016500008670846406F401E48670448406F0028EE
:1016600001D0012010BD0020FCE700000401200093
:1016700070B504461648406E042801D1002070BDA4
:101680001348006E1249496E4018042805D21048CC
:10169000006E0F49496E401805E00D48006E0C4978
:1016A000496E4018001F05460948406E401C084915
:1016B000486618216943064A88181821FEF798FDE4
:1016C000182068430249401820600120D7E7000035
:1016D0000002200070B586B006462648006F1C2127
:1016E00048432449451828780300FEF7ABFF071E3E
:1016F000050B0C1213191E0029463046FFF7D8FBC4
:10170000044614E000BF2946304600F0ABFC044616
:101710000DE000BF29463046FFF794F8044606E086
:101720003046FFF73FFA044601E00F2400BF00BF38
:10173000002C1CD01048844202D10020029003E00B
:1017400002942846FFF708F801A92846FFF7D9F8C0
:1017500001A8FFF713F9FFF767FF002803D0002067
:10176000FFF7B8FF02E00420FFF764F900BF06B0FE
:1017700070BD0000040120001D1D000070B5194857
:10178000006E18214843174945180846406E002846
:1017900027D0287A012802D002280AD104E028465E
:1017A00000F061FA044606E02846FFF7A5F8044673
:1017B00001E0092400BF00BF112C0CD10A480078B9
:1017C000022188430849087008460078042108432C
:1017D0000549087005E0002C03D00921284600F0D7
:1017E00015FA70BD000220003E00200010B50A4826
:1017F00000780221084000280DD107480078042114
:101800000840002807D10448007802210843024913
:101810000870FFF7B3FF10BD3E002000F8B5064684
:101820000F4615461C460220FFF70CF9002801D18F
:101830000220F8BD002D01D0002C01D10520F8E7D1
:101840002AE0A08800011749085C002800D020E0A9
:1018500017E02168002E04D088883288904200D09A
:101860000FE0002F04D008883A88904200D008E0AA
:1018700088682860206868600B48008928810020FB
:10188000D7E7A088214600F06FF80028E1D120605A
:1018900000BFA088401CA080A0880228D1DB0A20BD
:1018A000C7E70000C4012000E40120007FB5044622
:1018B0000020009001900290E068009003A9684623
:1018C00000F012F800280BD0019EB188E180318829
:1018D000218169468989019800F078F8054600E081
:1018E0000A25284604B070BD38B504460D46606828
:1018F000FEF7B6FE002813D020891A4909898842CC
:101900000ED1616820688968884209D128466168DB
:10191000FFF73EFE002801D1012038BD0020FCE782
:101920000020288018E0002000900CE000998868D2
:101930002268904206D1009860600A4800892081A0
:101940000120EAE700BF2888694600F00DF800286A
:10195000ECD12888401C288028880228E3DB00205E
:10196000DBE70000E4012000F8B506460F463C68BE
:10197000002C05D025466888C01C8000041905E0AD
:101980003001114940184068044608340CE02546EF
:101990002846FFF77FFA002802D03C600120F8BDFE
:1019A0006888C01C8000041930010749401840684D
:1019B000012189024018A04203D92068401C002858
:1019C000E5D10020EBE70000C4012000F8B5044693
:1019D0000D4600200123094A214600900848FFF7E0
:1019E00093F80646002E01D00E20F8BD01202901F3
:1019F000044A891888730020F7E70000702100006E
:101A00005C002000C4012000F8B504460D4600200B
:101A10000123221D294600900548FFF775F8064668
:101A200002212174002E00D1F8BD0E20FCE7000039
:101A30005C002000F8B504460D4600200123224634
:101A40000832291D00900848FFF75EF80646207806
:101A5000032801D1052100E006212174002E01D1C7
:101A60000020F8BD0E20FCE75C002000F8B504461D
:101A70000D460020012322460C32294608310090F1
:101A80000848FFF741F80646A07D002801D0032151
:101A900000E001212174002E01D10020F8BD0E20AC
:101AA000FCE700005C0020007CB504460D460020E9
:101AB000019001A8FEF738FE00200090019883886D
:101AC0000268A08A800041190B48FFF71DF80646FE
:101AD000A08A019989884018A082A07D401EA07527
:101AE000A07D002801D101212174002E01D1002008
:101AF0007CBD0E20FCE700005C002000014908606E
:101B000070470000401501400148406870470000E0
:101B10000015014010B5012000040A494860094938
:101B2000403948601120FEF7D7FC1120FEF7DEFC9B
:101B30000120054908602F20FFF754FC01200349CC
:101B4000087010BD4013014000100140200020002B
:101B500010B51120012181400E4A116000BF012003
:101B600000040D4988600C494039886001200B4908
:101B700048602F20FFF736FC0120084988600020CC
:101B8000074908602F20FFF72DFC00200549087049
:101B900010BD000080E100E0401301400010014052
:101BA0000C0020002000200070B505460C46E07DAA
:101BB00000280AD1FF2109312846FFF7D2FC00BFD7
:101BC000052000022818806970BDFF2109312846D0
:101BD000FFF7C7FC00BF0520000228188069C0B2CB
:101BE000627EE1688854607E401C607600BFEBE74F
:101BF0007FB504460D4616460120694608706846C2
:101C0000057201966268216890477FBD7FB50446E2
:101C10000D4600200090019002900390207A012848
:101C200002D0022815D108E000206946087020691A
:101C30000290A18A684681810CE00121684601700A
:101C4000A189E089081A81B268460181A189418190
:101C500000E000BF00BF60680190206829468268EC
:101C6000684690477FBD70B50446A18AE08A081A8D
:101C7000FF2804DCA18AE08A081A85B201E0FF256A
:101C80000135E28A9200E3689918E28A920023699A
:101C900098182A4629DF70BD0246501A0002000A31
:101CA0007047000070B504460C480068002810D04A
:101CB0000A4AA169606912689047054600BF2E462E
:101CC000002E04D000BF3046FEF7FEFC00BF00BF70
:101CD00002E06169A069884770BD00001C00200017
:101CE000FEB5002001901148046811480768684655
:101CF000FEF7D0FD0546FFF753FA0646002D05D046
:101D000001AA21460098FEF74DFE01260198FFF733
:101D100085FA002800D00126002E02D03846FEF7B2
:101D20004BFD002003490870FEBD00000C002000A0
:101D3000080020002100200010B51420FEF7E0FB71
:101D400010BD000010B519490968002902D11749D2
:101D500008602AE0154A01681268126891420DD89D
:101D60001249096809680268891A104A12681160E4
:101D70000E490968C1610D49086016E002680B4C04
:101D80002368216803E00C68121B0B46C96900290F
:101D900002D00C689442F6D3002902D00C68A41A31
:101DA0000C600260C161D86100BF10BD0800200056
:101DB00030B50246164C2168084604E0904200D136
:101DC00003E00146C0690028F8D100BF002800D117
:101DD00030BD814211D10E4C2468E4690C4D2C6059
:101DE0002C462468002C08D101240A4DAC60002444
:101DF000094D2C600124094D2C700368C469CC6125
:101E0000C869002802D00468E418046000BFDFE756
:101E100008002000001001400C00200021002000DC
:101E2000F8B51F480068002839D00027FFF76CFE7E
:101E300000901C4801680098FFF72EFF06461848DE
:101E4000056811E02868B04200D90FE02868361A0A
:101E50002868C7192C46ED69207C002804D0002092
:101E600020742046FFF71EFF002DEBD100BF0E4867
:101E700000780E490978884209D10C480078401C46
:101E8000C0B20A490870022801D100200870074832
:101E90000078800006490F50FFF74EFF00BFF8BDE5
:101EA000080020000C00200018002000190020006D
:101EB0001000200010B51120FEF722FB10BD70B5F8
:101EC00005460C46FF211D312846FFF74AFBA18A33
:101ED000A068465CA08A401CA08230460521090209
:101EE0006918C86100BF70BD7FB504460D4600206B
:101EF0006946087068460572A06801900020A075C8
:101F000068466268216890477FBDF0B585B0054698
:101F10000C46012149022846FFF72BFB00282BD055
:101F2000FF2125312846FFF714FB002824D0FF218C
:101F300025312846FFF715FB812189002846FFF748
:101F400013FBA07E002803D104212846FFF71DFBC8
:101F50000220694608702846FFF7F1FA0390E17DF8
:101F600068460172E06801900020E07520766846BE
:101F700062682168904739E004212846FFF7F9FAA2
:101F8000002833D0FF2109312846FFF7E2FA002864
:101F90002CD021462846FFF707FEE07D617E88426F
:101FA00024D1207E00280ED0E668677E207EE07572
:101FB0002069E0600020207660763246394620466F
:101FC000FFF716FE12E0A07E002803D10421284668
:101FD000FFF7DBFA812189002846FFF7C5FA0020C8
:101FE000E075617EE2682046FFF702FEFF211D31A9
:101FF0002846FFF7AEFA002814D0A08AA17D8842B7
:1020000004DA21462846FFF75AFF0BE0FF211D3175
:102010002846FFF7A6FAA07D002803D0A17D204620
:10202000FFF762FFFF2145312846FFF792FA0028AB
:1020300015D0FF2145312846FFF793FAA07E0028EE
:1020400003D000212846FFF7A0FAE07D002806D043
:102050000020E075617EE2682046FFF7C9FD05B00B
:10206000F0BD0000F8B507460D46688A00012A4910
:102070004618002F05D0E9883046FFF7A9FA01205D
:10208000F8BD31898900706840180090287C0300F1
:10209000FEF7D8FA071325191F052B353700002046
:1020A0001E494860A86908601D491C48FFF71CFCD0
:1020B000002801D10A20E3E700BF28460099FFF776
:1020C000A3FC04461FE028460099FFF7CFFC044616
:1020D00019E028460099FFF7E7FC044613E028467C
:1020E0000099FFF7A7FC04460DE00C4948680C492D
:1020F0000988FFF76BFC04460621297403E0094CAC
:1021000001E00F2400BF00BF002C03D0E988304657
:10211000FFF75EFA2046B3E7C4012000F401200077
:102120003C0020001D1D0000000000506E72665F24
:102130006472765F6770696F74655F696E69740059
:102140006E72665F6472765F6770696F74655F6FE9
:1021500075745F696E6974006E72665F6472765F33
:102160006770696F74655F696E5F696E697400009E
:102170000000FFFFDEC0ADDEFF011EF1DEC0ADDE00
:10218000FE011EF1A4210000000020006C000000F0
:1021900004010000102200006C0020005C0A000016
:1021A000200100000000000000000000000000000E
:1021B000000000000000000000000000000000001F
:1021C000000000000000000000000000000000000F
:1021D00000000000000000000000000000000000FF
:1021E00000000000000000000000000000000000EF
:1021F0000000000000000000000000000024F400C7
:102200000000000000000000F90A000003FF0000C9
:04000005000000C136
:00000001FF
