:020000021000EC
:10B0000000400020E54A0200254B0200274B0200C9
:10B010000000000000000000000000000000000030
:10B02000000000000000000000000000294B0200AA
:10B0300000000000000000002B4B02002D4B02001E
:10B04000B1DC01002F4B02005DE001002F4B02003C
:10B050002F4B0200000000003DDE01002F4B0200DC
:10B060002F4B02002F4B02002F4B02002F4B0200F0
:10B070002F4B02002F4B02002F4B02002F4B0200E0
:10B080002F4B0200E5B201002F4B02002F4B0200B4
:10B09000C1B301002F4B0200C15602002F4B02002A
:10B0A0002F4B02002F4B02000000000000000000A8
:10B0B0000000000000000000000000000000000090
:10B0C00010B5064C2378002B07D1054B002B02D07E
:10B0D000044800E000BF0123237010BD942000202D
:10B0E00000000000E05D020008B5084B002B03D013
:10B0F0000748084900E000BF07480368002B00D15B
:10B1000008BD064B002BFBD09847F9E70000000074
:10B11000E05D020098200020802000200000000058
:10B12000164B002B00D1144B9D46402292029A1AD6
:10B13000924600218B460F461348144A121A00F01B
:10B1400067F80F4B002B00D098470E4B002B00D018
:10B1500098470020002104000D000D48002802D06F
:10B160000C4800E000BF00F02DF82000290003F09B
:10B1700031FB00F011F8C04600000800004000203C
:10B18000000000000000000094200020582C002047
:10B190000000000000000000084B10B5041C002B4C
:10B1A00002D0002100E000BF054B1868836A002B25
:10B1B00000D09847201C00F033F8C0460000000083
:10B1C000C45A02000E4B70B500251E1C0D4CE41A2B
:10B1D000A410A54204D0AB00F35898470135F8E716
:10B1E0000AF062FC084B00251E1C084CE41AA4104F
:10B1F000A54204D0AB00F35898470135F8E770BD7D
:10B200007820002078200020782000207C2000205A
:10B21000031C8218934202D019700133FAE7704779
:10B22000FEE7C046002300B585B001AA906000216A
:10B2300003481380536000F005F805B000BDC04618
:10B2400001400000BFF34F8F034A044BDA60BFF3A5
:10B250004F8FC046FDE7C0460400FA0500ED00E050
:10B2600080218023194A890230B5D1508023D22110
:10B270000124174A5B028900535040395350154B43
:10B28000546019682F2314481D1CC046C046C04690
:10B29000C046C046C046C046C046814200D0C046F7
:10B2A000013DF2D1946000220C4C2260C046C046A1
:10B2B000C046C046C046C046C046C046814200D0D7
:10B2C000C046013BF2D1064B1A7030BD00E100E0F0
:10B2D00000100140742000200024F400B020002061
:10B2E000D0200020A021F0B5002347462B4A49007A
:10B2F00080B45350043153500431535004315350EF
:10B300004C39535004315350254B1B68002B35D01A
:10B310002449002652582449244F0C68141B00224B
:10B320002402240A904602E0002D18D02B1C1A6833
:10B33000A24214D8A41AB6181A7CDD69002AF3D0E8
:10B34000424699691A745A693B68002B19D0101C3F
:10B3500098470028E8D0FFF765FF002DE6D1144B91
:10B3600014491A780B789A420ED0134A9B009E50CB
:10B3700080218023114A49035B00D15004BC9046D0
:10B38000F0BD081C9047CFE70132D3B2022B01D0A9
:10B390000B70EAE700230B70E7E7C046001001409E
:10B3A000B420002004050000B0200020B8200020B8
:10B3B000BC200020BD200020C820002000E100E0CB
:10B3C000F0B556465F464D464446F0B4924B934A1C
:10B3D0001B6893499A460978137887B0994200D13F
:10B3E000D2E10133DBB2022B00D1A1E113708D4A0F
:10B3F0009B009F585346FB181B02874A1B0A136089
:10B4000001230293884B00241978884B1B689946C6
:10B41000854BC8465B780193834B5B689C46824BA7
:10B4200065469E787C4BBC461B689B46804B1B78D0
:10B4300000934B46019A91421AD04A0052180131AA
:10B44000C9B2881B471EB841D2004042AA18014029
:10B450001078022800D1A8E00328EBD1002BE9D016
:10B460001C74DB69002BFBD1019A98469142E4D110
:10B4700041466E4A674611605946674A11606946FF
:10B480006B4A09781170029A002A00D059E14A46A5
:10B49000D21A511E8A4100251E1CD2B20592039376
:10B4A0005D4B00271B689846604B1B689B465E4BB4
:10B4B0005B689A465C4B9B7802935B4B1B789C467F
:10B4C0005B4B1B7804935B4B009301239946002D43
:10B4D00027D06968A8682C1CED694346CA1A009BEE
:10B4E0001202120A9A424DD813184A462360676026
:10B4F000A7602274E761002E53D03168301C994256
:10B5000004D37AE0116899427ED2101CC2695B1A9A
:10B51000002AF7D1E261321C2360C461161C002DA1
:10B52000D7D1019B9C4500D186E06246634601323B
:10B53000D2B25B00634494460299DB00521A511E5A
:10B540008A4161465242114053448C4619785C68E6
:10B55000321C0129E2D1217C0029DFD19968616088
:10B56000D868A0601A69E2605B69A361049B002B44
:10B57000B3D043460021CA1A009B12026560120A2A
:10B580009A42B1D94346591A0902090A81422AD27C
:10B590004A46431A23606760A7602274E761002E61
:10B5A000ABD1221CA346161CB9E75768002B00D16B
:10B5B000F1E0181C9F4201D1BCE0101CC269002AB6
:10B5C00000D137E79742F8D13A1E824200D1B1E06C
:10B5D0001768D269C261002A00D12BE71368DB1912
:10B5E0001360434626E74B4627606760A7602374D5
:10B5F000E761002ED5D000233168221CCB1A3360BE
:10B60000A346E661161C8AE7C91A1160E26123604D
:10B61000321CC46182E7C046B0200020BC2000205C
:10B62000BD200020C8200020C0200020B420002021
:10B63000BE200020FEFF7F006246624B1A705A4611
:10B64000614B1A60039BB34200D163E0002E00D12E
:10B650009EE05E4B5E495F4DC8585F4B34681A6888
:10B660002E78831A1B021B0A03339846002E21D121
:10B670008026D1277602BF00CE51403FCE51C02355
:10B680008027564EBF025B00F750376001260E60E0
:10B690005349544B0F682F21C046C046C046C04690
:10B6A000C046C046C046C0469F4200D0C046013991
:10B6B000F2D12E704346A34200D2231CA8249A182C
:10B6C00012024349130AE400404D0B514A591B1A18
:10B6D000121A1202120A1B0203321B0A9A421DD9C5
:10B6E0004B590B513E4B3F491A682F23C046C04669
:10B6F000C046C046C046C046C046C0468A4200D08A
:10B70000C046013BF2D180218023344A89025B008C
:10B71000D15003E0059B002B00D097E70023324A6D
:10B72000137007B03CBC90469946A246AB46F0BDAC
:10B7300000235BE6DF69002F38D0B8463B1C021CB3
:10B7400046E7414600250022002613E01868B8426B
:10B7500023D83F1A1218D8681E60DC69002807D069
:10B760005146DD611D1C51180902090A5960986093
:10B77000231C211C002BE9D1134B196000230393D8
:10B7800001330593039E8BE600230027029339E6DD
:10B79000FFF766FDC2E700234CE6C71B03931F605B
:10B7A0000123094A05931160039E79E60122084BA3
:10B7B00001379A600023009700279846021CBB4679
:10B7C00006E7C046C0200020B42000200405000089
:10B7D00000100140D0200020B020002000E100E057
:10B7E000742000200024F400BE20002010B50B4B74
:10B7F0005B68002B0BD0002A07D0002805D0036817
:10B8000008201C7C002C04D010BD0720FCE7082079
:10B81000FAE759745A610020F6E7C046C0200020BC
:10B82000F0B5474680B42B4C82B06368002B09D03A
:10B83000002807D00723042906D8181C02B004BC2E
:10B840009046F0BD0823F8E74369002BFAD00025A5
:10B85000437CA846012B34D0171C6A460023051CE4
:10B86000D01DD3710E1C00F083F86378A278591CA8
:10B87000C9B2521A501E82415242114022788A4265
:10B8800021D05A00D3186268DB0094466344002B31
:10B8900019D0012210481A70104A5D608258DE608B
:10B8A0009A6042465F611A616B46D879617000F018
:10B8B0007FF8802180230A4A5B004903D15000238E
:10B8C000BBE78846C8E76B46D87900F071F80423D7
:10B8D000B3E7C046C020002000100140040500006E
:10B8E00000E100E030B5204D83B06B68002B33D011
:10B8F000082300282DD04269002A2AD000236A4656
:10B900000374041CD01DD37100F032F86B78AA7850
:10B91000591CC9B2521A501E8241524211402A7813
:10B920008A421BD05A00D3186A68DB0094466344ED
:10B93000002B13D002225C601A706B46D8796970B4
:10B9400000F036F880218023084A5B004903D1507B
:10B950000023181C03B030BD0823FAE76B46D879E2
:10B9600000F026F80423F4E7C020002000E100E006
:10B97000F0B5EFF3108172B60A4B5A68002A0DD168
:10B9800001248025084E5C607459084F3C401C60BF
:10B9900077510270002900D162B6F0BD0123037017
:10B9A000F8E7C046502C002000E100E0FC06FFBC98
:10B9B00010B5084B5A68002A0BD0002809D1EFF3C4
:10B9C000108272B604491C680C605860002A00D1CD
:10B9D00062B610BD502C002000E100E0033083B2BD
:10B9E00030B50920FD2B00D930BD114A1078002850
:10B9F00006D1548910892018181880B2FF280DD953
:10BA0000147C0720002CEFD1558B148B2C191C199A
:10BA1000A4B2FF2CE8D80124063801E0002400205D
:10BA20000C8001015218518900205B185381DBE71B
:10BA30002C210020F0B5474680B443688846002B8F
:10BA400003D0334A11688B4236D20023424613801A
:10BA500001339C462F49304E80234F68DB00FD1890
:10BA600000230CE01A68013211D09A881C88B24277
:10BA700007D0002C05D09A680468A24211D0002B90
:10BA800017D05A88033292009B18AB42EAD3434640
:10BA900062461A8063461031022B36D002239C4640
:10BAA000DAE743601D4B1B890381012004BC9046EB
:10BAB000F0BD3B1C0833E8E752689342C5D89A07AB
:10BAC000C3D1164A018912899142BED10268996890
:10BAD0008A42BAD10F494A68934207D98020C000F0
:10BAE00084466244934201D200230AE04A6900205E
:10BAF0009342DBD98021C9008C4662449342D5D25F
:10BB00000123424601201380D0E70020CEE7C04643
:10BB1000842000202C210020FFFF00004C21002069
:10BB2000F0B55F4656464D464446F0B4CE4C8DB017
:10BB3000256F071CEE00731B9B00E218E35C039269
:10BB4000062B27D8C9499A008A589746002800D062
:10BB5000F1E0C74B9A461B7B002B00D1D7E253463E
:10BB600018731B78072B00D9B6E2C24A9B00D35842
:10BB70009F46002800D0DFE0721B9200A118884683
:10BB80000979012900D109E3002900D1EEE2022957
:10BB900000D137E10F20039A07AF12787860023A9C
:10BBA000012A00D8D1E0062B61D8B34A9B00D358B4
:10BBB0009F46721B9200A218101C083041898C46C7
:10BBC000AE4988466146090141448A46002F00D0AB
:10BBD000CDE00A1C0989526889005718027A062AA2
:10BBE00000D929E3A64992008A589746002800D038
:10BBF000B5E0039B1B799A46012B00D1E5E2002BAF
:10BC000000D1D6E2022B00D104E1032B00D0F0E2F8
:10BC10009C4B0090984619689B4A02239B4801F070
:10BC2000EFFB43461B6841469C46914B934A5B8819
:10BC300091461B019A46524453680B606346536019
:10BC40008B88138102224B468A805246D754039B2D
:10BC50001F71002831D0731B9B00E35C01208C49CD
:10BC60000A7882430A700D3095E705233B70894DB1
:10BC70002E1C20362B68002B01D0381C9847043529
:10BC8000B542F7D1236F0021D800C01A80002018D8
:10BC90001C22FFF7BDFA636F002B09D00321226F2E
:10BCA000013B01320A4022676367002B00D0ADE000
:10BCB0000421774A13788B4313700DB03CBC904637
:10BCC0009946A246AB46F0BD00233B70CFE7042364
:10BCD000751BAD003B706319DB88BB810023FB81C2
:10BCE000C5E70323751BAD003B706319DA88BA8181
:10BCF0001A89FA81DB68BB60B9E70223751BAD00C6
:10BD00003B7063191A89BA819A880833FA815A6894
:10BD1000BA601B7A063B594259413974A7E701239F
:10BD2000751BAD003B7063191A89BA819A88FA8134
:10BD3000DB68BB609BE706230120039A07AF1278FC
:10BD40007860023A012A00D92DE7039A917D524A80
:10BD5000106C08181064506C411A516423E70121DB
:10BD60004B4A012013788B431370012313E7D088CB
:10BD70000989C21C51185246118151465289121A22
:10BD8000033A4A81012006E7534652461B89013394
:10BD90001381002353801373384A11784B424B416F
:10BDA00051468B72127C53425341CB7201230B706C
:10BDB00053469B7A002B0CD00023524693722F4B94
:10BDC00098469B89002B04D143469B7B002B00D0D7
:10BDD0001AE35346DB7A002B0CD000235246D37271
:10BDE000264B98469B8B002B04D143469B7F002B10
:10BDF00000D0D6E200235246137053805360731B69
:10BE00009B00E35C002207AF7A60CCE60020FFF7DE
:10BE100087FE52E71B4B0122984619681B480023F6
:10BE200001F038FB434652469A80039B1F7110E78E
:10BE300053465B88114A1B01D3189A89002A00D106
:10BE400064E205235246137002220E4B0F489A807B
:10BE50001968013A002301F01DFB002800D12CE7EE
:10BE60001C236B43E35C96E65C210020C85A020069
:10BE70004C210020E45A0200045B02002C21002027
:10BE8000205B0200D4210020B85B02008420002047
:10BE9000DC210020E0210020D420002053465A68F5
:10BEA000D54881888B00016803205746C9185388FC
:10BEB00038700020033300909BB2D04801F0A0FA04
:10BEC000CBE7731B9B009846A346C3445B461A1DF1
:10BED0000023CA480093391C013301F091FA022370
:10BEE0005A461374002800D1E7E643460E201B5D36
:10BEF0005146721B9200A218D7880989FA1C511862
:10BF00005246118151465289D21B033A4A81BC4A9A
:10BF1000904200D176E73EE6B948E9E7082291462B
:10BF2000731B391D9F00E319994400234A4600936F
:10BF3000B248013301F064FAE35D033B59425941D1
:10BF40000622531A4A461372002800D1B5E63B5D1B
:10BF50000E20CDE7AB4BA9481F88AB4BAB4A5968C5
:10BF600000230093013301F04BFA002800D1D1E106
:10BF70000621731B9B00E2181174E35C0E20B7E7E7
:10BF80000023A1489F494360731B9B009846E31818
:10BF90009B690360FFF74EFD002892D143460A20BB
:10BFA0001B5DF8E59A48436C002B00D142E1013B50
:10BFB0004364731B9B00026C072198461023914633
:10BFC00001320A40A0440264434499889B464B4690
:10BFD0008900DB001A587918C7180020BB88009028
:10BFE000864801F00DFA5B46BA889B88D3185A46FA
:10BFF00093809379013BDBB29371002B02D14246CF
:10C0000001331374002800D157E6731B9B00E35CD7
:10C010000E206DE7731B391C9F000023E2190C32C0
:10C02000009308310133754801F0EAF9E3199B7D6B
:10C030000322002B00D1023A731B9B00E1180A7403
:10C040000028E4D139E65346724A5B8890461B01CA
:10C050005146062243440A70596800236E4A0093F1
:10C060006648023301F0CCF9F7E6534652465B6866
:10C070005188002B00D176E15A88033292009A1839
:10C08000644B98460B01994643464B445B689C467B
:10C090008020C0006044824229D21368013326D038
:10C0A0005E49938817888B4218D0002F16D05346CC
:10C0B0005A60514B99881B688900F5E65246072360
:10C0C0001370002353604C4A4C4811680093544A43
:10C0D000023301F095F9C0E606235BE5538803338C
:10C0E0009B00D218824202D213680133D9D1434651
:10C0F0004B449B89002B00D0A3E661463F480122B8
:10C10000002301F0C7F9042352461370A5E65346F5
:10C110001B78072BE0D843499A0089588F460123A2
:10C120005246137044E65346334A5B8839491068D7
:10C130001B018846C9184F684860908817600881BD
:10C140000221918084E753462B4A5B685988938883
:10C15000CB180333938052460223518813705368DF
:10C160008AE7072BB8D8304B9B589F464346DB687D
:10C1700004AA079394460A23634408900990191C63
:10C1800007A8FFF757FC031C0A20002B00D0CBE0C8
:10C190000222731B9B00E3181A715EE6234B1B7887
:10C1A0009B074BD4224800210822FFF731F80220D8
:10C1B00056E6114B1A4A1968009002230F4801F005
:10C1C0001FF90123039A137143E5124B98461B781C
:10C1D000022B00D1E3E043461B7C022B00D1CDE0D3
:10C1E0000223124A11780B4351468B4313700123EB
:10C1F00008E6012332E5C046D42100208420002037
:10C200001D1D0000DE21002000220020AC5B02008A
:10C21000D42000202C210020B85B0200FFFF00008A
:10C22000B05B02003C5B02005C5B0200DC21002092
:10C23000242100201B68FFDE0F2059E6744B9A462C
:10C240009B889B46012B17D8724BB1469846291CF8
:10C25000161C71485B4642461B010493D35C002BBD
:10C2600013D05B46524601339BB293800122934622
:10C27000022BEFD10D1C4E46504600210822FEF73E
:10C28000C7FF731B9B00E35CBCE553461D68049B22
:10C29000802243445B68D2009C46059362448C46EE
:10C2A00006E05546A7192960FF880D1C9F4215D04E
:10C2B000002D55D06988033189006918914220D238
:10C2C0000B6801331DD08B880D88834201D0002D6F
:10C2D000E7D14B8803339B00C918EFE700234F4891
:10C2E00000934F4A0133654601F08AF84E46031C1D
:10C2F0000E20002B00D0B3E50122049B43449A7327
:10C30000DBE45346002261461A60AAE759684348B5
:10C310000132F5E601223B0143449A730623751B63
:10C32000AD0064192374C8E4424608993B488B88E1
:10C33000D3800B88138104AB5B89394A98460097F8
:10C34000012301F05DF8031C0E20002B00D01FE735
:10C350004346304A1B01D318012200209A7317E785
:10C3600005990831AAE72B4B98460B01994643469D
:10C370004B445B681A1C9C46083289E601231F0166
:10C380004346DB19596800239A460093254A023335
:10C39000224801F035F843465246DA5559E4002365
:10C3A000EDE70122131C51464A804968002925D037
:10C3B0004A881B010332920043448A18596880233B
:10C3C000DB00C818824217D21368013314D08C46A0
:10C3D000114F93881188BB4204D0002902D05346E4
:10C3E0005A605DE5538803339B00D218904202D90E
:10C3F00013680133EDD16146084880E61B014344D0
:10C4000059680A1C0832DAE70022131CCBE7C04641
:10C41000242100202C210020FFFF00008420002088
:10C42000AC5B0200B85B020008B5081CFFF778FBA4
:10C4300008BDC04610B506490C220B78082B05D064
:10C44000044A9C00A050002201330B70101C10BD48
:10C4500020210020E0210020F0B556465F464D46E1
:10C4600044460023F0B4AC4E8DB007930893099373
:10C470000A930B9333789A0712D5A84C251C2035C4
:10C480002368002B01D007A898470434AC42F7D1A9
:10C4900000200DB03CBC90469946A246AB46F0BD8C
:10C4A000DA07F5D401221343337000F047FF9C4BA9
:10C4B0001F689B469B4B1C68082398468023DB0023
:10C4C000E018C0231B019C46A4446346029300234A
:10C4D000BC469A46A04403930193934A2168231CC7
:10C4E000914204D146E00433984200D1F1E01A6849
:10C4F0000132F8D053465246013303219BB29A468B
:10C500008A4D120151558023DB009946029B4C4411
:10C51000C84448449C42E0D15B4667461F606B4676
:10C520001B790B2B05D8824A9B00D3589F460323C7
:10C5300005938048436F032B12D87F4A526C082A18
:10C540000ED80321026F9A180A40D1008A1A0121DD
:10C550009200821811706946097D01331171436799
:10C5600033785A0794D40422002013433370FFF722
:10C57000D7FA8DE76368714A934204D0704A9342B8
:10C5800047D0231CB3E753461B011A1C0493002316
:10C59000664991468B540B1C4B441F1C5C60022364
:10C5A000002241463B8100920A68013221D0654A4F
:10C5B00091466246A446141C0FE08A68944200D259
:10C5C000141C4A88033295009B189BB249193B8181
:10C5D00081420BD20A68013208D08A880D884A4508
:10C5E00001D0002DE9D101220092EAE7231C644624
:10C5F0009C464E4A049B91466A4612784B449A7375
:10C600000223019A1A43534601339BB201929A4680
:10C6100079E7039B002B58D04449534602228946B0
:10C62000494F1B015A5439684B4459601A8153468B
:10C6300001339BB29A460091022341463C60BB8085
:10C640000B68013343D03F4A654602239146A44616
:10C6500002E00A68013212D08A880C884A4505D067
:10C66000002C03D08A68954200D2151C4A880332F8
:10C6700094009A1893B20919BB808142E9D36446A9
:10C68000AC46022B23D00823019A1A4301923AE7C1
:10C690000B20FEE6022305934BE7022332781F4C62
:10C6A00013430122251C9343337020352368002B4C
:10C6B00001D007A898470434AC42F7D1E8E601233B
:10C6C000059336E70023059333E71F4FB4E70423B0
:10C6D000DAE71D4B1B680093002B14D01349534617
:10C6E000022289461B015A544B441A8152465C600F
:10C6F000164B5A80534601339BB29A460123019A46
:10C700001A430192FFE6104B0F4A1C6002239380EC
:10C71000013B0393F2E7C046DC210020E02100202A
:10C720001C21002084200020DEC0ADDE2C21002052
:10C730007C5B02005C210020D4200020FE011EF161
:10C74000FF011EF1FFFF0000D42100204C2100203A
:10C7500030B5052383B000280AD0002908D06B46E5
:10C760000D1C991D041CFFF765F90A23002802D14E
:10C77000181C03B030BD6B46DB88074A1B01D31879
:10C780009A89616801329A81296063680C336B6011
:10C790000123A3720023EBE72C21002010B5052311
:10C7A00082B0002818D06B46991D041CFFF742F98F
:10C7B0000A23002810D06B46DA88094B12019A1818
:10C7C000918906230832002906D0A07A002803D0D8
:10C7D000002301399180A372181C02B010BDC0461D
:10C7E0002C21002070B5194B1A780223920701D42E
:10C7F000181C70BD03330028FAD0CA1C92B204334F
:10C80000FD2AF5D8124C2378002B10D16689238994
:10C81000F318D3189BB2FF2B09D8002500231B0166
:10C82000E418B2186281002305804180E0E7257C8E
:10C830000723002DDCD1668B258B75195519ADB2F8
:10C84000FF2DD5D80125063BE9E7C046DC210020B5
:10C850002C21002030B50F4B1A780223920701D407
:10C86000181C30BD002813D002880233022AF7D8E2
:10C87000094912018A185189448808320D1B032D79
:10C88000EED400230339091B518003804380E7E77E
:10C890000523E5E7DC2100202C210020F0B55F46D0
:10C8A00056464D464446F0B4824A89B01378022772
:10C8B0009C0707D4381C09B03CBC90469946A24658
:10C8C000AB46F0BD002945D00D887B4C0237A54210
:10C8D000F0D04C88002CEDD04C680F89A046002F7A
:10C8E00000D1DFE02468A40736D145460326083589
:10C8F0000024B446994604E063462E6808351E427B
:10C900002AD10134A742F7D84446FF0004373D1C22
:10C91000261D4B460024454437880836E419A4B246
:10C92000AE42F9D1E51CADB20927FD2DC2D8634E48
:10C93000A9463778002F08D175893789AC466744F6
:10C940004F44BFB2FF2F00D8AFE0377C002F05D097
:10C950000727AFE70527ADE70327ABE7778BBC4693
:10C96000378B67444F44BFB2B84645460727FF2D73
:10C97000A0D801252F1C03954D466544ADB2009506
:10C980003D016F463F88029575196F816F460D898D
:10C990003D71A8463D790495494DAC4667462D68E2
:10C9A00001353D6001950D88464F05954D88BB4684
:10C9B00049687F6F06950791B946032F4CD84249C5
:10C9C0004546496C8A460821491B8A4544D85F463A
:10C9D00003263F6F69464F443740FD00ED1B022799
:10C9E000AD005D442F70EC800F8B8C8A01992C81F7
:10C9F000E96069468989002469826946097C6C81FD
:10CA00002C744C46A97559460134AF80AE824C67F0
:10CA10004146002931D02C490725096C079E0C1C82
:10CA2000294954448C464146CF0038212C40E4002B
:10CA3000E14664448C46F719CC449A46834603E0A9
:10CA40002C1C0836BE4210D0251C331C03CB03C55A
:10CA50006445F5D14C46F4E7029B08279C46009BB1
:10CA600066441C1B033C748124E717495346496CF8
:10CA7000584641440C1C14494C64002807D000213E
:10CA8000019C41608172114904600989018100277C
:10CA9000590700D50EE7042100200B431370FFF760
:10CAA0003FF807E70024032541E7002503952F1CE5
:10CAB00062E7C046DC210020FFFF00002C2100209F
:10CAC0001C2100205C210020D42000204C210020CB
:10CAD000F0B556465F464D464446F0B4052685B04F
:10CAE000002A04D0634C033E23789D0707D4301CF2
:10CAF00005B03CBC90469946A246AB46F0BD002925
:10CB000000D18AE00D885C4F0236BD42EFD04F88DD
:10CB10000097002FEBD04E6802960989002917D0A4
:10CB200037680197BF077AD1371C0026B446033611
:10CB3000B2460837664690469C4604E052463B683B
:10CB4000083713426BD10136B142F7D863464246EB
:10CB50001688019652889346484A9446664612685B
:10CB600001323260464EB146766FB046032E58D839
:10CB700008277F1ABC46434EB246766C039666453C
:10CB80004FD84F463F6FBC46C444664603273740E4
:10CB9000FE00F71BBF00BC46CC44674602263E7031
:10CBA0006E463D81002536887D81BE805E4600252B
:10CBB000FE806E463D746546FA60B788A9756F823F
:10CBC0000327AF8245464F4601357D6700293DD09A
:10CBD00055462F6C039EBC466644351C07273D40D6
:10CBE000CF00BC46029E3827B44493466246ED000F
:10CBF00057449C465544D146B84600910190131CB9
:10CC000003E03D1C08369E4216D02F1C321C03CA7E
:10CC100003C74545F5D14D46F4E7052667E70326EA
:10CC200065E75946019B184A1B01D3185A89082603
:10CC3000033A521A5A815AE755466D6C6346AC4620
:10CC400055465A460099019861446964002806D007
:10CC5000002102600D4A4160817212890281002622
:10CC60005A0700D543E70422002013432370FEF740
:10CC700057FF3CE7DC210020FFFF00001C210020C3
:10CC80005C210020D42000202C2100204C210020F9
:10CC9000F0B55F4656464D464446F0B4052389B08C
:10CCA000002804D06F4F033B3E78B20707D4181C0E
:10CCB00009B03CBC90469946A246AB46F0BD00295F
:10CCC00000D1A2E00C88684A02339442EFD04A882F
:10CCD000002AECD04B680D899846002D00D1B7E0B2
:10CCE0001B689B0700D092E04246032408320023D1
:10CCF000A446894605E06146146808320C4200D01B
:10CD000085E001339D42F6D84346ED0004351A1DF7
:10CD10002B1C494600254344148808322D19ADB216
:10CD20009A42F9D106AB8846041C991D281CFEF7CF
:10CD300055FE021C031EBAD141464C48098906AB78
:10CD40008A460168DB880131016040460088019114
:10CD50000290404640880390206804904046406816
:10CD6000059043488446406F8046032851D8414887
:10CD700051468146406C83460820401A834548D876
:10CD80006146096F4144081C03210840C100081A8C
:10CD90000321800060440170694642810422898930
:10CDA000438281806946049BC58002744546013AEE
:10CDB0008282836152466346098901350181019966
:10CDC0008275C1605D675346002B34D04B46072205
:10CDD0001B6C05985B4413405246D5003822DB009B
:10CDE0004A444B444519C846944601968B460294E2
:10CDF00003E0131C0830A84214D01A1C011C50C9AF
:10CE000050C26345F5D14346F4E705234FE70323BA
:10CE10004DE7194A1B01D3185A89033A521B5A810C
:10CE2000082344E75B46019E01934B464A465B6CF0
:10CE3000029C534453640023019A6360A3720F4B16
:10CE400022601B8923810423334203D000232EE771
:10CE5000002567E71E4300203E70FEF761FE0023B9
:10CE600025E7C046DC210020FFFF00001C21002038
:10CE70005C210020D42000202C2100204C21002007
:10CE800070B5164A02241378990701D4201C70BD8E
:10CE9000134902348842F9D0124E0434756F032DC1
:10CEA000F4D81149496C0829F0D8316F053C69184C
:10CEB0002140CC00611A0524890071180C700135DD
:10CEC000043C0C71C880002475675907DED4042126
:10CED00000200B431370FEF723FED7E7DC21002070
:10CEE000FFFF00005C210020D420002038B5154A47
:10CEF00002241378990701D4201C38BD1248063447
:10CF0000416F0329F8D8114D6D6C082DF4D8032515
:10CF1000046F0C192C40E5002C1B06250131A400E0
:10CF2000055541670A490878002801D00120087397
:10CF300000245907E0D4042100200B431370FEF7AE
:10CF4000EFFDD9E7DC2100205C210020D420002067
:10CF50004C210020F0B54D4644465F465646F0B49D
:10CF60009146344A8846117883B00222890707D453
:10CF7000101C03B03CBC90469946A246AB46F0BD9F
:10CF80004A46002A40D0002B3ED09A880192012ABE
:10CF900038D8294A294F9346002294465946019A87
:10CFA00012018C5C002C25D11C6803E01C60A58854
:10CFB00085422BD0002C36D0594665880335AD000C
:10CFC00064198D186E688021C9008A465644B4429F
:10CFD0000ED2216801310BD0A5882188BD4201D035
:10CFE0000029E3D165880335AD006419B442F0D35C
:10CFF00062461A600121019A0191013292B29A802F
:10D00000022ACBD10A22B3E70522B1E7258845459C
:10D01000D0D14A46A16811601B685360084B1B8938
:10D0200013810022A4E759468C186668341C083422
:10D03000C9E7C046DC2100202C210020FFFF0000B2
:10D040004C210020F0B544465F4656464D46F0B4AC
:10D05000314B1C780223A40706D4181C3CBC904614
:10D060009946A246AB46F0BD002943D0002A41D0E4
:10D0700093889846012B3BD8284B294E9C46002389
:10D08000994643461B019A46634654461B5D002B56
:10D0900026D1156804E013601C881D1C84422BD027
:10D0A000002D32D064466B88544403339B00EB1848
:10D0B00065688024E400A3465D449D420ED91C6847
:10D0C00001340BD09C881F88B44201D0002FE2D1DC
:10D0D0005C880334A4001B199D42F0D84B461360B2
:10D0E0004346012401339BB29380A046022BC8D152
:10D0F0000A23B2E70523B0E79B680B6013684B6017
:10D10000084B1B890B810023A7E7634653445D68E6
:10D110002B1C0833CDE7C046DC2100202C21002049
:10D12000FFFF00004C210020F0B544465F46564604
:10D130004D46F0B4314B1C780223A40706D4181CCA
:10D140003CBC90469946A246AB46F0BD002943D070
:10D15000002A41D093889846012B3BD8284B294E72
:10D160009C460023994643461B019A466346544613
:10D170001B5D002B26D1156804E013609C881D1CE4
:10D1800084422BD0002D32D064466B885444033344
:10D190009B00EB1865688024E400A3465D449D4233
:10D1A0000ED91C6801340BD09C881F88B44201D072
:10D1B000002FE2D15C880334A4001B199D42F0D8F3
:10D1C0004B4613604346012401339BB29380A04633
:10D1D000022BC8D10A23B2E70523B0E79B680B6096
:10D1E00013684B60084B1B890B810023A7E763463C
:10D1F00053445D682B1C0833CDE7C046DC2100207A
:10D200002C210020FFFF00004C210020002805D029
:10D21000002903D0036800200B6070470520FCE75D
:10D2200029DF704728DF704738B50C4C0023626E49
:10D23000042A10D0236ED318032B00D9043B0132EB
:10D24000626618225343E418051C0021201CFDF7D8
:10D25000DFFF01232C60181C38BDC04610220020BF
:10D26000F0B5344B87B01D781C1C06231D425ED1DF
:10D27000043B2B432370304B5A6E1E6E1F1C002A3A
:10D2800055D018237343FB181A7A012A05D0022AB5
:10D2900021D19889FFF7C6FF13E09A8AD98A521ADA
:10D2A000FF2A01DC92B201E080225200182373436E
:10D2B000FB18186908335B68890040185918FFF794
:10D2C000AFFF112805D102239D43DB181D432570B4
:10D2D0002DE000282BD00021102202A8FDF798FF96
:10D2E00018237343FB18191C1A7A0831012A0BD032
:10D2F000022A11D1012302AA13708A88CB8802A9BD
:10D30000D31A0B814A8107E0002202A802708A68C2
:10D31000019204929B8A838118235E43BB195B6848
:10D3200002A801930393BB5909219B68984707B052
:10D33000F0BDC0460C22002010220020F0B545466A
:10D3400057464E46E0B42A4B5D696B1C4BD0294BC7
:10D3500099461B789846DB073FD4274B27499C46C4
:10D36000C91A090933D00F1C080160441A68002A41
:10D3700003D05A68541EA241BF1A10338342F5D11C
:10D38000002F24D000260024F0B263460022A246DB
:10D3900006E05C68002C06D0013210338A420BD0C4
:10D3A0001C68002CF5D15C7B5445F5D9D0B2013214
:10D3B000A24610338A42F3D10001031C63441A7B56
:10D3C0005D609202AD1A01361D60BE42DBD10123C1
:10D3D00042461A43131C4A46137000201CBC904658
:10D3E0009946A246F0BD80235B055D69AD02AEE7BC
:10D3F000001000100C220020842000209420002027
:10D40000F0B51F1C204B041C1B7883B00D1C161C90
:10D410000120DB0711D5002C11D01C4B01309C42A0
:10D420000BD31B4B9C4208D2002A0AD0002D08D0F7
:10D43000331C2B4306209B0705D003B0F0BD022010
:10D44000FBE70320F9E7236801389D42F5D3BB00D1
:10D450006268EB189A42F0D30138002FEDD001A892
:10D46000FFF7E2FE031C0720002BE6D0019B089A81
:10D470001C605A600122019B1A72DE601D619F824E
:10D48000FFF7EEFE0020D8E70C22002084200020C9
:10D4900094200020F0B51F1C1E4B041C1B7883B089
:10D4A0000D1C161C0120DB070ED5002C0ED01A4BCC
:10D4B00001309C4208D3194B9C4205D2002926D04A
:10D4C000AB050620002B03D003B0F0BD0220FBE724
:10D4D000236801389D42F7D3B3026268EB189A4281
:10D4E000F2D30138002EEFD001A8FFF79DFE031CF8
:10D4F0000720002BE8D00222019BAD0A90C3019BBC
:10D500001A729D811E82FFF7ABFE0020DCE703202C
:10D51000DAE7C0460C22002084200020942000205E
:10D52000002804D0034B5B6E03600020704703208B
:10D53000FCE7C04610220020F0B556464D46444652
:10D540005F46F0B4A94EAA4C337885B0256E9A0791
:10D5500045D5022865D0032800D082E0A54A13787B
:10D560000133DBB21370032B00D87AE000230021D3
:10D570001370684610226F009946FDF749FE7B192B
:10D58000DB00E318191C1A7AE8460831012A00D199
:10D59000F4E0022A08D101236A4613708A88CB88F6
:10D5A0006946D31A0B814A814246404608217D19BB
:10D5B000ED0063195B68536063599B689847636E1D
:10D5C000013B6366002B03D1022132788A4332701B
:10D5D000226E551C042D00D1EFE0256642E00422A6
:10D5E0001A423ED09343626E3370002A12D0022258
:10D5F0006F00134333707B19DB00E3181A7A012A9A
:10D6000039D0022A54D19889FFF70CFE112845D051
:10D6100000284DD105B03CBC90469946A246AB4689
:10D62000F0BD00239A465246724B6F001A707B1968
:10D63000DB0099460823A1444B449B464B461B7A8A
:10D64000012B62D0022B0CD15B465A469B880133DA
:10D650009380D38801339BB2D38012899A4200D140
:10D6600094E0636E002BD5D06F007B19DB00E318CC
:10D670001A7A012AC5D19A8AD98A521AFF2A14DC49
:10D6800092B27B19DB00E318186908335B688900E4
:10D6900040185918FFF7C4FD1128B9D10222337878
:10D6A0009343042213433370B4E780225200E8E727
:10D6B000002110226846FDF7ABFD7B19DB00E31863
:10D6C000191C1A7AE8460831012A16D0022A08D114
:10D6D00001236A4613708A88CB886946D31A0B8166
:10D6E0004A8142467D19ED0063195B6840465360EC
:10D6F000635909219B6898478CE76846002289682E
:10D70000027002919B8A8381EBE74B46998A103322
:10D71000DB88CA1AFF2A2FDD80225200D3187A191B
:10D72000D20091461022A1444A449BB29246D38033
:10D73000994296D1102268460021FDF769FD4B46BB
:10D740004A461B7AE8460832012B45D0022B08D105
:10D75000012369460B709188D3886A46CB1A1381DE
:10D76000518142467D19ED0063195B684046536064
:10D77000635900219B6821E792B2CFE76A46484689
:10D780008968107002919B8A93810DE76846002199
:10D790001022FDF73DFD4B461B7AE846012B10D0C9
:10D7A000022BDED101236A4613705B4669469A88D4
:10D7B000DB884A81D31A0B81D3E700220025226639
:10D7C00050E76B4652461A705A464B469268029290
:10D7D0006A469B8A9381C4E7002369460B705346CF
:10D7E000926802929B888B81BBE7C0460C22002086
:10D7F00010220020782200200123034215D142107C
:10D80000134214D18210134213D1C210134212D109
:10D810000211134211D14211134210D1821113424D
:10D820000FD1C0110FD1094870470020FCE701203B
:10D83000FAE70220F8E70320F6E70420F4E70520E2
:10D84000F2E70620F0E70720EEE7C046FFFF000002
:10D8500010B5002819D0002917D00488944215D09B
:10D860004488944223D08488944222D0C48894422D
:10D8700021D00489944220D0448994421FD08489C5
:10D8800094421ED0C08990421DD010BD0022002BB2
:10D8900006D0012393401A1C0B781A430A70F4E750
:10D8A000012393401A1C0B7893430B70EDE7012280
:10D8B000EDE70222EBE70322E9E70422E7E705228E
:10D8C000E5E70622E3E70722E1E7C046F0B5444674
:10D8D0005F4656464D46F0B483B00CAC2478002821
:10D8E00022D0002920D0002A1ED005889D4200D1D8
:10D8F000E1E045889D4200D1E8E085889D4200D165
:10D90000E6E0C5889D4200D1E4E005899D4200D152
:10D91000E2E045899D4200D1E0E085899D4200D149
:10D92000DEE0C089984206D003B03CBC90469946E0
:10D93000A246AB46F0BD0720012383404842DBB23C
:10D94000002C5DD103342040904200D9101C042AE1
:10D9500000D9B6E0101CDC430D78E4B225400D7010
:10D96000012800D1C4E04D7825404D70022800D137
:10D97000C2E08D7825408D70042800D0BAE0CD78C3
:10D980002C40CC7004248242CED0151AAC46043D03
:10D99000AD080135A946561EAD00A846361A022E1E
:10D9A00019D91F023D1C1E041D432E431F06374379
:10D9B0008346F8430025002682468B445846475943
:10D9C0005046074058460136475104354E45F5D379
:10D9D0004444C445A8D0DB4308190578DBB21D4098
:10D9E0000570601C82429FD90818057802341D40DA
:10D9F0000570A24298D90C1922781340237093E73E
:10DA000003242040904200D9101C042A55D8101C31
:10DA10000C781C430C70012866D04C781C434C7069
:10DA200002285FD08C781C438C7004285ED1CC789F
:10DA30001C43CC700424824200D175E7151AAC4611
:10DA4000043DAD0801350195561EAD00A846361AB5
:10DA5000022E1BD91E021E43B24655461F042F43F9
:10DA600000251E063743BA460026A9460818574621
:10DA700085592F430125AB46019DD9448751043672
:10DA8000A945F4D34444C44500D14DE70D19287885
:10DA900018432870601C824200D845E708180578B2
:10DAA00002341D430570A24200D83DE70C192278CC
:10DAB0001343237038E700203EE700240028BDD040
:10DAC000A6E70024002800D15FE744E7012033E700
:10DAD000022031E703202FE704202DE705202BE764
:10DAE000062029E70224A6E70124A4E70324A2E7ED
:10DAF000012448E7032446E7022444E710B5002840
:10DB000019D00488944218D0448894421AD084884A
:10DB1000944219D0C488944218D00489944217D0F2
:10DB20004489944216D08489944215D0C389002038
:10DB3000934213D010BD0020FCE7002319410120BF
:10DB40000840F7E70123F9E70223F7E70323F5E7A6
:10DB50000423F3E70523F1E70623EFE70723EDE7C7
:10DB600030B50023002935D0D40702D50B88838037
:10DB70000123940704D55C004D880419A580013366
:10DB8000540704D55C008D880419A580013314075F
:10DB900004D55C00CD880419A5800133D40604D5D2
:10DBA0005C000D890419A5800133940604D55C003E
:10DBB0004D890419A5800133540604D55C008D8974
:10DBC0000419A5800133D21104D05A00C9898218E2
:10DBD00091800133036030BDA022044BD205D3589D
:10DBE000034A125C0120D3409843704704050000AB
:10DBF000C45B0200044BA0211A5C01239340034A3A
:10DC0000C9058B507047C046C45B02000C0500007C
:10DC1000044BA0211A5C01239340A122C905D20024
:10DC20008B507047C45B0200A022A1238021D20543
:10DC3000DB008903D1508021C903D1508021C9055F
:10DC4000D15080214905D1507047C046A022802183
:10DC5000064BD2058903D1508021C903D1508021C0
:10DC6000C905D15080214905D15070470C050000ED
:10DC7000A021012210B5084BC905CC58074B1B5CED
:10DC80009A40131C101CA122A043D2008850044AC1
:10DC900023408B5010BDC04604050000C45B020049
:10DCA0000C050000014B185C7047C046C05B0200C9
:10DCB00010B51B4B1A68002A1BD11A4B1A68002A90
:10DCC00000D110BD00221A60C223802202219B00D5
:10DCD000D205D1500123144CA3702369002BF0D03E
:10DCE0001A68012022615B6898472369002BF7D1ED
:10DCF000E7E7002280211A60C22201230A4C920029
:10DD0000C9058B506370A368002BD6D01A68002019
:10DD1000A2605B689847A368002BF7D1CDE7C046A7
:10DD200000010040040100407C22002010B50028C2
:10DD300000D010BD064CA368002BFAD01A68002052
:10DD4000A2605B689847A368002BF7D1F1E7C04653
:10DD50007C22002030B583B06B46DD1D0023281CDB
:10DD60002B70FDF705FE134C2378002B13D1636055
:10DD7000A3602361E360104B1B68DB0715D507F038
:10DD800037FC002805D1A32380220121DB00D20526
:10DD9000D15001232370E36828780133E360012325
:10DDA000A370FDF705FE03B030BD0020032100F095
:10DDB00005F8E4E77C22002000E100E0F0B500284F
:10DDC00020DBFF271B4B03229C463B1C8408C026FC
:10DDD000C0B20240D2009340A4006444B600A559EA
:10DDE0009D438B013B409340191C2943A1511F23A4
:10DDF00018401E3B8340C022181C0E4B5200985006
:10DE00001860F0BDFF260C4A03249446321C0F23F1
:10DE1000C0B20440E400A2400340083B9B089B00C2
:10DE20006344DD6995438A013240A240111C2943B5
:10DE3000D961DCE700E100E000ED00E0F0B54D461F
:10DE40005F46564644460023F0B47C4A87B00393AD
:10DE500013680025012B00D1E5E0794B1A68012AEF
:10DE600000D1D4E0774B1A68012A00D1C3E0764B89
:10DE70001A68012A00D1B2E0744B1A68012A00D155
:10DE8000A1E02B071DD0724BA2279846F8235B0117
:10DE9000012600249946FF0035420ED06D4AA300AA
:10DEA0009A18D059D1594246D358002B05D04A462A
:10DEB00089031040000A890F984701347600042C2A
:10DEC000EAD1002D06DB07B03CBC90469946A2463D
:10DED000AB46F0BD00230493013B0593C1339B4641
:10DEE0005B4D002300240193231C4033E95C4BB2BB
:10DEF00001332DD0C9B25B46081C98430723012784
:10DF00000B409F403B1CC20805AFBF5C3B421FD08B
:10DF10002F1820373F7889097FB2BF00EF59BC46E0
:10DF2000002F30D0032930D0A026F605B046870058
:10DF3000B844E0274646FF00F759C026B6023740EE
:10DF4000B14603AEB25C3F0C134213D1032F22D073
:10DF50000134042CC8D1019B002BB4D0A223A022F1
:10DF6000DB00D205D358039A9342ACD00393049BB1
:10DF70000593B6E7022FEBD1032911D06346002B9E
:10DF8000E6D0E047E4E70329E2D104AEB7183E78D3
:10DF90001E433E70C8E70329F0D180239B029946B7
:10DFA000E0234246DB00D2582B4F4E4617404246F4
:10DFB000D750D2581643321C4646F250019B0133CB
:10DFC000DBB20193DAE700221A6080231B061D43AF
:10DFD000A022A223D205DB00D358039351E7C1222C
:10DFE0001C499200895808220A4200D144E70021C6
:10DFF0001543196040E7C12216499200895804224E
:10E000000A4200D133E70021154319602FE7C122EE
:10E0100010499200895802220A4200D122E70021C9
:10E02000154319601EE7C1210A48890041580B4277
:10E0300000D112E7156001350FE7C04600610040CE
:10E0400004610040086100400C6100407C610040B8
:10E050009022002000600040FFFFFCFFC12310B5AC
:10E06000614A9B00D35884B09B054FD592235B0037
:10E07000D15800294AD00021D1508121E5338900AF
:10E08000FF33D150594B997E002901D101315160A4
:10E09000022269460A7090215348C90042584250F2
:10E0A00069460392DA7D68460A72DA681968019255
:10E0B0000022DA751A765B6898478E214A4A490031
:10E0C0005358002B0FD0494B9C8A987D84424FD2E5
:10E0D00000205050998A9868405C998A013189B231
:10E0E0009982434BD050A2233F4A5B00D15800296C
:10E0F0000AD00021D1503D4B997E002901D0012149
:10E100001160DA7D002A42D104B010BDC123364A25
:10E110009B00D3585B07D0D5842149005358002B6E
:10E12000CBD0324BD87D00283ED15050A321C9001E
:10E1300052585A7E8242C0D11A7E002A42D19A7E1B
:10E14000002A02D10121284A51608120C222264999
:10E15000800092008850002268460121DA755A7EBC
:10E1600001700272DA68196801925B689847A4E747
:10E17000002454500028B6D06A46147010729A6871
:10E180009C75196801925B6868469847ABE7002266
:10E1900068460121DA755A7E01700272DA681968E0
:10E1A00001925B689847AFE700205050A320C00061
:10E1B000597E1258D86842545A7ED87D0132D2B264
:10E1C0005A76B6E7DA751A69D968DA6000226C46C1
:10E1D000587E1A765A76013220720191227019689F
:10E1E00068465B68984768E700200040D822002016
:10E1F0001C05000070B5804B051C1B680024DB0764
:10E2000001D4201C70BD7D4E3378002B06D1172D14
:10E2100000D9EFE07A4AAB00D3589F463470FFF73D
:10E2200003FDF4E7012301203370FFF721FD754B57
:10E2300075481B6800229900C918FDF7F1FA041C03
:10E24000DFE7012301203370FFF712FD6D4B6E48AD
:10E2500019680022FDF7E4FA041CD2E7FFF7E4FC9A
:10E260000120FFF7C7FC1422684B00241A70C8E78E
:10E270000020FFF7BFFC0722644B00241A70C0E7A0
:10E28000FFF7D2FC0020FFF7B5FC0120FFF7B2FC3E
:10E2900015225E4B00241A70B3E70020FFF79CFCA8
:10E2A000002800D19DE00020FFF7B2FC08210322E6
:10E2B000564B1A7077E00020FFF78EFC002800D143
:10E2C00085E00020FFF7A4FC28210422F0E70020CD
:10E2D000FFF782FC002800D17FE00020FFF798FCC8
:10E2E00005224A4B48481A70464B002219684900DB
:10E2F000FDF796FA041C84E70020FFF7B9FC06221C
:10E30000424B1A70A2E7FFF7A1FC0C223F4B0024FE
:10E310001A7076E73E4E301CFDF7E4FA041C11201B
:10E32000451B49D0002C47D1012D0DD0B7306421B9
:10E33000684307F003FA334B00221B684343301C49
:10E34000191CFDF76DFA041C0220FFF753FC58E777
:10E35000FFF76AFC12222D4B00241A7051E7FFF7D9
:10E3600063FC0020FFF746FC1322284B00241A70A0
:10E3700047E7FFF76BFC254B00241D7041E7FFF7D3
:10E3800053FC0022214B00241A703AE70020FFF7CB
:10E3900023FC002814D00020FFF73AFC022D27D0E0
:10E3A00028211A4B1D70174B17481B680022594330
:10E3B000FDF736FA041C24E70220FFF729FC20E7CA
:10E3C0000020FFF717FC022D10D00421E9E7002000
:10E3D000FFF710FC042104226AE70020FFF70AFC83
:10E3E0007EE70020FFF706FC022160E70221D8E764
:10E3F0001221D6E7002404E714230020182300206C
:10E40000C85B02001C230020F422002020230020EF
:10E4100024230020031C0720032B00D97047012A66
:10E4200013D0012917D0002908D0022919D158008A
:10E43000C3180D48C3185A700020EFE75800C318DE
:10E440000948C3189A700020E8E700220129E8D1A2
:10E450001A1C0E32D2B258000349C3185A54002075
:10E46000DCE70720DAE7C0464423002008B5FFF7C1
:10E4700019FCA023DB059C46E02380006044DB0000
:10E48000C158054A0A40C021C250C25889020A43F5
:10E49000C250002008BDC046FFFFFCFF08B50020A9
:10E4A000FFF7E4FF002802D0062800D008BD0120B5
:10E4B000FFF7DCFF031C0020002BF7D0062BF5D064
:10E4C000181CF3E710B50388102B08D0112B05D1C9
:10E4D000294A1368013B1360002B07D010BD264C5E
:10E4E0002368002B11D001332360F7E700200221BD
:10E4F0000122FFF78FFF00282BD0072829D01F4BC0
:10E500001B68002BEAD09847E8E700200021012291
:10E51000FFF780FF002808D0072806D0174B1B689C
:10E52000002B00D098472368DDE701200221072255
:10E53000FFF770FF002801D00728EFD1002002214B
:10E540000422FFF767FF0028EDD00728E6D12368F3
:10E55000C9E7012002210722FFF75CFF002801D054
:10E560000728CCD1002000210A22FFF753FF002802
:10E57000B4D00728C3D1B1E7542300205023002092
:10E5800076DF704778DF70477ADF70477CDF70474F
:10E59000A8DF704767DF70473CDF704748DF704790
:10E5A0007047C04608B5FCF73DFE08BD08B50248F7
:10E5B00006F0A2FF08BDC0468824002010B5041C48
:10E5C000FEF7BAFF201C01F009FA10BD10B5041CBB
:10E5D00084B001F04DFB201C05F0A2F82E48211C50
:10E5E00006F022FE211C2D4806F01EFB201C01F027
:10E5F000EBFA201CFFF766FF2388112B3ED017D9BA
:10E60000512B24D0552B0AD03A2B08D0201C01F0D6
:10E6100085F92348211C02F0C3FC04B010BDA0887A
:10E620001321FFF7ADFF0028F0D0FCF7FBFDEDE76D
:10E63000022B28D0102BE9D10720FFF7DBFD0028A3
:10E6400001D0FCF7EFFDA288164B1A80DEE7A37914
:10E65000A27B002BDAD0043A022AD7D8023B5A42D6
:10E6600053416A4601331370C1235B009380A08835
:10E670006946FFF78DFF0028C8D0D6E70122094B75
:10E6800052421A80C2E7074B00211888FFF782FF29
:10E690000028BBD0C9E7C0468824002008250020F8
:10E6A000F82400205420002008B50378002B00D067
:10E6B00008BD054B3B211888FFF762FF0028F7D003
:10E6C000FCF7B0FDF4E7C04654200020084B094990
:10E6D0001A68094BC046C046C046C046C046C04640
:10E6E000C046C0468A4200D0C046013BF2D17047C6
:10E6F000742000200024F40020A1070000B5037856
:10E7000083B0043BDBB20A2B0AD8144A9B00D358CF
:10E710009F46032001F0E0F8002801D0FCF782FDBD
:10E7200003B000BD80680028FAD0F7E7FEF7DEFBF3
:10E730000E28F5D00823021C9A43F1D0EEE705F02D
:10E7400075F8EDE700690028EAD0E7E7002301A9A2
:10E750000B70408805F066F8E2E7C046285C0200CE
:10E7600008B5002807D0032804D10138FFF742FD7F
:10E7700000280DD108BD0020FFF73CFD00280AD17C
:10E78000FFF78CFE002809D1FFF706FF0028F1D023
:10E79000FCF748FDEEE7FCF745FDF1E7FCF742FD2D
:10E7A000F2E7C04608B5032001F096F8002801D032
:10E7B000FCF738FD08BDC04608B50448044902F01E
:10E7C000EDFB002801D0FCF72DFD08BDF82400204A
:10E7D000ADE50100F0B5EE22A02447460323E40591
:10E7E000D20080B4A3500832A350EC230422DB00F3
:10E7F000E250A12380278026DB009846CE4DFF05FE
:10E800007605A0B067516651E750E650FFF75EFF0E
:10E8100067516651FFF75AFF4346E750E650FFF74E
:10E8200055FF6751665108ADC4490422281C07F002
:10E8300016F9281CC249D022002306F0DFFE00286A
:10E8400001D0FCF7EFFC10AC00200121221C06F0E7
:10E850004FFF002801D0FCF7E5FC201C06F060FF0C
:10E86000002801D0FCF7DEFCB64806F015FF0028B2
:10E8700001D0FCF7D7FCB44806F018FF002801D0FF
:10E88000FCF7D0FC04F05EFF002801D0FCF7CAFCC6
:10E8900004F0D6FF002801D0FCF7C4FC00210522BB
:10E8A000201CFCF7B5FC01238D222178201C194384
:10E8B000114030220A437F210A40227007220221A0
:10E8C00062700932A270E2781A430A43E270227938
:10E8D00013430B43237104F097FF002801D0FCF78A
:10E8E000A1FC9A4804F076FF002801D0FCF79AFCBE
:10E8F0009748FDF79FFD002801D0FCF793FC0F21FE
:10E9000001222B78934E8B43134310220B40134369
:10E91000301C2B7007F0C0F8311C82B2281CFFF7A6
:10E9200035FE002801D0FCF77DFC8B48FFF72AFE5E
:10E93000002801D0FCF776FC201C00210822FCF7FF
:10E9400067FCA0235B002380C83363800023A3807F
:10E950009133FF33201CE380FFF716FE002801D01F
:10E96000FCF760FC00213C22201CFCF751FC022338
:10E97000012623700433E370033B2382774B00218D
:10E980002022281C6361A670FCF742FC96235B00E2
:10E990002B61783B6B610023EE70201C00930021FB
:10E9A0002A1C6F4B00F0C2FE002801D0FCF73AFC95
:10E9B0000B27FFF701FF032303AE6F44002114224E
:10E9C000301C3B70FCF724FC00230F200122102197
:10E9D000039301333371337BB760834313430340A5
:10E9E0000B43337300237373B373F37B5D4F834324
:10E9F0001A43002302400A43381C311CF27333745B
:10EA000006F03CFC002801D0FCF70CFC002114228D
:10EA1000281CFCF7FDFB0F21012210206B7B8B4390
:10EA200013430B4003436B73AB7B8B4313430B408C
:10EA30000343AB730023EB732B7C8B431A430023FC
:10EA400011400122014329740893AB6046486433A6
:10EA5000291C2A712B7306F017F9002801D0FCF746
:10EA6000E1FB40220021201CFCF7D2FB201C3F4987
:10EA700001F012FA3C210F200122635C834313430F
:10EA8000102203401343635400223D23201CE25410
:10EA900006F050FA002801D0FCF7C4FB1C22201C11
:10EAA0000021FCF7B5FBA02292026260F022120363
:10EAB0000023A260032210932273BA8923742C4B83
:10EAC000201C63612B4BE281A36101F041F8002817
:10EAD00001D0FCF7A7FB8021274849020022FCF760
:10EAE0009FFE002801D0FCF79DFB802123480902EE
:10EAF0000022FCF795FE002801D0FCF793FB20488C
:10EB000020490022FCF78CFE002801D0FCF78AFB8C
:10EB1000A0211D4889020022FCF782FE002801D0B6
:10EB2000FCF780FBFFF73EFEFFF738FD0028FBD027
:10EB3000FCF778FBF8E7C0460C050000545C0200C7
:10EB400078230020CDE50100BDE50100FDE60100D0
:10EB5000A1E50100585C02004103000048200020AC
:10EB600061E701008824002008250020645C020081
:10EB7000A9E60100A5E50100582300206824002033
:10EB80004824002066260000D824002071DF70474A
:10EB900072DF704779DF70477DDF704765DF704750
:10EBA000F0B50488051C83B00720012C04D014881C
:10EBB000A01C984202D90C2003B0F0BD2E78012E83
:10EBC00004D16E7802363619B342F4D3023B1C1BD3
:10EBD0006B460F1CA4B20818991D161CDC80FFF7A9
:10EBE000DBFF0028E8D12B78022B18D0012B11D0A5
:10EBF000231C0821FE2BDED83288581CB8543288DA
:10EC00000020013292B23280B954328801329B180E
:10EC10003380D1E76B789C42EBD2231CE9E76B464B
:10EC2000DB8809219C42E5D2231CE2E7F0B55F4670
:10EC3000564644464D46F0B485B09A460EAB80CB5E
:10EC4000061C1B8800919B463B88904601930388D5
:10EC5000002B5BD00023994602AB0024DD1C03E0AF
:10EC600033880134A3422ADD7368A1009C46042244
:10EC7000614403A806F0F3FE03A8291C0022FFF755
:10EC80008DFF002826D12B784345E9D14B46002B38
:10EC900027D043463A88D3185B4539DC524403A851
:10ECA000291CFFF77BFF002814D13B882A78013408
:10ECB000D3183B80012399463388A342D4DC4B46CA
:10ECC000002B23D03B88019A013B9B1A9BB20C205E
:10ECD000FF2B18D905B03CBC90469946A246AB46DE
:10ECE000F0BD42463B889A1802325A4510DC69460C
:10ECF0005246013309789BB23B80D1543A880132A5
:10ED000092B23A80CAE7111C524653540020E1E700
:10ED10000C20DFE7F0B544465F464D465646F0B45A
:10ED20001388141C9846002313802D33C25C87B0CF
:10ED3000051C0F1C0023002A00D0BAE0AA78002A84
:10ED400000D0E3E0E978002900D0A7E06A68002A53
:10ED500014D01178DA1C424500D9A2E00222FA54FC
:10ED60002388083201339BB22380FA54238801336D
:10ED70009BB22380F9542388013323802B89002BF5
:10ED800000D0F6E02B8A002B00D00DE12B8B002B5E
:10ED900000D024E12B6A002B45D022880C20911D45
:10EDA000414500D97EE0198805388B46052900D8F1
:10EDB00078E0C04E5E44B6B2B146BF4EB446B145EF
:10EDC00000D86FE05E88B246052E6BD9B94E694611
:10EDD000B146D1444E46CE81CE89664562D9B74E02
:10EDE000B34503D0B24501D0D3455BD80521B95412
:10EDF00022880D31013292B22280B9542288013228
:10EE000092B222801988BA181170090A51702288AA
:10EE1000023292B222805988BB181970090A5970BF
:10EE20002388023323806E6A002E2CD0B28821887A
:10EE3000131D5B180C20434534D8931CFE2B31D88E
:10EE400003327A54FF22238801339BB22380FA5481
:10EE5000238801339BB223803288FB181A70120A70
:10EE60005A70238802339BB22380B288002A0AD0CA
:10EE7000B1680538002915D0F81806F0F0FD228891
:10EE8000B388D31823802C23EB5C002B00D0C1E087
:10EE90002B78002B00D004E1002003E0DA1C42456F
:10EEA00055D90C2007B03CBC90469946A246AB46CB
:10EEB000F0BD43460C20082BF4D904A8FFF766FEEA
:10EEC0000028EFD1082223880921FA54238813321D
:10EED00001339BB22380FA5402AB9C462088153A3A
:10EEE000013080B220806144381806F0B8FD2388D4
:10EEF00002AA0633127A9BB22380002A00D0012294
:10EF0000FA54238801339BB2238017E704330C2083
:10EF10004345C7D804A8FFF73DFE0028C2D103220D
:10EF20002388FA542388163201339BB22380FA5483
:10EF3000238802AA01339BB212892380FB181A701E
:10EF4000120A5A70238802339BB22380FAE6022207
:10EF5000FA542388013A01339BB22380FA54238860
:10EF600001339BB22380F954238801339BB2238061
:10EF7000ECE62E1C4346083601930094301C022117
:10EF800002223B1CFFF752FE002800D08AE74346CE
:10EF900000940193301C062110223B1CFFF746FE13
:10EFA000002800D07EE7EDE62E1C43461036019384
:10EFB0000094301C032102223B1CFFF737FE00287F
:10EFC00000D06FE7434600940193301C07211022C4
:10EFD0003B1CFFF72BFE002800D063E7D6E62E1C73
:10EFE0004346183601930094301C142102223B1C26
:10EFF000FFF71CFE002800D054E74346009401931D
:10F00000301C152110223B1CFFF710FE002800D0F9
:10F0100048E7BFE6AE6A002E4AD0B3880233FE2B23
:10F0200000D93EE7002291461632924616329346A8
:10F030002088524601333B54238801339BB22380FE
:10F04000FA54238801339BB223803288FB181A704C
:10F05000120A5A702088023080B22080B288002ABA
:10F060000AD0B168002923D0381806F0F8FC2088AF
:10F07000B388C01880B220804B460133DBB299467A
:10F080005B46EB5C4B4500D802E74B465E00AB6A43
:10F090004E449C46B6006644B3880233FE2BC8D962
:10F0A000FFE6281C391C221C4346FFF779FDF9E6D0
:10F0B0000720F7E67FF3FFFF7DF30000FFFF00006E
:10F0C000F0B54D4644465F4656461F23F0B497B010
:10F0D00002AA041C0D1CD381002800D10CE1C078C9
:10F0E000430700D4C9E0002302AA93812D33E35CD7
:10F0F000002B00D0C9E0A3780EAF002B00D01BE19D
:10F1000000230021032206AE02277754591C023344
:10F110009BB289B2013F7754F05493B202AA938113
:10F120006268002A0FD01078DA1C1F2A00D9E1E0AB
:10F1300002210A27F154591C02339BB289B2775439
:10F14000F05402AB9A812389002B00D05CE1238A22
:10F15000002B00D076E1238B002B00D096E1236AB0
:10F16000002B44D002AA92890C20911D8B461F29A6
:10F1700000D983E01888824657460720052F00D81B
:10F180007CE0BF4F6946BC46D4446746CF81CF89F7
:10F19000BC46BC4FB846BC4570D95F88BC46052FFD
:10F1A0006CD9B74F6744CF81BFB2474566D9B64FD8
:10F1B000BA4503D0BC4501D0E2455FD805201227EF
:10F1C000B054501C80B23754901C80B202AFB8814A
:10F1D0001F88301807703F0A47705888131D5A4619
:10F1E0009BB2F3181870000A587002AB9A81676AD4
:10F1F000002F31D0BB88991C02AB9B899A1C5018F8
:10F200008046914642460C201F2A37D8FE2935D821
:10F210000131F154591C89B2F33070544A466946A1
:10F22000CA81CA8902A98A813988B2180433117047
:10F2300098B2090A02AB51709881BA88002A0BD0A3
:10F24000B968002919D0301806F009FC02ABBA8859
:10F250009B89D31802AA93812C23E15C002900D05A
:10F2600089E02378002B4AD0201C311C05AA1F23DB
:10F27000FFF796FC002842D000E0072017B03CBC06
:10F2800090469946A246AB46F0BD0EAF381CFFF73C
:10F290007DFC0028F2D1082202AB9B8906AEF25415
:10F2A0005A1C023398B21B2102AB9C4692B2B15455
:10F2B0001631988161440622301806F0D0FB02AB6B
:10F2C0009B8902A99A1D92B28A813978002900D0BF
:10F2D00001210733B1549BB202AA9381A278002A7C
:10F2E00026D1E078002800D11AE7DA1C191C1F2A61
:10F2F00000D809E70C20C1E7002602AB9881002D59
:10F3000034D0EB78002BB8D102AA94460E23634484
:10F31000281C0EA91A1CFFF7FDFC0028AED102AB79
:10F320009B7B0EAA02A9097B301CFFF731FCA5E7E5
:10F3300004330C201F2BA1D8381CFFF72BFC00280E
:10F340009CD10322192102AB9B8906AEF2545A1CB0
:10F3500092B2B1549A1C398892B2B2181170043327
:10F36000090A51709BB202AA9381BAE702ABDD8110
:10F3700000220023D6E7A76A002F00D17DE7BB88D3
:10F380000233FE2BB6D802AA90890022904616328C
:10F390009146163292460AE043465F00A36A47440C
:10F3A0009C46BF006744BB880233FE2BA2D84A4666
:10F3B00001333354431C9BB2F254831C9BB202AA08
:10F3C00093813A88F3181A700430120A5A7080B286
:10F3D00002AB9881BA88002A0FD0B968002900D101
:10F3E0004BE7301806F03BFB02AB9B89B888C0188E
:10F3F00080B202AB98815346E15C43460133DBB2F5
:10F4000098468B42C8D32CE705AB271C00931F23DB
:10F41000083798460193381C02210222331CFFF75B
:10F4200005FC002800D029E705AB00934346381CB3
:10F43000019306211022331CFFF7F8FB002800D0AF
:10F440001CE784E605AB271C00931F231037984662
:10F450000193381C03210222331CFFF7E7FB00282D
:10F4600000D00BE705AB00934346381C01930721FE
:10F470001022331CFFF7DAFB002800D0FEE66AE614
:10F480007FF3FFFF7DF30000FFFF000005AB271CAB
:10F4900000931F23183798460193381C1421022229
:10F4A000331CFFF7C3FB002800D0E7E605AB009351
:10F4B0004346381C019315211022331CFFF7B6FB7D
:10F4C000002800D0DAE64AE673DF7047F0B58C4CCE
:10F4D00087B0071C0021201C0722FBF799FE894DED
:10F4E0006B78002B3DD1AB78874E002B4DD16378E4
:10F4F000002B6AD1A378002B67D1E378002B64D16D
:10F500002379002B61D16379002B5ED1A3795A1E38
:10F510009341DBB2022F50D03DD9032F43D0042FAB
:10F5200055D12A790423002A45D03370774B1B68C4
:10F53000002B03D02A78002A00D0CEE00022744BA2
:10F540001A70182268460021FBF762FE00236A4603
:10F55000137013723378042B62D86E4A9B00D35811
:10F560009F46694E3378012B04D0AA78002ABED07A
:10F57000022BBCD1654B1B68002B00D1B8E00121E8
:10F58000654A082011709847B1E73378012BF1D014
:10F59000022BACD1EEE7012F19D16A78002A0CD0EA
:10F5A000002B00D0A7E0EA780323002ABDD12A79F6
:10F5B0000423002AB9D13270C0E7AA78002AF2D019
:10F5C0000222002BEFD03270B8E70123A2E700221D
:10F5D0003270B3E76B462A8A1A82AA8A5A822B783B
:10F5E000002B00D171E04D4B1B78002B00D06CE05C
:10F5F0004B4B1A79002A02D11A7B002A65D003935B
:10F600006A4602234748137200210233C370FFF792
:10F6100057FD002800D071E00522434B1A70337863
:10F62000002B13D1394B1B68002B18D1002007B0D9
:10F63000F0BD02223C4B01941A7001236A461370FC
:10F640006B46AA895A826A46AB6813826846FFF7FE
:10F650003BFF0028EBD12D4B1B68002BE6D0324A34
:10F6600010789847E2E700222F4B1A70F3E76B46B9
:10F670002A8B1A82AA8B5A822B78002B29D0274BEF
:10F680001B78002B25D1264B1A79002A02D11A7B30
:10F69000002A1ED003936A460223224813720021D7
:10F6A0000233C370FFF70CFD002827D106221E4B42
:10F6B0001A703378B4E701231B4A019413706A4629
:10F6C0001370002353821382C0E70322164B1A7073
:10F6D000BCE70422144B1A70B8E7104A1278002ACB
:10F6E00000D02BE701210A4A07201170984728E72C
:10F6F000094A1370FBE6012232701FE733788FE767
:10F70000942500209C250020BC2600206825002090
:10F7100080260020785C0200BD2600208F25002076
:10F720005820002020250020CC260020F8B5051CFC
:10F730000E20002D00D1AEE0002A00D1ABE00F1C5E
:10F7400055490D3808700020544908705448011C70
:10F7500051CA51C151CA51C111CA11C1514A0021E6
:10F760001360514B069A51481A600122504B524285
:10F770001A800832FBF74CFD4E4E00213C22301C13
:10F78000FBF746FD2B782A1C3370AB781032B37030
:10F79000EB78F3706B787370331C103303CA03C3B8
:10F7A000331C103A083303CA03C3331C083218331E
:10F7B00003CA03C36B6A002B11D03F4B3F4C7362EB
:10F7C000696A9C600A881A8088889880002806D018
:10F7D00000238A68D25CE25401339842F9D1AB6AC3
:10F7E000002B14D0364B3748B362A96A98608C88D6
:10F7F0009C800A881A800023002C05D08A68D25C7D
:10F80000C2540133A342F9D12C23EA5CF2542B6A8F
:10F81000002B06D02C4B33622A6A518859801288FB
:10F820001A806B68002B00D073602849284B0A6847
:10F83000D81D13600A685060181C0E309060181CA8
:10F840001530D060181C1C301061181C233050611A
:10F85000181C3133D3611F4B2A309061181C8A6801
:10F86000103013608A685060181C8A6820309060DD
:10F870008A68191C3031D160191C40311161191C82
:10F8800050315161191C703360319161D361301C6A
:10F89000391CFFF715FCF8BDBE260020BC26002051
:10F8A0009C2500206825002090250020942500201C
:10F8B00082260020202500205C25002070250020C5
:10F8C000C0260020E0250020DC2500205820002054
:10F8D000842600200026002010B50D4B041C1B7848
:10F8E00082B00820002B01D102B010BD094B01A845
:10F8F0001C70FDF715FE019B002B04D00122064B66
:10F9000000201A70F0E7201CFFF7E0FDECE7C0468E
:10F91000BE260020BC2600206C25002030B50388C0
:10F9200083B0112B1CD01B2B0AD0102B01D003B09D
:10F9300030BD837D8288012BF9D1224B1A80F6E7F6
:10F94000037A002BF3D1204B204C1B78227808201F
:10F95000002B1FD11E4B1B68002BE8D09847E6E711
:10F9600000211C4A83881170164A12889A42DED1FF
:10F97000154B08201B78002BECD00122134B01A85B
:10F980001A70FDF7CDFD019B002B15D00122124B03
:10F990001A70CCE7501C052106F046F801A8CDB23C
:10F9A0002570FDF7BDFD019B002BEFD1281CFFF753
:10F9B0008DFD0028BBD0CDE70120FFF787FD002893
:10F9C000B5D0C7E782260020BE260020BC26002036
:10F9D000902500208F2500206C25002030B50238AE
:10F9E00083B0012803D8124C2378002B01D103B037
:10F9F00030BD002323700F4B08201D780E4B1B7861
:10FA0000002B05D10D4B1B68002BF0D09847EEE77B
:10FA100001A8FDF785FD019B002B02D00123237077
:10FA2000E5E7281CFFF752FD0028E0D0EAE7C046D2
:10FA30006C250020BC260020BE260020902500203A
:10FA400075DF704776DF70477ADF70477BDF70477E
:10FA500010B5184B82B01888174B984214D0174A2B
:10FA6000174C13780133DBB21370217B99420DD20E
:10FA700000231370237C002B12D16369002B03D069
:10FA8000002201A80270984702B010BD0D49FFF78F
:10FA9000D7FF0028F8D0A369002BF5D09847F3E7EB
:10FAA0003B21FFF7CFFF0028E7D0A369002BE4D06C
:10FAB0009847E2E73C270020FFFF0000FC260020DB
:10FAC000002700204027002030B51B4B1B4A5B88D5
:10FAD000118883B099420FD852889A420CD3184BA0
:10FAE0005B69002B03D0012201A802709847154CD6
:10FAF0000023237003B030BD124C2378002B08D0B4
:10FB00000F4B5B69002BF3D0002201A802709847CD
:10FB1000EEE70D4B0A4D1B78002B0BD0A9680B4864
:10FB20000022FBF77DFE0028E2D0AB69002BDFD07E
:10FB30009847DDE76968F2E7F426002040270020B7
:10FB400000270020F0260020FC2600201C27002093
:10FB5000164938B5021C0B1C32CA32C332CA32C332
:10FB600012681A600022124B01681A70002916D020
:10FB7000104C0832201C05F072FF201CFFF764FFB8
:10FB800000280BD101220C4B52421A8000220B4B51
:10FB90000B481A7000210B4AFBF728FE38BD0548B8
:10FBA000FFF754FF0028EDD0F8E7C04600270020FB
:10FBB000F0260020402700203C270020FC260020C3
:10FBC0008C5C020051FA010010B50388112B33D070
:10FBD00021D9122B18D0502B1CD1204CC288E3897C
:10FBE0009A4217D1038A022B14D1123000F04AF93D
:10FBF00000280DD11A48FBF775FE00280AD0A3692A
:10FC0000002B07D0984705E0164B083006C806C3FE
:10FC1000FFF75AFF10BD102BFCD18288124B183011
:10FC20001A80104B06C806C30022104B1A700B4BEB
:10FC3000DB89002BEED1EBE701220B4B52421A80FD
:10FC400000220A4B06481A70FBF74CFE0028E1D050
:10FC5000024B9B69002BDDD09847DBE70027002093
:10FC60001C270020F42600203C270020FC26002032
:10FC7000F0B55F4656464D464446F0B4038889B019
:10FC8000071C112B00D16CE01A2B50D0102B06D082
:10FC900009B03CBC90469946A246AB46F0BD374EF3
:10FCA00003A8331D9846327D737D41469A43FDF784
:10FCB00057FF039B03AC99460025002B10D014235B
:10FCC0009B4600239A46B3445246A388404600927E
:10FCD00059461D220135FDF7F9FD02344D45F3D19A
:10FCE000307DBC88C043C0B2FDF786FD244B9842EE
:10FCF0003FD0311C4000351D30188480221C281C48
:10FD000015310123FDF7A4FD311C281C221C1431E0
:10FD10000123FDF79DFDBB7D311C023B5842434151
:10FD20001631BA88DBB2281CFDF792FDB0E71F231D
:10FD30003C7A124EA3429B41311C5B42301DBA8873
:10FD40001731DBB2FDF784FD2F233C7A311CA3422F
:10FD50009B415B42301D1831BA88DBB2FDF778FD5C
:10FD600096E70649BA88081D00231531FDF770FD96
:10FD70008EE70420FBF756FA8AE7C04648270020A2
:10FD8000FFFF000070B5051C094C2A1C261D217DB3
:10FD9000301CFDF7B3FE031C0020002B07D0A17D13
:10FDA000301C2A1CFDF7AAFE431E9841013070BD8D
:10FDB0004827002008B5034B021CD97D181DFDF70C
:10FDC0009DFE08BD4827002008B5034B021C197E84
:10FDD000181DFDF793FE08BD4827002010B5041C30
:10FDE000034B191D1A7DFDF7BBFE201C10BDC0463C
:10FDF0004827002030B5094D00232968012402E07E
:10FE00000133182B07D0221C9A40D8B21142F7D1E7
:10FE10000A432A6030BD1820FCE7C046482700206E
:10FE200038B501238B40064C021C256800201D427A
:10FE300004D06118201D497EFDF760FE38BDC04624
:10FE40004827002038B501248C40064D2B682342FA
:10FE500006D06918131C1931021C281DFDF7F8FC87
:10FE600038BDC046482700200123834010B504490F
:10FE7000021C0C6800201C4201D08A18507E10BD64
:10FE80004827002001230078184070470B78037042
:10FE90004B7843700220704738B5041C081C0D1CB9
:10FEA00005F0FAFD6560208038BDC04670B584B0AD
:10FEB000051C00F0EFFA041E112C32D0112816D8C0
:10FEC00000282BD00C2818D1072301ACA580281CB2
:10FED000237000F02BFE6080201C03F097FB0022B3
:10FEE000114B281C1978FFF7ADFF04B070BD8628B0
:10FEF00011D00E4B00229842F2D0092301AE281CEB
:10FF0000337000F013FE7080301CB580B46003F0D5
:10FF10007DFB0022E4E701AC0823D7E701AC012315
:10FF2000D4E70122DCE7C0467F2700200230000032
:10FF300070B584B0041C00F0FDFA051E0B2D2CD00A
:10FF40000B281BD90122112803D0154B00229842FF
:10FF500006D1144B201C1978FFF774FF04B070BD54
:10FF6000092301AE201C337000F0E0FD7080301CCE
:10FF7000B480B56003F04AFB0022EAE70028EFD125
:10FF8000022301AD201C2B7000F0D0FDAC806880F6
:10FF9000281C03F03BFB0022DBE701AD0323F1E764
:10FFA0000230000080270020F0B557464E464546F7
:10FFB000E0B43F4F88B03878FFF756FF002805D1EE
:10FFC00008B01CBC90469946A246F0BD03A8FFF7B6
:10FFD00005FF039B03AC98460025002BF0D0354B62
:10FFE000994603E0013502344545E9D0A6883978C1
:10FFF000301CFFF715FF0028F4D04B46301C197851
:020000022000DC
:10000000FFF70EFF0028EDD1301C00F011FB08288F
:1000100027D022D9284B98422FD0284B984229D05C
:1000200011282AD06A4609230290301C137096804A
:1000300000F07CFD6B465880684603F0E7FA002329
:1000400001229A463978301CFFF7FCFE4B46301CE3
:1000500019785246FFF7F6FEC4E7002811D00628AB
:10006000E0D1301C00F062FD00F0FAFA002300221B
:100070009A46E7E7124B9E4213D1002301229A468B
:10008000E0E76A460523301C137000F04FFD6B4615
:10009000588068469E8003F0B9FA012301229A46EF
:1000A000D0E7301CFFF744FF002301229A46C9E73E
:1000B0007C2700207E270020023000000134000051
:1000C000FFFF000010B584B0041C6B464088D88048
:1000D0002378012B16D0002B06D0022B02D12379D6
:1000E000002B17D104B010BD6A4601A8137103F0AC
:1000F0008DFA608800F044FE0D4B9842F2D0FFF775
:1001000017FFEFE76A461371A38801A8138103F074
:100110007DFAE7E700F034FE054B9842E2D0054B4C
:1001200001221978FFF78EFEFFF73EFFDAE7C0469F
:10013000FFFF00007C27002010B50378012B0BD1B6
:10014000041C094B4088984202D0FFF7F1FE6088FA
:1001500000F05EFA002800D110BD044B60881978C9
:100160000122FFF76FFEF7E7FFFF00007C2700206A
:1001700070B5047884B0072C01D004B070BD4588F8
:10018000281C00F087F9061E112E2AD0112814D839
:10019000002828D00C2816D101AE281C3470B58058
:1001A00000F0C4FC7080301C03F030FA0022164BC3
:1001B000281C1978FFF746FEDFE7862820D0134B6E
:1001C00000229842F3D0092301AC281C237000F0D0
:1001D000ADFC6080201CA580A66003F017FA002209
:1001E000E5E70122E3E7012301ACA580281C237089
:1001F00000F09CFC6080201C03F008FA0022D6E787
:1002000001AC0823F1E7C0467F2700200230000040
:10021000F8B50023114F3B70FFF7ECFD104C207038
:10022000FFF7E8FD0F4D2870FFF7E4FD0E4E30702C
:10023000FFF7E0FD0D4A031C107022780320182AF6
:100240000AD02A78182A07D03278182A04D0182B16
:1002500002D0012300203B70F8BDC0467D2700205E
:100260007F270020802700207C2700207E27002079
:10027000F0B54F464646C0B4038889B0041C522BE3
:1002800000D170E0542B57D0502B12D03A4F387811
:10029000FFF7EAFD002833D1384F3878FFF7E4FD47
:1002A000002814D1FFF780FE09B00CBC9046994697
:1002B000F0BD037B0189827A012BE7D1012AE5D1C8
:1002C0002F4B9942E2D18088FFF7F0FDDEE703A8CB
:1002D000FFF784FD039B03AC98460025002B04D157
:1002E000E0E7013502344545DCD0A6883978301C7A
:1002F000FFF796FD0028F4D0301CFFF7D7FDF0E79C
:1003000003A8FFF76BFD039B03AC98460025002B69
:10031000C2D01C4B9946A6883978301CFFF780FD67
:10032000002804D04E4502D0301CFFF701FE0135F5
:1003300002344545EFD1AFE76A4606231370808843
:1003400000F0F4FB6B466A465880A388938000F067
:1003500087F90D4BA08819780022FFF773FD6846D6
:1003600003F054F992E78088064B984200D18DE75C
:10037000FFF7DEFD8AE7C046802700207F270020A8
:1003800002290000FFFF00007C270020F0B547464F
:1003900080B486B000F018F901A8FFF71FFD019E98
:1003A0000024002E1BD0114B114F984603E001345E
:1003B000A4B2A64213D901AA9446630063449D885F
:1003C000281C00F0B3FBB842F1D143460134197840
:1003D000281C0122A4B2FFF735FDA642EBD8FFF797
:1003E000E3FD06B004BC9046F0BDC0467C2700206B
:1003F000FFFF0000A7DF7047A9DF7047AADF704743
:10040000F0B5037885B0041C012B19D0174C184D9A
:100410002088A84212D002AE321C164B82CB82C278
:1004200005E011280AD0181C02F05AFE2080311C69
:10043000002202F05DFE2388AB42F2D105B0F0BD90
:100440000379012BE2D14088012102AA01F0D8FEF4
:100450000028DBD16A460223137063886846538004
:10046000039B1B781371FFF72DFECFE78227002037
:10047000FFFF0000905C02000122044B52421A80F0
:10048000034B023200201A707047C04682270020BA
:1004900081270020F0B583B0061C00F047FB234BFA
:1004A000051E9D423FD00124281C0821221C6B46BA
:1004B000032701F0ABFE00282AD1019A301C1760F7
:1004C000911D03230432FFF799FF002825D00C2843
:1004D00010D0421F531E9A4153421840041C082159
:1004E000281C02F0A7F9002802D1201C03B0F0BD9F
:1004F0000324FAE701340821A4B2281C02F09AF977
:10050000281C0821221C6B4601F080FE0028D4D054
:100510000C240728E9D0041CE7E7281C082102F076
:1005200041FC041CE1E70248E0E7C046FFFF000091
:1005300002300000F0B546464F46C0B483B0061CFA
:1005400000F0F4FA1F4B984205D008216A4601F0EA
:1005500057FE00282CD003240027002501239846AD
:1005600001339946301C291C3A1C231CFFF744FF19
:1005700004280CD008280CD00B280CD04346002BA4
:1005800000D10B2003B00CBC90469946F0BD112061
:10059000F4E70020F2E74B46234207D1002D0CD0B0
:1005A00003240027002500239846DBE70124FAE70F
:1005B000019B9D1D9F881C68D0E7002FE2D003247B
:1005C0000027F0E7FFFF0000F0B50E4E83B0301CAF
:1005D00002F086FD6A460C4C0C4B20806D4682CBA7
:1005E00082C205E011280AD0181C02F079FD208093
:1005F000291C002202F07CFD2388B342F2D103B013
:10060000F0BDC046FFFF000082270020905C020082
:1006100000B583B000F08AFA01216A4601F0F0FDCE
:100620000023002801D1019B1B78181C03B000BDDA
:10063000F8B5061C074F084D3C88211C301C074AA2
:10064000FFF7D8FE0134A4B2A84200D0F8BD3C8028
:10065000F3E7C0468427002003300000FFFF0000BE
:1006600030B583B06A46054B6946083330CB30C29B
:10067000002202F03DFD03B030BDC046905C020098
:1006800071DF70474DDF7047F0B557464E4645461F
:10069000E0B403889EB0102B05D01EB01CBC904661
:1006A0009946A246F0BD07AC231C043026C826C3D9
:1006B00026C826C326C826C306C806C32379032B2B
:1006C00000D194E000F0D8FD2379012B00D8DFE0C1
:1006D000022B00D0D4E06B4605AD9F1D0720391CCE
:1006E0002A1C00F0D3FD002800D180E06B689846FA
:1006F0002379022BF2D11F336B44191C032202A869
:1007000005F0ADF909A9032204A805F0A8F94346AC
:100710001B7C12AE33704346DB7B00217370434673
:100720009B7B0D22B37043465B7B16A8F370434658
:100730001B7B33714346DB7A737143469B7AB371FB
:1007400043465B7AF37143461B7A33724346DB7947
:10075000737243469B79B37243465B79F3724346A7
:100760001B7933734346DB78737343469B78B373CB
:1007700043465B78F373FAF74BFD6B461B7C301CEA
:10078000F3776B465B7CB3776B469B7C7377FFF7A5
:1007900079FF2F23F35C03A90B702E23F35C02A8CF
:1007A0004B702D23F35C03228B7005F049F9002870
:1007B00094D13B8825889846674B9D421DD1664B56
:1007C000984500D169E72588644B281C1978FFF704
:1007D00027FB002831D1238812AD6B800123281C10
:1007E0002B7002F061FF281CFFF7A6FC55E75A4B5F
:1007F000258898469D4200D14FE7584B281C9946C2
:1008000019780122FFF71EFB4B46281C1978FFF7C9
:1008100007FB534F002857D1BA4600265346588845
:100820004B461978FFF7FCFA002869D00C239C4648
:100830000136E244082EF1D1C1E7494F7B88AB4233
:1008400000D16FE0FB89AB426ED07B8BAB426DD0A9
:10085000FB8CAB421AD07B8EAB426BD0FB8FAB4292
:100860006CD04A23FB5AAB426AD05623FB5AAB42A8
:10087000B1D107235A00D31842469B00FA52AAE787
:10088000354B258898469D42B7D106E70323F1E70B
:100890006B4605AD9F1D0720391C2A1C00F0F6FC95
:1008A0000028A4D069680B1C1133F4D022794B7C4A
:1008B0009A42F0D121236B441231181C062205F014
:1008C000BFF80028E7D174E77B88AB4230D0FB89C2
:1008D000AB4231D07B8BAB4234D0FB8CAB4233D0BC
:1008E0007B8EAB4232D0FB8FAB4231D04A23FB5AD6
:1008F000AB422FD05623FB5A0726AB4200D08BE7E2
:100900000121F6B273009B199B00FA184942F95273
:100910005580089808A95060131D8A889A808A79A2
:100920009A714CE70023A5E70123A3E70223A1E77F
:100930000026E5E704239DE70126E1E7052399E783
:10094000062397E70226DBE70326D9E70426D7E745
:100950000526D5E70626D3E7FFFF0000EF27002096
:1009600088270020F0B5474680B4037888B0002B74
:1009700002D10379072B03D008B004BC9046F0BD28
:10098000041C0721408802AA01F03AFC0028F3D198
:1009900000F072FC6B469D1D0720291C04AA00F084
:1009A00075FC0028E8D062882B889A42F4D0039E18
:1009B000059F7378701C002B2CD14378002B29D114
:1009C0008378002B26D1C378002B23D10379002B09
:1009D00020D14379002B1DD18379002B1AD1C37903
:1009E000002B17D1037A002B14D1437A002B11D19D
:1009F000837A002B0ED1C37A002B0BD1037B002B03
:100A000008D1437B002B05D1837B002B02D1C37B14
:100A1000002BC1D0791C102205F012F83B1C804637
:100A2000113303D0727C7B7C9A422DD04346002B3D
:100A3000B2D1274A63881188994244D0918999425A
:100A40003FD0118B99423AD0918C994235D0118E7A
:100A5000994230D0918F99422BD04821515A9942D6
:100A600020D05421515A99422FD01A4A06AC6280A4
:100A70000022A3802B88201C2270E38002F014FE49
:100A8000201CFFF759FB77E7301C391C123012315C
:100A9000062204F0D5FF4346002BCAD0002800D020
:100AA0007AE7C6E7062148004118890052185288A3
:100AB000DCE70521F7E70421F5E70321F3E702214D
:100AC000F1E70121EFE70021EDE70721EBE7C04661
