:1000000000800020F90B0000390C00003B0C0000C0
:1000100000000000000000000000000000000000E0
:100020000000000000000000000000003D0C000087
:1000300000000000000000003F0C0000410C000028
:10004000430C0000430C000081090000430C000039
:10005000430C0000000000008D040000430C000071
:10006000CD080000430C0000430C0000430C0000CE
:10007000430C0000430C0000430C0000430C000044
:10008000430C0000430C0000430C0000430C000034
:10009000430C0000430C0000430C0000430C000024
:1000A000430C0000430C00000000000000000000B2
:1000B0000000000000000000000000000000000040
:1000C00010B5064C2378002B07D1054B002B02D02E
:1000D000044800E000BF0123237010BD740000201D
:1000E00000000000700D000008B5084B002B03D085
:1000F0000748084900E000BF07480368002B00D10B
:1001000008BD064B002BFBD09847F9E70000000024
:10011000700D00007800002070000020000000003A
:10012000164B002B00D1144B9D46402292029A1A86
:10013000924600218B460F461348144A121A00F0CB
:1001400067F80F4B002B00D098470E4B002B00D0C8
:1001500098470020002104000D000D48002802D01F
:100160000C4800E000BF00F02DF82000290000F04E
:10017000D5FC00F011F8C046000008000080002007
:10018000000000000000000074000020FC000020BF
:100190000000000000000000084B10B5041C002BFC
:1001A00002D0002100E000BF054B1868836A002BD5
:1001B00000D09847201C00F033F8C0460000000033
:1001C000600D00000E4B70B500251E1C0D4CE41A8E
:1001D000A410A54204D0AB00F35898470135F8E7C6
:1001E00000F0B0FD084B00251E1C084CE41AA410BA
:1001F000A54204D0AB00F35898470135F8E770BD2D
:100200006800002068000020680000206C000020CA
:10021000031C8218934202D019700133FAE7704729
:10022000FEE7C046002300B585B001AA906000211A
:1002300003481380536000F005F805B000BDC046C8
:1002400001400000BFF34F8F034A044BDA60BFF355
:100250004F8FC046FDE7C0460400FA0500ED00E000
:1002600072B6024A13680133136070479000002091
:10027000034A1368013B1360002B00D162B670473C
:1002800090000020F0B5002820DBFF271B4B032245
:100290009C463B1C8408C026C0B20240D20093405A
:1002A000A4006444B600A5599D438B013B40934094
:1002B000191C2943A1511F2318401E3B8340C02213
:1002C000181C0E4B520098501860F0BDFF260C4AC7
:1002D00003249446321C0F23C0B20440E400A24021
:1002E0000340083B9B089B006344DD6995438A01FA
:1002F0003240A240111C2943D961DCE700E100E053
:1003000000ED00E070B53525134C0820665D002E29
:1003100000D070BD012334225B426361A361E361BD
:1003200023626362A362E362236302380321A3545E
:1003300023606360A360E3602361FFF7A3FF074BC3
:1003400080211E60C123064A9B000906D15001236B
:1003500000206355DDE7C046940000207C6100402A
:1003600000600040F0B514252F4A031C141865578F
:100370000820013500D0F0BD8878002833D01068FF
:1003800001304BD0506801304AD09068013049D0DC
:10039000D468042003260134EDD1D018067500205E
:1003A000A227B6009051214AFF00B218D659204D1D
:1003B0000C78354080264878D551D559760300050C
:1003C000AC4630402504C0262C1CB60234402043E5
:1003D000F824051C640118020440281C20436446CC
:1003E0002043D05101E0FE2222754A78012A0ED026
:1003F0000122A0209A400F49C0054250A0220321AB
:10040000C133FF339B00D20599500020B3E7A121EF
:10041000A0209A40C900C0054250EFE70026BCE783
:100420000126BAE70226B8E79400002000600040E9
:10043000FFE0ECFF0C0500000A4B10B51818142360
:10044000094AA2219446C35603209B006344C90075
:100450005A58064C104322435A50C046C046C04624
:10046000585010BD9400002000600040031F0000A1
:10047000044B1818044B007D9C4640B28000C0B26B
:10048000604470479400002000600040F0B54D4685
:100490005F46564644460023F0B4754A85B0019342
:1004A00013680025012B00D1CDE0724B1A68012A98
:1004B00000D1BCE0704B1A68012A00D1ABE06F4B51
:1004C0001A68012A00D19AE06D4B1A68012A00D1FE
:1004D00089E02B071DD06B4BA2279846F8235B01C0
:1004E000012600249946FF0035420ED0664AA3003B
:1004F0009A18D059D1594246D358002B05D04A46B4
:1005000089031040000A890F984701347600042CB3
:10051000EAD1002D06DB05B03CBC90469946A246C8
:10052000AB46F0BD002334250293564C013B0393A8
:10053000615D4BB20133EED0C9B2C023081C012269
:100540009843B93B0B409A40131CC60803AA925D1E
:100550001342E0D02218127D890952B29200A258AB
:100560009046002A79D003297AD0A027FF05B94602
:1005700082009144E0224F46D200BA58C027BF0201
:100580003A40BA4601AFBE5D120C334222D1032A73
:10059000C1D1032922D18026B602E0234A46DB00DE
:1005A000D2583A4911404A46D1504946D25832436E
:1005B000CA504346002B01D00321C047A223A022EA
:1005C000DB00D205D358019A9342A4D00193029B39
:1005D0000393ADE7022A9ED1032947D04346002B5F
:1005E00099D0C04797E700221A6080231B061D435D
:1005F000A022A223D205DB00D358019369E7C122D0
:1006000021499200895808220A4200D15CE7002162
:100610001543196058E7C1221B49920089580422EA
:100620000A4200D14BE700211543196047E7C12278
:1006300015499200895802220A4200D13AE7002166
:100640001543196036E7C1210F48890041580B4214
:1006500000D12AE71560013527E7032900D05AE7C2
:1006600002AA921917781F4317707EE7564694E73F
:100670000061004004610040086100400C610040DE
:100680007C6100409400002000600040FFFFFCFF00
:10069000044B85201A78002A00D0704701321A7066
:1006A0000020FAE7CC000020F8B54F464646154B2F
:1006B000C0B48146144D00240127984607E000206D
:1006C0000134FFF7D5FDB543E4B2002D14D03E1C34
:1006D000A6400020FFF7C4FD3542F0D043461B681A
:1006E0003342ECD11E4343461E604B4600201C7033
:1006F000FFF7BEFD002000E004200CBC90469946A8
:10070000F8BDC046D0000020FFFF000030B5002932
:1007100018D0002A16D00123834007241D0401D1DC
:10072000201C30BD084C256808241D42F8D0074B1A
:10073000C0009C46A2236044DB00C150044B00244F
:10074000C250EDE70E24EBE7D000002000F001409E
:10075000140500000123F0228340120307201342F6
:1007600000D070471A0404D0044A013012681A42BB
:10077000F7D0034A034900208B50F2E7D000002055
:100780000405000000F00140344BF0B557469A468E
:1007900045464E4690465246E0B404790827660026
:1007A00033199B00D218157A002D05D0381C1CBCBB
:1007B00090469946A246F0BD4546002D4BD057467F
:1007C000DD514B680027536042790023002A0BD08B
:1007D00005689A00AC464132FF326244176001332B
:1007E0004279DBB29A42F3D8804603680F1C180B9B
:1007F00040B2C978FFF746FD434601221B681849FD
:1008000078785B581040934303434046006834199E
:1008100043500320814643464D461B6804315B58D4
:10082000B878AB432840034340460068A4004350D7
:100830000F2143468846A2201B6845469C46C000BF
:1008400039781B582940AB430B43614654440B5045
:1008500022720027AAE70727A8E7C046D400002095
:1008600004050000012203681A6003795A00D318B6
:10087000024A9B00D31802221A727047D40000204B
:10088000F0B5022605AC27788024FF368E40056837
:10089000A4002D59B54306683551066835592B43D8
:1008A000335180235B028B40002F09D1C22405689D
:1008B000A4002B5151310368FF318900CA50F0BDAB
:1008C00005340568FF342B51F4E7C04608B5264BC4
:1008D0001A68002A05D0C122244992008A58D203FE
:1008E00027D4234B1A68002A05D0C1221F49920041
:1008F0008A58920326D41F4B1A68002A05D0C122B9
:100900001A4992008A58520325D41B4B1A68002AB0
:1009100005D0C122154992008A58120300D408BD9F
:100920000022A6201A60154B400059681B689847A2
:10093000F5E70022A0201A60104B400059681B68A0
:100940009847CEE70022A2201A600C4B400059685D
:100950001B689847CFE70022A4201A60074B40008D
:1009600059681B689847D0E74081004000800040EC
:1009700044810040488100404C810040D400002068
:10098000C12310B5614A9B00D35884B09B054FD555
:1009900092235B00D15800294AD00021D1508121F7
:1009A000E5338900FF33D150594B997E002901D19D
:1009B00001315160022269460A7090215348C900F2
:1009C0004258425069460392DA7D68460A72DA68F4
:1009D000196801920022DA751A765B6898478E21B1
:1009E0004A4A49005358002B0FD0494B9C8A987DA6
:1009F00084424FD200205050998A9868405C998A6E
:100A0000013189B29982434BD050A2233F4A5B0007
:100A1000D15800290AD00021D1503D4B997E0029A0
:100A200001D001211160DA7D002A42D104B010BD4D
:100A3000C123364A9B00D3585B07D0D58421490097
:100A40005358002BCBD0324BD87D00283ED150508C
:100A5000A321C90052585A7E8242C0D11A7E002A70
:100A600042D19A7E002A02D10121284A5160812078
:100A7000C222264980009200885000226846012147
:100A8000DA755A7E01700272DA68196801925B6841
:100A90009847A4E7002454500028B6D06A46147042
:100AA00010729A689C75196801925B68684698474D
:100AB000ABE7002268460121DA755A7E01700272A6
:100AC000DA68196801925B689847AFE700205050D8
:100AD000A320C000597E1258D86842545A7ED87D4F
:100AE0000132D2B25A76B6E7DA751A69D968DA6095
:100AF00000226C46587E1A765A7601322072019195
:100B00002270196868465B68984768E700200040D3
:100B1000E00000201C0500007047C04670B586B09C
:100B2000FFF7B6FD002859D1FFF7ECFB002852D1A2
:100B30002C4C04A90B1C221C21CA21C32A4D2B4A70
:100B4000281CFFF721FE002842D10122211C284B3E
:100B500008311A6003A8023200F0EAF8152003A950
:100B6000FFF700FC002830D100230B240093281C41
:100B70000021204A01336C44FFF782FE201CFFF75E
:100B800093FD00281ED115202E68FFF771FC413619
:100B9000FF36021C311C2078FFF7B8FD00280ED16B
:100BA0002078FFF7D7FD002806D11520FFF744FC79
:100BB000281CFFF757FEFEE7FFF734FBF5E7FFF7CA
:100BC00031FBEDE7FFF72EFBDDE7FFF72BFBCBE774
:100BD000FFF728FBB9E7FFF725FBA9E7FFF722FBA3
:100BE000A2E7C046640D000060000020190B000061
:100BF0000C8C0040400D030003210A4802680A43A0
:100C00000260094802680A4302600849084A094B21
:100C10009B1A03DD043BC858D050FBDC00F012F8EF
:100C2000FFF77EFA24050040540500407C0D0000CB
:100C30000000002074000020FEE7FEE7FEE7FEE76C
:100C4000FEE7FEE7304B1B78012B00D070472F4B9F
:100C50001B681B07FAD1F0222D4B1B68134027D1CC
:100C60002C4B1B68134229D0284B1B681B07EDD166
:100C7000F022274B1B681340402B32D0244B1A68BC
:100C8000F0231340A02B01D0D02BDFD1214B1A68C9
:100C9000F0231A42DAD1204A1368012B04D01F4BEB
:100CA00013601368012BFCD1C0221D4B1A60CDE7E5
:100CB000102B0FD1174B1B681342D9D1194A1A4B6D
:100CC0001A608022194B12021A600F4B1B78012BFD
:100CD000CAD0BBE7302BCBD10E4B1B681342C7D118
:100CE000ECE70C4B1B681342C8D1C12380220121C1
:100CF000DB00D205D150044B1B78012BA6D1034B4E
:100D00001B681B07BAD0A1E7E00F00F0E40F00F06A
:100D1000E80F00F0EC0F00F000EC064075930000C7
:100D200014EC0640DFFF07C004050040186C0040CB
:100D3000002310B5934203D0CC5CC4540133F9E7CF
:100D400010BD0000F8B5C046F8BC08BC9E46704710
:100D5000F8B5C046F8BC08BC9E467047430000008A
:100D60000000002004000303000000000300010055
:040D7000000000007F
:080D7400ACF3FF7F0100000059
:100D7C000000000000000000000000000000000067
:100D8C000000000000000000000000000000000057
:100D9C005C0D0000000000000000000000000000DE
:100DAC000000000000000000000000000000000037
:100DBC000000000000000000000000000000000027
:100DCC000000000000000000000000000000000017
:100DDC000080004000040000E9000000C100000099
:040DEC000000000003
:0400000300000BF9F5
:00000001FF
