:020000021000EC
:10B0000000800020A9BA0100E9BA0100EBBA0100F2
:10B010000000000000000000000000000000000030
:10B02000000000000000000000000000EDBA010078
:10B030000000000000000000EFBA0100F1BA0100BA
:10B04000EDB70100F3BA010091B80100F3BA0100B5
:10B05000F3BA010000000000F3BA0100F3BA0100E6
:10B06000F3BA0100F3BA0100F3BA0100F3BA010028
:10B07000F3BA0100F3BA0100F3BA0100F3BA010018
:10B08000F3BA0100E5B20100F3BA0100F3BA01001E
:10B09000C1B30100F3BA0100B5BC0100F3BA01006D
:10B0A000F3BA0100F3BA0100000000000000000044
:10B0B0000000000000000000000000000000000090
:10B0C00010B5064C2378002B07D1054B002B02D07E
:10B0D000044800E000BF0123237010BD3814002095
:10B0E0000000000004BD010008B5084B002B03D090
:10B0F0000748084900E000BF07480368002B00D15B
:10B1000008BD064B002BFBD09847F9E70000000074
:10B1100004BD01003C140020341400200000000095
:10B12000164B002B00D1144B9D46402292029A1AD6
:10B13000924600218B460F461348144A121A00F01B
:10B1400067F80F4B002B00D098470E4B002B00D018
:10B1500098470020002104000D000D48002802D06F
:10B160000C4800E000BF00F02DF82000290000F09E
:10B170005BFC00F011F8C0460000080000800020D1
:10B18000000000000000000038140020BC14002063
:10B190000000000000000000084B10B5041C002B4C
:10B1A00002D0002100E000BF054B1868836A002B25
:10B1B00000D09847201C00F033F8C0460000000083
:10B1C00000BD01000E4B70B500251E1C0D4CE41A8D
:10B1D000A410A54204D0AB00F35898470135F8E716
:10B1E00000F080FD084B00251E1C084CE41AA4103A
:10B1F000A54204D0AB00F35898470135F8E770BD7D
:10B200002C1400202C1400202C14002030140020BA
:10B21000031C8218934202D019700133FAE7704779
:10B22000FEE7C046002300B585B001AA906000216A
:10B2300003481380536000F005F805B000BDC04618
:10B2400001400000BFF34F8F034A044BDA60BFF3A5
:10B250004F8FC046FDE7C0460400FA0500ED00E050
:10B2600080218023194A890230B5D1508023D22110
:10B270000124174A5B028900535040395350154B43
:10B28000546019682F2314481D1CC046C046C04690
:10B29000C046C046C046C046C046814200D0C046F7
:10B2A000013DF2D1946000220C4C2260C046C046A1
:10B2B000C046C046C046C046C046C046814200D0D7
:10B2C000C046013BF2D1064B1A7030BD00E100E0F0
:10B2D00000100140281400200024F4005414002021
:10B2E00074140020A021F0B5002347462B4A4900E2
:10B2F00080B45350043153500431535004315350EF
:10B300004C39535004315350254B1B68002B35D01A
:10B310002449002652582449244F0C68141B00224B
:10B320002402240A904602E0002D18D02B1C1A6833
:10B33000A24214D8A41AB6181A7CDD69002AF3D0E8
:10B34000424699691A745A693B68002B19D0101C3F
:10B3500098470028E8D0FFF765FF002DE6D1144B91
:10B3600014491A780B789A420ED0134A9B009E50CB
:10B3700080218023114A49035B00D15004BC9046D0
:10B38000F0BD081C9047CFE70132D3B2022B01D0A9
:10B390000B70EAE700230B70E7E7C046001001409E
:10B3A0005814002004050000541400205C140020F0
:10B3B00060140020611400206C14002000E100E003
:10B3C000F0B556465F464D464446F0B4924B934A1C
:10B3D0001B6893499A460978137887B0994200D13F
:10B3E000D2E10133DBB2022B00D1A1E113708D4A0F
:10B3F0009B009F585346FB181B02874A1B0A136089
:10B4000001230293884B00241978884B1B689946C6
:10B41000854BC8465B780193834B5B689C46824BA7
:10B4200065469E787C4BBC461B689B46804B1B78D0
:10B4300000934B46019A91421AD04A0052180131AA
:10B44000C9B2881B471EB841D2004042AA18014029
:10B450001078022800D1A8E00328EBD1002BE9D016
:10B460001C74DB69002BFBD1019A98469142E4D110
:10B4700041466E4A674611605946674A11606946FF
:10B480006B4A09781170029A002A00D059E14A46A5
:10B49000D21A511E8A4100251E1CD2B20592039376
:10B4A0005D4B00271B689846604B1B689B465E4BB4
:10B4B0005B689A465C4B9B7802935B4B1B789C467F
:10B4C0005B4B1B7804935B4B009301239946002D43
:10B4D00027D06968A8682C1CED694346CA1A009BEE
:10B4E0001202120A9A424DD813184A462360676026
:10B4F000A7602274E761002E53D03168301C994256
:10B5000004D37AE0116899427ED2101CC2695B1A9A
:10B51000002AF7D1E261321C2360C461161C002DA1
:10B52000D7D1019B9C4500D186E06246634601323B
:10B53000D2B25B00634494460299DB00521A511E5A
:10B540008A4161465242114053448C4619785C68E6
:10B55000321C0129E2D1217C0029DFD19968616088
:10B56000D868A0601A69E2605B69A361049B002B44
:10B57000B3D043460021CA1A009B12026560120A2A
:10B580009A42B1D94346591A0902090A81422AD27C
:10B590004A46431A23606760A7602274E761002E61
:10B5A000ABD1221CA346161CB9E75768002B00D16B
:10B5B000F1E0181C9F4201D1BCE0101CC269002AB6
:10B5C00000D137E79742F8D13A1E824200D1B1E06C
:10B5D0001768D269C261002A00D12BE71368DB1912
:10B5E0001360434626E74B4627606760A7602374D5
:10B5F000E761002ED5D000233168221CCB1A3360BE
:10B60000A346E661161C8AE7C91A1160E26123604D
:10B61000321CC46182E7C04654140020601400202C
:10B62000611400206C1400206414002058140020C1
:10B6300062140020FEFF7F006246624B1A705A4679
:10B64000614B1A60039BB34200D163E0002E00D12E
:10B650009EE05E4B5E495F4DC8585F4B34681A6888
:10B660002E78831A1B021B0A03339846002E21D121
:10B670008026D1277602BF00CE51403FCE51C02355
:10B680008027564EBF025B00F750376001260E60E0
:10B690005349544B0F682F21C046C046C046C04690
:10B6A000C046C046C046C0469F4200D0C046013991
:10B6B000F2D12E704346A34200D2231CA8249A182C
:10B6C00012024349130AE400404D0B514A591B1A18
:10B6D000121A1202120A1B0203321B0A9A421DD9C5
:10B6E0004B590B513E4B3F491A682F23C046C04669
:10B6F000C046C046C046C046C046C0468A4200D08A
:10B70000C046013BF2D180218023344A89025B008C
:10B71000D15003E0059B002B00D097E70023324A6D
:10B72000137007B03CBC90469946A246AB46F0BDAC
:10B7300000235BE6DF69002F38D0B8463B1C021CB3
:10B7400046E7414600250022002613E01868B8426B
:10B7500023D83F1A1218D8681E60DC69002807D069
:10B760005146DD611D1C51180902090A5960986093
:10B77000231C211C002BE9D1134B196000230393D8
:10B7800001330593039E8BE600230027029339E6DD
:10B79000FFF766FDC2E700234CE6C71B03931F605B
:10B7A0000123094A05931160039E79E60122084BA3
:10B7B00001379A600023009700279846021CBB4679
:10B7C00006E7C04664140020581400200405000059
:10B7D00000100140741400205414002000E100E027
:10B7E000281400200024F4006214002010B51B4B24
:10B7F0001A68002A1BD11A4B1A68002A00D110BD02
:10B8000000221A60C223802202219B00D205D1505F
:10B810000123144CA3702369002BF0D01A68012077
:10B8200022615B6898472369002BF7D1E7E7002284
:10B8300080211A60C22201230A4C9200C9058B5054
:10B840006370A368002BD6D01A680020A2605B68E2
:10B850009847A368002BF7D1CDE7C0460001004010
:10B86000040100407814002010B5002800D010BD5D
:10B87000064CA368002BFAD01A680020A2605B680F
:10B880009847A368002BF7D1F1E7C0467814002051
:10B89000C12310B5614A9B00D35884B09B054FD596
:10B8A00092235B00D15800294AD00021D150812138
:10B8B000E5338900FF33D150594B997E002901D1DE
:10B8C00001315160022269460A7090215348C90033
:10B8D0004258425069460392DA7D68460A72DA6835
:10B8E000196801920022DA751A765B6898478E21F2
:10B8F0004A4A49005358002B0FD0494B9C8A987DE7
:10B9000084424FD200205050998A9868405C998AAE
:10B91000013189B29982434BD050A2233F4A5B0048
:10B92000D15800290AD00021D1503D4B997E0029E1
:10B9300001D001211160DA7D002A42D104B010BD8E
:10B94000C123364A9B00D3585B07D0D584214900D8
:10B950005358002BCBD0324BD87D00283ED15050CD
:10B96000A321C90052585A7E8242C0D11A7E002AB1
:10B9700042D19A7E002A02D10121284A51608120B9
:10B98000C222264980009200885000226846012188
:10B99000DA755A7E01700272DA68196801925B6882
:10B9A0009847A4E7002454500028B6D06A46147083
:10B9B00010729A689C75196801925B68684698478E
:10B9C000ABE7002268460121DA755A7E01700272E7
:10B9D000DA68196801925B689847AFE70020505019
:10B9E000A320C000597E1258D86842545A7ED87D90
:10B9F0000132D2B25A76B6E7DA751A69D968DA60D6
:10BA000000226C46587E1A765A76013220720191D5
:10BA10002270196868465B68984768E70020004014
:10BA20008C1400201C050000A023EE210322F0B599
:10BA300080208024DB05C9005A5008315A5016492D
:10BA4000164AE40540055C5058501768144AA12571
:10BA50009446144EED005C50321C5850C046C0460F
:10BA6000C046C046C046C046C046C046674500D036
:10BA7000C046013AF2D15C51321C5851C046C04612
:10BA8000C046C046C046C046C046C046674500D016
:10BA9000C046013AF2D1DEE70C0500002814002070
:10BAA0000024F40020A1070003210A4802680A4389
:10BAB0000260094802680A4302600849084A094BC3
:10BAC0009B1A03DD043BC858D050FBDC00F012F891
:10BAD000FFF726FB240500405405004010BD01007F
:10BAE000C813002038140020FEE7FEE7FEE7FEE75B
:10BAF000FEE7FEE7304B1B78012B00D070472F4B41
:10BB00001B681B07FAD1F0222D4B1B68134027D16D
:10BB10002C4B1B68134229D0284B1B681B07EDD107
:10BB2000F022274B1B681340402B32D0244B1A685D
:10BB3000F0231340A02B01D0D02BDFD1214B1A686A
:10BB4000F0231A42DAD1204A1368012B04D01F4B8C
:10BB500013601368012BFCD1C0221D4B1A60CDE786
:10BB6000102B0FD1174B1B681342D9D1194A1A4B0E
:10BB70001A608022194B12021A600F4B1B78012B9E
:10BB8000CAD0BBE7302BCBD10E4B1B681342C7D1B9
:10BB9000ECE70C4B1B681342C8D1C1238022012162
:10BBA000DB00D205D150044B1B78012BA6D1034BEF
:10BBB0001B681B07BAD0A1E7E00F00F0E40F00F00C
:10BBC000E80F00F0EC0F00F000EC06407593000069
:10BBD00014EC0640DFFF07C004050040186C00406D
:10BBE00052DF704761DF7047F0B557464E46454615
:10BBF000E0B42B4B00261C689A4663425C41294BFB
:10BC0000294F9946294B82B09846E4B2002E1AD1AA
:10BC1000244D2B78002B10D101A8FFF7E1FF052858
:10BC200037D0002825D0FFF7FDFA002C0ED01D4D8F
:10BC300001242B780026002BEED002B01CBC9046CD
:10BC40009946A246F0BD002CF7D14D462B78002B2B
:10BC5000F3D143463C681B8801A9201C0B80FFF7E9
:10BC6000C1FF052819D000280DD0FFF7DBFA00240A
:10BC7000CCE70198FFF7F8FD0D4B1B68002BD4D0E3
:10BC800001989847D1E75346201C1B689847002429
:10BC9000BCE7002CD1D10126D8E7002ECDD1C6E7D4
:10BCA000B4140020A8140020AC140020AA14002012
:10BCB000B014002008B5094B1B68002B06D098472C
:10BCC000002800D108BDFFF7ADFAFBE7044B1B7855
:10BCD000002BF7D0FFF788FFF4E7C046B814002028
:10BCE000A9140020F8B5C046F8BC08BC9E467047B1
:10BCF000F8B5C046F8BC08BC9E467047430000003B
:08BD0000C81300200000000040
:08BD080018F4FF7F01000000A8
:10BD10000000000000000000000000000000000023
:10BD20000000000000000000000000000000000013
:10BD3000FCBC01000000000000000000000000004A
:10BD400000000000000000000000000000000000F3
:10BD500000000000000000000000000000000000E3
:10BD600000000000000000000000000000000000D3
:10BD70000024F400E9B00100C1B00100000000009F
:040000031000BAA986
:00000001FF
