:020000021000EC
:10B00000004000205D5802009D5802009F58020039
:10B010000000000000000000000000000000000030
:10B02000000000000000000000000000A158020025
:10B030000000000000000000A3580200A558020014
:10B040001DE00100A758020065E60100A7580200B4
:10B05000A75802000000000045E40100A7580200C4
:10B06000A7580200A7580200A7580200A7580200DC
:10B07000A7580200A7580200A7580200A7580200CC
:10B08000A7580200CDB40100A7580200A75802003B
:10B09000A9B50100A758020041660200A7580200A6
:10B0A000A7580200A758020000000000000000009E
:10B0B0000000000000000000000000000000000090
:10B0C00010B5064C2378002B07D1054B002B02D07E
:10B0D000044800E000BF0123237010BD942000202D
:10B0E00000000000006E020008B5084B002B03D0E2
:10B0F0000748084900E000BF07480368002B00D15B
:10B1000008BD064B002BFBD09847F9E70000000074
:10B11000006E020098200020802000200000000027
:10B12000164B002B00D1144B9D46402292029A1AD6
:10B13000924600218B460F461348144A121A00F01B
:10B1400067F80F4B002B00D098470E4B002B00D018
:10B1500098470020002104000D000D48002802D06F
:10B160000C4800E000BF00F02DF82000290004F09A
:10B1700005F900F011F8C04600000800004000206A
:10B18000000000000000000094200020802D00201E
:10B190000000000000000000084B10B5041C002B4C
:10B1A00002D0002100E000BF054B1868836A002B25
:10B1B00000D09847201C00F033F8C0460000000083
:10B1C000446A02000E4B70B500251E1C0D4CE41A9B
:10B1D000A410A54204D0AB00F35898470135F8E716
:10B1E0000BF022FC084B00251E1C084CE41AA4108E
:10B1F000A54204D0AB00F35898470135F8E770BD7D
:10B200007820002078200020782000207C2000205A
:10B21000031C8218934202D019700133FAE7704779
:10B22000FEE7C046F8B54D465F4656464446F0B484
:10B23000224B1978994600292AD0214B002598469F
:10B24000204B214F01269A4603E00135EDB28D4295
:10B250001ED243461B68321C9C46EC006444207896
:10B260003B6882401342F0D093433B6003F0E0F828
:10B27000331C22785146934009680B40011C9140D1
:10B280008B420BD04B4601351978EDB28D42E0D39D
:10B290003CBC90469946A246AB46F8BD61686378CF
:10B2A0008B460029EED0591E4C424C41211A4B428C
:10B2B0004B41101CD9B2D847E4E7C046B820002063
:10B2C000B4200020DC200020E0200020F8B5124D42
:10B2D000071C281C00F052FC002807D10124BC40A8
:10B2E0000E4E3368234202D0A3433360F8BD381CAE
:10B2F00003F09EF80A4A136800280BD0234313601A
:10B300003368281C1C43074B00221968346000F086
:10B31000D3FBEBE7A343F2E7BC200020E0200020B2
:10B32000DC200020B0200020F0B54F464646C0B4D7
:10B33000141C071C83B00E1C0720042A04D803B079
:10B340000CBC90469946F0BD02F068FF00282FD053
:10B350001A4B1B4A1F601B4B751E1E701A4BEDB219
:10B360001C6000231360194A1360002E1AD0184B7A
:10B3700001AC994603230026984600E01D1C424676
:10B38000EB00FB182270A670E6709A78187862704D
:10B39000211C4A4602F04CFF0028D0D16B1EDBB2C4
:10B3A000002DEBD100210B4A0B4800F06BFBC6E7E8
:10B3B00002F0FAFE0028CBD0C1E7C046B42000203E
:10B3C000DC200020B8200020B0200020E020002059
:10B3D000CDB2010025B20100486A020070B5094DE6
:10B3E0002B78002B0BD00024074E3268E300985CCA
:10B3F000012102F0CBFF2B780134A342F5D80020C5
:10B4000070BDC046B8200020B4200020002300B545
:10B4100085B001AA9060002103481380536000F0BA
:10B4200005F805B000BDC04601400000BFF34F8FD6
:10B43000034A044BDA60BFF34F8FC046FDE7C046B6
:10B440000400FA0500ED00E080218023194A8902FA
:10B4500030B5D1508023D2210124174A5B028900E4
:10B46000535040395350154B546019682F231448DA
:10B470001D1CC046C046C046C046C046C046C04669
:10B48000C046814200D0C046013DF2D19460002206
:10B490000C4C2260C046C046C046C046C046C046AE
:10B4A000C046C046814200D0C046013BF2D1064BA7
:10B4B0001A7030BD00E100E000100140742000204F
:10B4C0000024F400E420002004210020A021F0B595
:10B4D000002347462B4A490080B45350043153504F
:10B4E00004315350043153504C39535004315350AC
:10B4F000254B1B68002B35D024490026525824497F
:10B50000244F0C68141B00222402240A904602E0F7
:10B51000002D18D02B1C1A68A24214D8A41AB618F1
:10B520001A7CDD69002AF3D0424699691A745A6977
:10B530003B68002B19D0101C98470028E8D0FFF773
:10B5400065FF002DE6D1144B14491A780B789A4206
:10B550000ED0134A9B009E5080218023114A49033C
:10B560005B00D15004BC9046F0BD081C9047CFE76B
:10B570000132D3B2022B01D00B70EAE700230B702B
:10B58000E7E7C04600100140E82000200405000065
:10B59000E4200020EC200020F0200020F1200020FA
:10B5A000FC20002000E100E0F0B556465F464D4625
:10B5B0004446F0B4924B934A1B6893499A460978E3
:10B5C000137887B0994200D1D2E10133DBB2022B6C
:10B5D00000D1A1E113708D4A9B009F585346FB1880
:10B5E0001B02874A1B0A136001230293884B002425
:10B5F0001978884B1B689946854BC8465B78019340
:10B60000834B5B689C46824B65469E787C4BBC4670
:10B610001B689B46804B1B7800934B46019A9142D6
:10B620001AD04A0052180131C9B2881B471EB841CE
:10B63000D2004042AA1801401078022800D1A8E0A8
:10B640000328EBD1002BE9D01C74DB69002BFBD164
:10B65000019A98469142E4D141466E4A674611608C
:10B660005946674A116069466B4A09781170029A17
:10B67000002A00D059E14A46D21A511E8A410025BB
:10B680001E1CD2B2059203935D4B00271B6898469F
:10B69000604B1B689B465E4B5B689A465C4B9B7895
:10B6A00002935B4B1B789C465B4B1B7804935B4B74
:10B6B000009301239946002D27D06968A8682C1CA7
:10B6C000ED694346CA1A009B1202120A9A424DD8EB
:10B6D00013184A4623606760A7602274E761002E52
:10B6E00053D03168301C994204D37AE011689942F2
:10B6F0007ED2101CC2695B1A002AF7D1E261321CAB
:10B700002360C461161C002DD7D1019B9C4500D13C
:10B7100086E0624663460132D2B25B0063449446DF
:10B720000299DB00521A511E8A4161465242114071
:10B7300053448C4619785C68321C0129E2D1217C83
:10B740000029DFD199686160D868A0601A69E26059
:10B750005B69A361049B002BB3D043460021CA1A46
:10B76000009B12026560120A9A42B1D94346591AE7
:10B770000902090A81422AD24A46431A23606760B5
:10B78000A7602274E761002EABD1221CA346161CD1
:10B79000B9E75768002B00D1F1E0181C9F4201D196
:10B7A000BCE0101CC269002A00D137E79742F8D1EB
:10B7B0003A1E824200D1B1E01768D269C261002A04
:10B7C00000D12BE71368DB191360434626E74B468D
:10B7D00027606760A7602374E761002ED5D000233F
:10B7E0003168221CCB1A3360A346E661161C8AE737
:10B7F000C91A1160E2612360321CC46182E7C0464D
:10B80000E4200020F0200020F1200020FC20002077
:10B81000F4200020E8200020F2200020FEFF7F001E
:10B820006246624B1A705A46614B1A60039BB342E0
:10B8300000D163E0002E00D19EE05E4B5E495F4D7B
:10B84000C8585F4B34681A682E78831A1B021B0A8B
:10B8500003339846002E21D18026D1277602BF00DF
:10B86000CE51403FCE51C0238027564EBF025B00D1
:10B87000F750376001260E605349544B0F682F2153
:10B88000C046C046C046C046C046C046C046C04688
:10B890009F4200D0C0460139F2D12E704346A342E8
:10B8A00000D2231CA8249A1812024349130AE40068
:10B8B000404D0B514A591B1A121A1202120A1B024E
:10B8C00003321B0A9A421DD94B590B513E4B3F493B
:10B8D0001A682F23C046C046C046C046C046C04670
:10B8E000C046C0468A4200D0C046013BF2D180210A
:10B8F0008023344A89025B00D15003E0059B002B72
:10B9000000D097E70023324A137007B03CBC904642
:10B910009946A246AB46F0BD00235BE6DF69002FE7
:10B9200038D0B8463B1C021C46E7414600250022A1
:10B93000002613E01868B84223D83F1A1218D868B6
:10B940001E60DC69002807D05146DD611D1C5118BE
:10B950000902090A59609860231C211C002BE9D1B7
:10B96000134B19600023039301330593039E8BE669
:10B9700000230027029339E6FFF766FDC2E70023A4
:10B980004CE6C71B03931F600123094A059311600E
:10B99000039E79E60122084B01379A600023009745
:10B9A00000279846021CBB4606E7C046F42000204C
:10B9B000E8200020040500000010014004210020C0
:10B9C000E420002000E100E0742000200024F400C6
:10B9D000F2200020F0B54746032480B4061C0F1C5B
:10B9E000151C984614400720002C02D004BC904639
:10B9F000F0BD002AFAD0FFF727FD4246174B802002
:10BA00001A60174BC0221C705C709F705D60154BF4
:10BA1000FF211C60144B40031C70144B52001C701F
:10BA2000C524134BA40098501A598A433F390A433E
:10BA30001A51A1221860C4200E49D2008E508000F5
:10BA40001C580D4A2240C024240222431A500B4B9A
:10BA50000020CA580A4B1A60C8E7C046EC200020F4
:10BA6000F4200020E8200020F0200020F120002019
:10BA700000E100E000100140FF00FFFF04050000AE
:10BA8000E420002010B50B4B5B68002B0BD0002A84
:10BA900007D0002805D0036808201C7C002C04D0A7
:10BAA00010BD0720FCE70820FAE759745A6100200E
:10BAB000F6E7C046F4200020F0B5474680B42B4C92
:10BAC00082B06368002B09D0002807D0072304291F
:10BAD00006D8181C02B004BC9046F0BD0823F8E755
:10BAE0004369002BFAD00025437CA846012B34D0B3
:10BAF000171C6A460023051CD01DD3710E1C00F0D4
:10BB000083F86378A278591CC9B2521A501E824138
:10BB10005242114022788A4221D05A00D3186268DA
:10BB2000DB0094466344002B19D0012210481A70A0
:10BB3000104A5D608258DE609A6042465F611A6119
:10BB40006B46D879617000F07FF8802180230A4A23
:10BB50005B004903D1500023BBE78846C8E76B462A
:10BB6000D87900F071F80423B3E7C046F420002030
:10BB7000001001400405000000E100E030B5204D58
:10BB800083B06B68002B33D0082300282DD0426986
:10BB9000002A2AD000236A460374041CD01DD371E6
:10BBA00000F032F86B78AA78591CC9B2521A501EAC
:10BBB0008241524211402A788A421BD05A00D3183F
:10BBC0006A68DB0094466344002B13D002225C6059
:10BBD0001A706B46D879697000F036F8802180239E
:10BBE000084A5B004903D1500023181C03B030BD44
:10BBF0000823FAE76B46D87900F026F80423F4E727
:10BC0000F420002000E100E0F0B5EFF3108172B6FF
:10BC10000A4B5A68002A0DD101248025084E5C6029
:10BC20007459084F3C401C6077510270002900D1C4
:10BC300062B6F0BD01230370F8E7C046782D0020FE
:10BC400000E100E0FC06FFBC10B5084B5A68002A72
:10BC50000BD0002809D1EFF3108272B604491C689A
:10BC60000C605860002A00D162B610BD782D00200B
:10BC700000E100E0033083B230B50920FD2B00D98C
:10BC800030BD114A1078002806D154891089201837
:10BC9000181880B2FF280DD9147C0720002CEFD192
:10BCA000558B148B2C191C19A4B2FF2CE8D8012435
:10BCB000063801E0002400200C800101521851894F
:10BCC00000205B185381DBE760210020F0B5474678
:10BCD00080B443688846002B03D0334A11688B42F6
:10BCE00036D200234246138001339C462F49304E02
:10BCF00080234F68DB00FD1800230CE01A68013236
:10BD000011D09A881C88B24207D0002C05D09A68BE
:10BD10000468A24211D0002B17D05A880332920037
:10BD20009B18AB42EAD3434662461A806346103101
:10BD3000022B36D002239C46DAE743601D4B1B8959
:10BD40000381012004BC9046F0BD3B1C0833E8E7AA
:10BD500052689342C5D89A07C3D1164A01891289FD
:10BD60009142BED1026899688A42BAD10F494A68A5
:10BD7000934207D98020C00084466244934201D296
:10BD800000230AE04A6900209342DBD98021C900E0
:10BD90008C4662449342D5D201234246012013804F
:10BDA000D0E70020CEE7C04684200020602100209C
:10BDB000FFFF000080210020F0B55F4656464D464B
:10BDC0004446F0B4CE4C8DB0256F071CEE00731BBB
:10BDD0009B00E218E35C0392062B27D8C9499A001E
:10BDE0008A589746002800D0F1E0C74B9A461B7B43
:10BDF000002B00D1D7E2534618731B78072B00D9CC
:10BE0000B6E2C24A9B00D3589F46002800D0DFE02C
:10BE1000721B9200A11888460979012900D109E313
:10BE2000002900D1EEE2022900D137E10F20039A68
:10BE300007AF12787860023A012A00D8D1E0062BC9
:10BE400061D8B34A9B00D3589F46721B9200A21838
:10BE5000101C083041898C46AE498846614609016C
:10BE600041448A46002F00D0CDE00A1C098952685F
:10BE700089005718027A062A00D929E3A6499200B8
:10BE80008A589746002800D0B5E0039B1B799A4654
:10BE9000012B00D1E5E2002B00D1D6E2022B00D12C
:10BEA00004E1032B00D0F0E29C4B00909846196807
:10BEB0009B4A02239B4801F0EFFB43461B68414627
:10BEC0009C46914B934A5B8891461B019A4652448B
:10BED00053680B60634653608B88138102224B4684
:10BEE0008A805246D754039B1F71002831D0731BA0
:10BEF0009B00E35C01208C490A7882430A700D3074
:10BF000095E705233B70894D2E1C20362B68002BAE
:10BF100001D0381C98470435B542F7D1236F002172
:10BF2000D800C01A800020181C22FFF771F9636F37
:10BF3000002B09D00321226F013B01320A40226706
:10BF40006367002B00D0ADE00421774A13788B4360
:10BF500013700DB03CBC90469946A246AB46F0BD6E
:10BF600000233B70CFE70423751BAD003B706319C2
:10BF7000DB88BB810023FB81C5E70323751BAD0074
:10BF80003B706319DA88BA811A89FA81DB68BB6071
:10BF9000B9E70223751BAD003B7063191A89BA819A
:10BFA0009A880833FA815A68BA601B7A063B59426C
:10BFB00059413974A7E70123751BAD003B70631924
:10BFC0001A89BA819A88FA81DB68BB609BE70623ED
:10BFD0000120039A07AF12787860023A012A00D94B
:10BFE0002DE7039A917D524A106C08181064506C2A
:10BFF000411A516423E701214B4A012013788B43F6
:10C000001370012313E7D0880989C21C51185246C6
:10C01000118151465289121A033A4A81012006E7DA
:10C02000534652461B8901331381002353801373F7
:10C03000384A11784B424B4151468B72127C534225
:10C040005341CB7201230B7053469B7A002B0CD0CB
:10C050000023524693722F4B98469B89002B04D1A4
:10C0600043469B7B002B00D01AE35346DB7A002B20
:10C070000CD000235246D372264B98469B8B002B44
:10C0800004D143469B7F002B00D0D6E200235246CA
:10C09000137053805360731B9B00E35C002207AF57
:10C0A0007A60CCE60020FFF787FE52E71B4B0122A7
:10C0B000984619681B48002301F038FB4346524656
:10C0C0009A80039B1F7110E753465B88114A1B013E
:10C0D000D3189A89002A00D164E2052352461370CE
:10C0E00002220E4B0F489A801968013A002301F092
:10C0F0001DFB002800D12CE71C236B43E35C96E674
:10C10000902100204C6A020080210020686A020011
:10C11000886A020060210020A46A02000822002030
:10C120003C6B0200842000201022002014220020FA
:10C130000821002053465A68D54881888B00016841
:10C1400003205746C91853883870002003330090E5
:10C150009BB2D04801F0A0FACBE7731B9B00984636
:10C16000A346C3445B461A1D0023CA480093391CEA
:10C17000013301F091FA02235A461374002800D1CA
:10C18000E7E643460E201B5D5146721B9200A21843
:10C19000D7880989FA1C5118524611815146528993
:10C1A000D21B033A4A81BC4A904200D176E73EE670
:10C1B000B948E9E708229146731B391D9F00E3192E
:10C1C000994400234A460093B248013301F064FACF
:10C1D000E35D033B594259410622531A4A46137202
:10C1E000002800D1B5E63B5D0E20CDE7AB4BA9485A
:10C1F0001F88AB4BAB4A596800230093013301F011
:10C200004BFA002800D1D1E10621731B9B00E218F4
:10C210001174E35C0E20B7E70023A1489F494360F7
:10C22000731B9B009846E3189B690360FFF74EFD64
:10C23000002892D143460A201B5DF8E59A48436CDA
:10C24000002B00D142E1013B4364731B9B00026C55
:10C25000072198461023914601320A40A044026407
:10C26000434499889B464B468900DB001A5879184D
:10C27000C7180020BB880090864801F00DFA5B4685
:10C28000BA889B88D3185A4693809379013BDBB2D6
:10C290009371002B02D1424601331374002800D160
:10C2A00057E6731B9B00E35C0E206DE7731B391C84
:10C2B0009F000023E2190C320093083101337548C6
:10C2C00001F0EAF9E3199B7D0322002B00D1023A29
:10C2D000731B9B00E1180A740028E4D139E6534629
:10C2E000724A5B8890461B015146062243440A70FD
:10C2F000596800236E4A00936648023301F0CCF976
:10C30000F7E6534652465B685188002B00D176E130
:10C310005A88033292009A18644B98460B0199464A
:10C3200043464B445B689C468020C0006044824288
:10C3300029D21368013326D05E49938817888B422F
:10C3400018D0002F16D053465A60514B99881B685D
:10C350008900F5E6524607231370002353604C4AC8
:10C360004C4811680093544A023301F095F9C0E635
:10C3700006235BE5538803339B00D218824202D226
:10C3800013680133D9D143464B449B89002B00D01D
:10C39000A3E661463F480122002301F0C7F90423C8
:10C3A00052461370A5E653461B78072BE0D8434945
:10C3B0009A0089588F4601235246137044E653462B
:10C3C000334A5B88394910681B018846C9184F6891
:10C3D00048609088176008810221918084E7534665
:10C3E0002B4A5B6859889388CB1803339380524655
:10C3F00002235188137053688AE7072BB8D8304B53
:10C400009B589F464346DB6804AA079394460A2339
:10C41000634408900990191C07A8FFF757FC031CF8
:10C420000A20002B00D0CBE00222731B9B00E318F4
:10C430001A715EE6234B1B789B074BD422480021E0
:10C440000822FEF7E5FE022056E6114B1A4A19684B
:10C45000009002230F4801F01FF90123039A137182
:10C4600043E5124B98461B78022B00D1E3E043468C
:10C470001B7C022B00D1CDE00223124A11780B4322
:10C4800051468B431370012308E6012332E5C04671
:10C4900008220020842000201D1D00001222002000
:10C4A00034220020306B020008210020602100208F
:10C4B0003C6B0200FFFF0000346B0200C06A020008
:10C4C000E06A020010220020582100201B68FFDED5
:10C4D0000F2059E6744B9A469B889B46012B17D830
:10C4E000724BB1469846291C161C71485B46424661
:10C4F0001B010493D35C002B13D05B4652460133DF
:10C500009BB2938001229346022BEFD10D1C4E4625
:10C51000504600210822FEF77BFE731B9B00E35C64
:10C52000BCE553461D68049B802243445B68D200EF
:10C530009C46059362448C4606E05546A71929603F
:10C54000FF880D1C9F4215D0002D55D069880331FE
:10C5500089006918914220D20B6801331DD08B8865
:10C560000D88834201D0002DE7D14B8803339B0017
:10C57000C918EFE700234F4800934F4A013365463F
:10C5800001F08AF84E46031C0E20002B00D0B3E5C4
:10C590000122049B43449A73DBE453460022614624
:10C5A0001A60AAE7596843480132F5E601223B01C7
:10C5B00043449A730623751BAD0064192374C8E4C1
:10C5C000424608993B488B88D3800B88138104AB83
:10C5D0005B89394A98460097012301F05DF8031CF6
:10C5E0000E20002B00D01FE74346304A1B01D31812
:10C5F000012200209A7317E705990831AAE72B4B0F
:10C6000098460B01994643464B445B681A1C9C466E
:10C61000083289E601231F014346DB1959680023CC
:10C620009A460093254A0233224801F035F84346E2
:10C630005246DA5559E40023EDE70122131C514616
:10C640004A804968002925D04A881B01033292009C
:10C6500043448A1859688023DB00C818824217D2E5
:10C660001368013314D08C46114F93881188BB4254
:10C6700004D0002902D053465A605DE55388033345
:10C680009B00D218904202D913680133EDD1614664
:10C69000084880E61B01434459680A1C0832DAE75F
:10C6A0000022131CCBE7C046582100206021002047
:10C6B000FFFF000084200020306B02003C6B020072
:10C6C00008B5081CFFF778FB08BDC04610B5064941
:10C6D0000C220B78082B05D0044A9C00A0500022A5
:10C6E00001330B70101C10BD5421002014220020B7
:10C6F000F0B556465F464D4644460023F0B4AC4E76
:10C700008DB00793089309930A930B9333789A0794
:10C7100012D5A84C251C20352368002B01D007A872
:10C7200098470434AC42F7D100200DB03CBC904691
:10C730009946A246AB46F0BDDA07F5D40122134371
:10C74000337000F047FF9C4B1F689B469B4B1C6857
:10C75000082398468023DB00E018C0231B019C4679
:10C76000A444634602930023BC469A46A044039324
:10C770000193934A2168231C914204D146E004337B
:10C78000984200D1F1E01A680132F8D0534652467F
:10C79000013303219BB29A468A4D120151558023E1
:10C7A000DB009946029B4C44C84448449C42E0D17B
:10C7B0005B4667461F606B461B790B2B05D8824A88
:10C7C0009B00D3589F46032305938048436F032B58
:10C7D00012D87F4A526C082A0ED80321026F9A1889
:10C7E0000A40D1008A1A012192008218117069460C
:10C7F000097D01331171436733785A0794D40422B9
:10C80000002013433370FFF7D7FA8DE76368714A4E
:10C81000934204D0704A934247D0231CB3E7534657
:10C820001B011A1C04930023664991468B540B1C70
:10C830004B441F1C5C600223002241463B81009256
:10C840000A68013221D0654A91466246A446141C0A
:10C850000FE08A68944200D2141C4A880332950083
:10C860009B189BB249193B8181420BD20A68013265
:10C8700008D08A880D884A4501D0002DE9D10122CF
:10C880000092EAE7231C64469C464E4A049B91466C
:10C890006A4612784B449A730223019A1A4353460C
:10C8A00001339BB201929A4679E7039B002B58D043
:10C8B0004449534602228946494F1B015A5439685C
:10C8C0004B4459601A81534601339BB29A460091FA
:10C8D000022341463C60BB800B68013343D03F4A92
:10C8E000654602239146A44602E00A68013212D04E
:10C8F0008A880C884A4505D0002C03D08A68954266
:10C9000000D2151C4A88033294009A1893B2091970
:10C91000BB808142E9D36446AC46022B23D0082376
:10C92000019A1A4301923AE70B20FEE6022305938F
:10C930004BE7022332781F4C13430122251C9343FB
:10C94000337020352368002B01D007A898470434A2
:10C95000AC42F7D1E8E60123059336E700230593BF
:10C9600033E71F4FB4E70423DAE71D4B1B6800933E
:10C97000002B14D013495346022289461B015A54F6
:10C980004B441A8152465C60164B5A805346013321
:10C990009BB29A460123019A1A430192FFE6104B7B
:10C9A0000F4A1C6002239380013B0393F2E7C046C9
:10C9B000102200201422002050210020842000207A
:10C9C000DEC0ADDE60210020006B0200902100205F
:10C9D00008210020FE011EF1FF011EF1FFFF0000F3
:10C9E000082200208021002030B5052383B00028D4
:10C9F0000AD0002908D06B460D1C991D041CFFF7B6
:10CA000065F90A23002802D1181C03B030BD6B461B
:10CA1000DB88074A1B01D3189A89616801329A8121
:10CA2000296063680C336B600123A3720023EBE77A
:10CA30006021002010B5052382B0002818D06B4675
:10CA4000991D041CFFF742F90A23002810D06B46F9
:10CA5000DA88094B12019A189189062308320029B5
:10CA600006D0A07A002803D0002301399180A37258
:10CA7000181C02B010BDC0466021002070B5194BD3
:10CA80001A780223920701D4181C70BD03330028C2
:10CA9000FAD0CA1C92B20433FD2AF5D8124C23787E
:10CAA000002B10D166892389F318D3189BB2FF2B72
:10CAB00009D8002500231B01E418B2186281002365
:10CAC00005804180E0E7257C0723002DDCD1668BC3
:10CAD000258B75195519ADB2FF2DD5D80125063B0B
:10CAE000E9E7C046102200206021002030B50F4B3E
:10CAF0001A780223920701D4181C30BD002813D0E5
:10CB000002880233022AF7D8094912018A1851898A
:10CB1000448808320D1B032DEED400230339091B72
:10CB2000518003804380E7E70523E5E710220020DA
:10CB300060210020F0B55F4656464D464446F0B4AD
:10CB4000824A89B0137802279C0707D4381C09B0A1
:10CB50003CBC90469946A246AB46F0BD002945D064
:10CB60000D887B4C0237A542F0D04C88002CEDD0CC
:10CB70004C680F89A046002F00D1DFE02468A4078D
:10CB800036D14546032608350024B446994604E0CC
:10CB900063462E6808351E422AD10134A742F7D8D1
:10CBA0004446FF0004373D1C261D4B4600244544E7
:10CBB00037880836E419A4B2AE42F9D1E51CADB20B
:10CBC0000927FD2DC2D8634EA9463778002F08D11A
:10CBD00075893789AC4667444F44BFB2FF2F00D8F0
:10CBE000AFE0377C002F05D00727AFE70527ADE77B
:10CBF0000327ABE7778BBC46378B67444F44BFB204
:10CC0000B84645460727FF2DA0D801252F1C0395C0
:10CC10004D466544ADB200953D016F463F88029593
:10CC200075196F816F460D893D71A8463D79049550
:10CC3000494DAC4667462D6801353D6001950D882C
:10CC4000464F05954D88BB4649687F6F069507910D
:10CC5000B946032F4CD842494546496C8A460821BB
:10CC6000491B8A4544D85F4603263F6F69464F44B7
:10CC70003740FD00ED1B0227AD005D442F70EC80B6
:10CC80000F8B8C8A01992C81E9606946898900247F
:10CC900069826946097C6C812C744C46A975594699
:10CCA0000134AF80AE824C674146002931D02C4917
:10CCB0000725096C079E0C1C294954448C464146A3
:10CCC000CF0038212C40E400E14664448C46F7193B
:10CCD000CC449A46834603E02C1C0836BE4210D052
:10CCE000251C331C03CB03C56445F5D14C46F4E742
:10CCF000029B08279C46009B66441C1B033C7481D6
:10CD000024E717495346496C584641440C1C1449C2
:10CD10004C64002807D00021019C416081721149B8
:10CD20000460098901810027590700D50EE7042115
:10CD300000200B431370FFF73FF807E7002403259B
:10CD400041E7002503952F1C62E7C0461022002012
:10CD5000FFFF0000602100205021002090210020D2
:10CD60000821002080210020F0B556465F464D4640
:10CD70004446F0B4052685B0002A04D0634C033E37
:10CD800023789D0707D4301C05B03CBC90469946DB
:10CD9000A246AB46F0BD002900D18AE00D885C4F69
:10CDA0000236BD42EFD04F880097002FEBD04E687F
:10CDB00002960989002917D037680197BF077AD1F1
:10CDC000371C0026B4460336B246083766469046FE
:10CDD0009C4604E052463B68083713426BD101364B
:10CDE000B142F7D863464246168801965288934668
:10CDF000484A94466646126801323260464EB14651
:10CE0000766FB046032E58D808277F1ABC46434E8B
:10CE1000B246766C039666454FD84F463F6FBC4688
:10CE2000C444664603273740FE00F71BBF00BC46DC
:10CE3000CC44674602263E706E463D81002536880A
:10CE40007D81BE805E460025FE806E463D7465464F
:10CE5000FA60B788A9756F820327AF8245464F46AF
:10CE600001357D6700293DD055462F6C039EBC4699
:10CE70006644351C07273D40CF00BC46029E38273C
:10CE8000B44493466246ED0057449C465544D1460F
:10CE9000B84600910190131C03E03D1C08369E42E9
:10CEA00016D02F1C321C03CA03C74545F5D14D4689
:10CEB000F4E7052667E7032665E75946019B184A0C
:10CEC0001B01D3185A890826033A521A5A815AE785
:10CED00055466D6C6346AC4655465A4600990198D6
:10CEE00061446964002806D0002102600D4A416057
:10CEF00081721289028100265A0700D543E7042275
:10CF0000002013432370FEF757FF3CE71022002058
:10CF1000FFFF000050210020902100200821002068
:10CF20006021002080210020F0B55F4656464D4626
:10CF30004446F0B4052389B0002804D06F4F033B6A
:10CF40003E78B20707D4181C09B03CBC90469946FD
:10CF5000A246AB46F0BD002900D1A2E00C88684A89
:10CF600002339442EFD04A88002AECD04B680D89F6
:10CF70009846002D00D1B7E01B689B0700D092E0D7
:10CF80004246032408320023A446894605E0614650
:10CF9000146808320C4200D085E001339D42F6D877
:10CFA0004346ED0004351A1D2B1C49460025434419
:10CFB000148808322D19ADB29A42F9D106AB8846D1
:10CFC000041C991D281CFEF755FE021C031EBAD135
:10CFD00041464C48098906AB8A460168DB88013125
:10CFE00001604046008801910290404640880390CD
:10CFF0002068049040464068059043488446406F4E
:10D000008046032851D8414851468146406C8346AA
:10D010000820401A834548D86146096F4144081CDE
:10D0200003210840C100081A0321800060440170F8
:10D030006946428104228989438281806946049B32
:10D04000C58002744546013A828283615246634636
:10D0500009890135018101998275C1605D67534677
:10D06000002B34D04B4607221B6C05985B441340C1
:10D070005246D5003822DB004A444B444519C84685
:10D08000944601968B46029403E0131C0830A84294
:10D0900014D01A1C011C50C950C26345F5D1434637
:10D0A000F4E705234FE703234DE7194A1B01D31883
:10D0B0005A89033A521B5A81082344E75B46019E72
:10D0C00001934B464A465B6C029C534453640023D5
:10D0D000019A6360A3720F4B22601B892381042392
:10D0E000334203D000232EE7002567E71E430020CC
:10D0F0003E70FEF761FE002325E7C04610220020A7
:10D10000FFFF000050210020902100200821002076
:10D11000602100208021002070B5164A0224137877
:10D12000990701D4201C70BD134902348842F9D0FC
:10D13000124E0434756F032DF4D81149496C082937
:10D14000F0D8316F053C69182140CC00611A0524E4
:10D15000890071180C700135043C0C71C8800024E2
:10D1600075675907DED4042100200B431370FEF7C6
:10D1700023FED7E710220020FFFF000090210020AF
:10D180000821002038B5154A02241378990701D4E4
:10D19000201C38BD12480634416F0329F8D8114DC0
:10D1A0006D6C082DF4D80325046F0C192C40E50094
:10D1B0002C1B06250131A400055541670A49087852
:10D1C000002801D00120087300245907E0D404216D
:10D1D00000200B431370FEF7EFFDD9E7102200206B
:10D1E000902100200821002080210020F0B54D462C
:10D1F00044465F465646F0B49146344A8846117814
:10D2000083B00222890707D4101C03B03CBC9046AF
:10D210009946A246AB46F0BD4A46002A40D0002BB4
:10D220003ED09A880192012A38D8294A294F93463C
:10D23000002294465946019A12018C5C002C25D19B
:10D240001C6803E01C60A58885422BD0002C36D0DA
:10D25000594665880335AD0064198D186E688021C4
:10D26000C9008A465644B4420ED2216801310BD01F
:10D27000A5882188BD4201D00029E3D16588033506
:10D28000AD006419B442F0D362461A600121019ADC
:10D290000191013292B29A80022ACBD10A22B3E7DD
:10D2A0000522B1E725884545D0D14A46A1681160DD
:10D2B0001B685360084B1B8913810022A4E7594661
:10D2C0008C186668341C0834C9E7C0461022002058
:10D2D00060210020FFFF000080210020F0B54446BF
:10D2E0005F4656464D46F0B4314B1C780223A407E6
:10D2F00006D4181C3CBC90469946A246AB46F0BDED
:10D30000002943D0002A41D093889846012B3BD86E
:10D31000284B294E9C460023994643461B019A46BA
:10D32000634654461B5D002B26D1156804E013604C
:10D330001C881D1C84422BD0002D32D064466B8883
:10D34000544403339B00EB1865688024E400A34633
:10D350005D449D420ED91C6801340BD09C881F8807
:10D36000B44201D0002FE2D15C880334A4001B1921
:10D370009D42F0D84B4613604346012401339BB2D3
:10D380009380A046022BC8D10A23B2E70523B0E759
:10D390009B680B6013684B60084B1B890B81002353
:10D3A000A7E7634653445D682B1C0833CDE7C046AE
:10D3B0001022002060210020FFFF000080210020BB
:10D3C000F0B544465F4656464D46F0B4314B1C78A6
:10D3D0000223A40706D4181C3CBC90469946A246DA
:10D3E000AB46F0BD002943D0002A41D0938898462F
:10D3F000012B3BD8284B294E9C4600239946434697
:10D400001B019A46634654461B5D002B26D11568C6
:10D4100004E013609C881D1C84422BD0002D32D068
:10D4200064466B88544403339B00EB186568802482
:10D43000E400A3465D449D420ED91C6801340BD024
:10D440009C881F88B44201D0002FE2D15C8803344D
:10D45000A4001B199D42F0D84B461360434601249B
:10D4600001339BB29380A046022BC8D10A23B2E7B6
:10D470000523B0E79B680B6013684B60084B1B8962
:10D480000B810023A7E7634653445D682B1C0833D8
:10D49000CDE7C0461022002060210020FFFF0000E1
:10D4A00080210020002805D0002903D00368002037
:10D4B0000B6070470520FCE729DF704728DF7047C5
:10D4C00038B50C4C0023626E042A10D0236ED3189A
:10D4D000032B00D9043B0132626618225343E4183F
:10D4E000051C0021201CFDF793FE01232C60181C55
:10D4F00038BDC04644220020F0B5344B87B01D78BB
:10D500001C1C06231D425ED1043B2B432370304B71
:10D510005A6E1E6E1F1C002A55D018237343FB1829
:10D520001A7A012A05D0022A21D19889FFF7C6FF6D
:10D5300013E09A8AD98A521AFF2A01DC92B201E0DA
:10D540008022520018237343FB18186908335B6864
:10D55000890040185918FFF7AFFF112805D10223A1
:10D560009D43DB181D4325702DE000282BD00021A2
:10D57000102202A8FDF74CFE18237343FB18191C58
:10D580001A7A0831012A0BD0022A11D1012302AAEA
:10D5900013708A88CB8802A9D31A0B814A8107E0CD
:10D5A000002202A802708A68019204929B8A8381F9
:10D5B00018235E43BB195B6802A801930393BB5910
:10D5C00009219B68984707B0F0BDC0464022002063
:10D5D00044220020F0B5454657464E46E0B42A4B5B
:10D5E0005D696B1C4BD0294B99461B789846DB072D
:10D5F0003FD4274B27499C46C91A090933D00F1C31
:10D60000080160441A68002A03D05A68541EA241D7
:10D61000BF1A10338342F5D1002F24D000260024F6
:10D62000F0B263460022A24606E05C68002C06D0F9
:10D63000013210338A420BD01C68002CF5D15C7B80
:10D640005445F5D9D0B20132A24610338A42F3D103
:10D650000001031C63441A7B5D609202AD1A01361F
:10D660001D60BE42DBD1012342461A43131C4A46C9
:10D67000137000201CBC90469946A246F0BD802342
:10D680005B055D69AD02AEE700100010402200208E
:10D690008420002094200020F0B51F1C204B041C87
:10D6A0001B7883B00D1C161C0120DB0711D5002C44
:10D6B00011D01C4B01309C420BD31B4B9C4208D217
:10D6C000002A0AD0002D08D0331C2B4306209B07CC
:10D6D00005D003B0F0BD0220FBE70320F9E7236883
:10D6E00001389D42F5D3BB006268EB189A42F0D333
:10D6F0000138002FEDD001A8FFF7E2FE031C072040
:10D70000002BE6D0019B089A1C605A600122019B05
:10D710001A72DE601D619F82FFF7EEFE0020D8E7DF
:10D72000402200208420002094200020F0B51F1CFF
:10D730001E4B041C1B7883B00D1C161C0120DB073C
:10D740000ED5002C0ED01A4B01309C4208D3194B39
:10D750009C4205D2002926D0AB050620002B03D021
:10D7600003B0F0BD0220FBE7236801389D42F7D3E8
:10D77000B3026268EB189A42F2D30138002EEFD060
:10D7800001A8FFF79DFE031C0720002BE8D0022212
:10D79000019BAD0A90C3019B1A729D811E82FFF707
:10D7A000ABFE0020DCE70320DAE7C0464022002081
:10D7B0008420002094200020002804D0034B5B6EBE
:10D7C0000360002070470320FCE7C046442200208D
:10D7D000F0B556464D4644465F46F0B4A94EAA4CB5
:10D7E000337885B0256E9A0745D5022865D0032881
:10D7F00000D082E0A54A13780133DBB21370032B0B
:10D8000000D87AE0002300211370684610226F00D0
:10D810009946FDF7FDFC7B19DB00E318191C1A7A09
:10D82000E8460831012A00D1F4E0022A08D1012398
:10D830006A4613708A88CB886946D31A0B814A815D
:10D840004246404608217D19ED0063195B6853602C
:10D8500063599B689847636E013B6366002B03D155
:10D86000022132788A433270226E551C042D00D179
:10D87000EFE0256642E004221A423ED09343626EF6
:10D880003370002A12D002226F00134333707B19C9
:10D89000DB00E3181A7A012A39D0022A54D1988978
:10D8A000FFF70CFE112845D000284DD105B03CBC37
:10D8B00090469946A246AB46F0BD00239A46524692
:10D8C000724B6F001A707B19DB0099460823A14444
:10D8D0004B449B464B461B7A012B62D0022B0CD14A
:10D8E0005B465A469B8801339380D38801339BB2B1
:10D8F000D38012899A4200D194E0636E002BD5D078
:10D900006F007B19DB00E3181A7A012AC5D19A8AC5
:10D91000D98A521AFF2A14DC92B27B19DB00E31871
:10D92000186908335B68890040185918FFF7C4FD6F
:10D930001128B9D102223378934304221343337060
:10D94000B4E780225200E8E7002110226846FDF784
:10D950005FFC7B19DB00E318191C1A7AE8460831D2
:10D96000012A16D0022A08D101236A4613708A8838
:10D97000CB886946D31A0B814A8142467D19ED0056
:10D9800063195B6840465360635909219B68984757
:10D990008CE7684600228968027002919B8A838125
:10D9A000EBE74B46998A1033DB88CA1AFF2A2FDD32
:10D9B00080225200D3187A19D20091461022A14435
:10D9C0004A449BB29246D380994296D1102268462F
:10D9D0000021FDF71DFC4B464A461B7AE8460832FB
:10D9E000012B45D0022B08D1012369460B70918889
:10D9F000D3886A46CB1A1381518142467D19ED00C6
:10DA000063195B6840465360635900219B6821E7B6
:10DA100092B2CFE76A4648468968107002919B8AA5
:10DA200093810DE7684600211022FDF7F1FB4B467C
:10DA30001B7AE846012B10D0022BDED101236A4667
:10DA400013705B4669469A88DB884A81D31A0B813A
:10DA5000D3E700220025226650E76B4652461A7033
:10DA60005A464B46926802926A469B8A9381C4E763
:10DA7000002369460B705346926802929B888B8103
:10DA8000BBE7C0464022002044220020AC220020F8
:10DA90000123034215D14210134214D182101342C4
:10DAA00013D1C210134212D10211134211D14211EB
:10DAB000134210D1821113420FD1C0110FD1094866
:10DAC00070470020FCE70120FAE70220F8E7032076
:10DAD000F6E70420F4E70520F2E70620F0E7072048
:10DAE000EEE7C046FFFF000010B5002819D000295E
:10DAF00017D00488944215D04488944223D0848857
:10DB0000944222D0C488944221D00489944220D0E7
:10DB1000448994421FD0848994421ED0C089904287
:10DB20001DD010BD0022002B06D0012393401A1CEB
:10DB30000B781A430A70F4E7012393401A1C0B7800
:10DB400093430B70EDE70122EDE70222EBE703229E
:10DB5000E9E70422E7E70522E5E70622E3E70722F3
:10DB6000E1E7C046F0B544465F4656464D46F0B440
:10DB700083B00CAC2478002822D0002920D0002AC1
:10DB80001ED005889D4200D1E1E045889D4200D12C
:10DB9000E8E085889D4200D1E6E0C5889D4200D13D
:10DBA000E4E005899D4200D1E2E045899D4200D133
:10DBB000E0E085899D4200D1DEE0C089984206D030
:10DBC00003B03CBC90469946A246AB46F0BD072048
:10DBD000012383404842DBB2002C5DD10334204056
:10DBE000904200D9101C042A00D9B6E0101CDC4376
:10DBF0000D78E4B225400D70012800D1C4E04D78C5
:10DC000025404D70022800D1C2E08D7825408D70EE
:10DC1000042800D0BAE0CD782C40CC700424824295
:10DC2000CED0151AAC46043DAD080135A946561EA6
:10DC3000AD00A846361A022E19D91F023D1C1E043B
:10DC40001D432E431F0637438346F8430025002615
:10DC500082468B445846475950460740584601363D
:10DC6000475104354E45F5D34444C445A8D0DB4361
:10DC700008190578DBB21D400570601C82429FD9EF
:10DC80000818057802341D400570A24298D90C1975
:10DC900022781340237093E703242040904200D958
:10DCA000101C042A55D8101C0C781C430C70012839
:10DCB00066D04C781C434C7002285FD08C781C4393
:10DCC0008C7004285ED1CC781C43CC700424824232
:10DCD00000D175E7151AAC46043DAD080135019534
:10DCE000561EAD00A846361A022E1BD91E021E4330
:10DCF000B24655461F042F4300251E063743BA4639
:10DD00000026A9460818574685592F430125AB46DA
:10DD1000019DD94487510436A945F4D34444C445F0
:10DD200000D14DE70D19287818432870601C8242F5
:10DD300000D845E70818057802341D430570A24253
:10DD400000D83DE70C1922781343237038E70020F0
:10DD50003EE700240028BDD0A6E70024002800D11B
:10DD60005FE744E7012033E7022031E703202FE794
:10DD700004202DE705202BE7062029E70224A6E74B
:10DD80000124A4E70324A2E7012448E7032446E78B
:10DD9000022444E710B5002819D00488944218D012
:10DDA000448894421AD08488944219D0C4889442FA
:10DDB00018D00489944217D04489944216D084899B
:10DDC000944215D0C3890020934213D010BD002087
:10DDD000FCE70023194101200840F7E70123F9E798
:10DDE0000223F7E70323F5E70423F3E70523F1E72D
:10DDF0000623EFE70723EDE730B50023002935D0F0
:10DE0000D40702D50B8883800123940704D55C00D6
:10DE10004D880419A5800133540704D55C008D8812
:10DE20000419A5800133140704D55C00CD880419BA
:10DE3000A5800133D40604D55C000D890419A580A2
:10DE40000133940604D55C004D890419A580013383
:10DE5000540604D55C008D890419A5800133D211C4
:10DE600004D05A00C989821891800133036030BD03
:10DE70000B7B002B04D101220B68027103607047F9
:10DE80004B680022F9E7C04610B50279031C002A4E
:10DE900008D048681A688968841A8C420CD9881896
:10DEA000186008E004688A680868211A914207D857
:10DEB000012218601A7110BD002218601A71FAE769
:10DEC000A01A1860F7E7C046A022044BD205D35829
:10DED000034A125C0120D3409843704704050000B8
:10DEE000486B0200044BA0211A5C01239340034AB3
:10DEF000C9058B507047C046486B02000C050000F6
:10DF0000044BA0211A5C01239340A122C905D20031
:10DF10008B507047486B0200A022A1238021D205BC
:10DF2000DB008903D1508021C903D1508021C9056C
:10DF3000D15080214905D1507047C046A022802190
:10DF4000064BD2058903D1508021C903D1508021CD
:10DF5000C905D15080214905D15070470C050000FA
:10DF6000A021012210B5084BC905CC58074B1B5CFA
:10DF70009A40131C101CA122A043D2008850044ACE
:10DF800023408B5010BDC04604050000486B0200C2
:10DF90000C050000A02303220B49DB055A50043175
:10DFA0005A5020315A5008395A50A1228021D200AB
:10DFB000890399508021C90399508021C90599503E
:10DFC000802149059950704754070000A223A022E0
:10DFD000DB00D205D358034A125C0120D34098439A
:10DFE0007047C046446B02000F280AD012280AD09E
:10DFF00013280AD01438431E984103234042184383
:10E0000070470020FCE70120FAE70220F8E7C0464D
:10E01000014B185C7047C046446B020010B51B4BA7
:10E020001A68002A1BD11A4B1A68002A00D110BDA9
:10E0300000221A60C223802202219B00D205D15007
:10E040000123144CA3702369002BF0D01A6801201F
:10E0500022615B6898472369002BF7D1E7E700222C
:10E0600080211A60C22201230A4C9200C9058B50FC
:10E070006370A368002BD6D01A680020A2605B688A
:10E080009847A368002BF7D1CDE7C04600010040B8
:10E0900004010040B022002010B5002800D010BDBF
:10E0A000064CA368002BFAD01A680020A2605B68B7
:10E0B0009847A368002BF7D1F1E7C046B0220020B3
:10E0C00030B583B06B46DD1D0023281C2B70FDF797
:10E0D0009BFD134C2378002B13D16360A360236155
:10E0E000E360104B1B68DB0715D508F041FA0028E8
:10E0F00005D1A32380220121DB00D205D1500123C9
:10E100002370E36828780133E3600123A370FDF7EF
:10E110009BFD03B030BD0020032100F005F8E4E7CB
:10E12000B022002000E100E0F0B5002820DBFF274E
:10E130001B4B03229C463B1C8408C026C0B20240F5
:10E14000D2009340A4006444B600A5599D438B01BE
:10E150003B409340191C2943A1511F2318401E3BEB
:10E160008340C022181C0E4B520098501860F0BD1E
:10E17000FF260C4A03249446321C0F23C0B20440ED
:10E18000E400A2400340083B9B089B006344DD6918
:10E1900095438A013240A240111C2943D961DCE732
:10E1A00000E100E000ED00E070B54425184C0820C7
:10E1B000665D002E00D070BD01234022FF215B422E
:10E1C000A3540132A1540132A35423620132636289
:10E1D000A362E36223636363A363E3630238FC39EE
:10E1E000A35423606360A360E36023616361A36160
:10E1F000E361FFF799FF074B80211E60C123064AA8
:10E200009B000906D150012300206355D3E7C04687
:10E21000C42200207C610040006000404423034A87
:10E22000D05C431E9841C0B27047C046C422002053
:10E23000F0B5474680B4524C0825231820331E7889
:10E240007F2E03D8281C04BC9046F0BDCD78AC4688
:10E25000002D36D02568013500D187E00423002643
:10E260009846731C9D006759013733D0B31C9845FD
:10E2700025D99D00675901372CD0F31C98451ED92C
:10E280009D006759013725D0331D984517D99D004A
:10E29000675901371ED0731D984510D99D006759E5
:10E2A000013717D0B31D984509D99D00675901372B
:10E2B00010D00736B04502D9E369013308D00425F0
:10E2C000C0E72569013555D0082304269846C8E7DC
:10E2D00007231C25625162462718DEB220373E70A4
:10E2E000002A02D1E3183C3318708B78002B15D12B
:10E2F000031CA0254A78C133FF3392009B00ED0533
:10E300005A51CB78002B15D176B2A4193C340B7836
:10E3100022789B0113432370002593E7A022D205A6
:10E320009446E025022783006344ED005A59BA431E
:10E330005A51E6E7A22476B2124BB600F318E40075
:10E340000A781D591049000229401951F821490144
:10E350000840061CC0211004021C301C89021D59F3
:10E360000A4010432843185100256BE7002622601D
:10E370001E70BAE7042522611D702E1C2B1CB1E70C
:10E38000C422002000600040FFE0FCFFF0B5254DF6
:10E390002C182034227853B2032B18DDEB183C33B1
:10E3A0001B789B09032B32D0012B38D0C025AD023E
:10E3B000A023DB059C46E02380006044DB00C458BA
:10E3C00019492140C150C2582A43C250F0BD032A06
:10E3D000FCD81648A227844601269A006244FF0012
:10E3E000D0593043D0511A1C604600274032920069
:10E3F00092B217500029E9D00022A2569200525939
:10E40000002AE3D0C1229E4092008650DEE7A2237C
:10E41000A022DB00D205D358C340DB07C6D4802539
:10E42000AD02C5E7C4220020FFFFFCFF00600040F2
:10E43000A223A022DB00D205D358C340181C01231D
:10E4400018407047F0B54D465F4656464446002397
:10E45000F0B47C4A87B0039313680025012B00D1E8
:10E46000E5E0794B1A68012A00D1D4E0774B1A68AD
:10E47000012A00D1C3E0764B1A68012A00D1B2E02C
:10E48000744B1A68012A00D1A1E02B071DD0724BF2
:10E49000A2279846F8235B01012600249946FF0035
:10E4A00035420ED06D4AA3009A18D059D159424630
:10E4B000D358002B05D04A4689031040000A890F23
:10E4C000984701347600042CEAD1002D06DB07B012
:10E4D0003CBC90469946A246AB46F0BD002304934F
:10E4E000013B0593C1339B465B4D00230024019300
:10E4F000231C4033E95C4BB201332DD0C9B25B46DB
:10E50000081C9843072301270B409F403B1CC2086F
:10E5100005AFBF5C3B421FD02F1820373F788909D9
:10E520007FB2BF00EF59BC46002F30D0032930D056
:10E53000A026F605B0468700B844E0274646FF000F
:10E54000F759C026B6023740B14603AEB25C3F0C65
:10E55000134213D1032F22D00134042CC8D1019BC4
:10E56000002BB4D0A223A022DB00D205D358039AFB
:10E570009342ACD00393049B0593B6E7022FEBD1F3
:10E58000032911D06346002BE6D0E047E4E70329D6
:10E59000E2D104AEB7183E781E433E70C8E70329A7
:10E5A000F0D180239B029946E0234246DB00D258FB
:10E5B0002B4F4E4617404246D750D2581643321C76
:10E5C0004646F250019B0133DBB20193DAE70022A9
:10E5D0001A6080231B061D43A022A223D205DB0064
:10E5E000D358039351E7C1221C499200895808224D
:10E5F0000A4200D144E700211543196040E7C122D7
:10E6000016499200895804220A4200D133E70021BA
:10E61000154319602FE7C122104992008958022240
:10E620000A4200D122E70021154319601EE7C121EB
:10E630000A48890041580B4200D112E715600135A4
:10E640000FE7C046006100400461004008610040DF
:10E650000C6100407C610040C4220020006000404A
:10E66000FFFFFCFFC12310B5614A9B00D35884B063
:10E670009B054FD592235B00D15800294AD0002139
:10E68000D1508121E5338900FF33D150594B997E18
:10E69000002901D101315160022269460A7090219E
:10E6A0005348C9004258425069460392DA7D684691
:10E6B0000A72DA68196801920022DA751A765B68C4
:10E6C00098478E214A4A49005358002B0FD0494B96
:10E6D0009C8A987D84424FD200205050998A986835
:10E6E000405C998A013189B29982434BD050A22370
:10E6F0003F4A5B00D15800290AD00021D1503D4B40
:10E70000997E002901D001211160DA7D002A42D1D1
:10E7100004B010BDC123364A9B00D3585B07D0D547
:10E72000842149005358002BCBD0324BD87D002890
:10E730003ED15050A321C90052585A7E8242C0D1C6
:10E740001A7E002A42D19A7E002A02D10121284A4B
:10E7500051608120C2222649800092008850002208
:10E7600068460121DA755A7E01700272DA6819680A
:10E7700001925B689847A4E7002454500028B6D063
:10E780006A46147010729A689C75196801925B68E9
:10E7900068469847ABE7002268460121DA755A7E41
:10E7A00001700272DA68196801925B689847AFE7F6
:10E7B00000205050A320C000597E1258D8684254FF
:10E7C0005A7ED87D0132D2B25A76B6E7DA751A6926
:10E7D000D968DA6000226C46587E1A765A76013281
:10E7E000207201912270196868465B68984768E753
:10E7F000002000400C2300201C05000008B502206A
:10E80000FFF7AEFB08BDC046F8B546464F46C0B45C
:10E810000D1C061CFFF7E8FB041E032C12D8012D6B
:10E8200014D0002D22D0022D0CD143001C181E4BF9
:10E830001C196578002D05D01C4B1B68002B01D0DE
:10E84000281C98470CBC90469946F8BD164B4700CB
:10E85000984642463B18D55C43445B78002B12D166
:10E860003F194744BA78124B1A55E3E71148FDF7B0
:10E8700085F90D4A63001B19D3180D4A9B78155D65
:10E880009D42DFD1D6E70C4B0A481B689900C91896
:10E890000A4B49001A1C9946FDF70EF90028DFD1F2
:10E8A0004B461E70DCE7C046A423002058230020FE
:10E8B000A02300205C2300205423002048230020B4
:10E8C00070B5734B1B68DB0700D470BD714E724D81
:10E8D00033782C78002B05D1172CF6D86F4AA3007B
:10E8E000D3589F4600233370FFF716FBF4E701234C
:10E8F00001203370FFF734FB694B00221B68694825
:10E900009900C918FDF7D8F8DFE70123012033701B
:10E91000FFF726FB624B002219686248FDF7CCF82E
:10E92000D3E7614D281CFDF729F911231C1B00D1E9
:10E930008CE0002800D089E0012C0CD0C830642184
:10E94000604307F0BBFE564B00221B684343281C64
:10E95000191CFDF7B1F80220FFF7C4FAB5E7FFF77D
:10E96000DBFA12232B70B0E7FFF7D6FA0020FFF78F
:10E97000B9FA13232B70A8E7FFF7E0FA2C70A4E78D
:10E98000FFF7CAFA00232B709FE70020FFF79CFADD
:10E99000002865D00020FFF7B3FA022C72D028219E
:10E9A0002C7022E0FFF7CAFA0C232B708DE7FFF7DB
:10E9B000B3FA0020FFF796FA0120FFF793FA152328
:10E9C0002B7082E7FFF7A8FA0120FFF78BFA1423D8
:10E9D0002B707AE70020FFF777FA00284CD0002050
:10E9E000FFF78EFA082103232B702D4B00221B68A2
:10E9F0002C485943FDF760F867E70020FFF764FAF9
:10EA0000002827D00020FFF77BFA28210423EBE71A
:10EA10000020FFF767FA07232B7056E70020FFF767
:10EA200053FA002824D00020FFF76AFA05232B7040
:10EA30001B4B002219681B484900FDF73DF844E7CD
:10EA40000020FFF78DFA06232B7063E70220FFF703
:10EA500057FA3AE70020FFF745FA04210423C3E7F9
:10EA60000020FFF73FFA022C0FD004212C70BCE7E6
:10EA70000020FFF737FAD9E70020FFF733FA022129
:10EA80000323B1E712212C70AFE702212C70ACE711
:10EA90004C230020502300207C2300204C6B0200DC
:10EAA00054230020282300208023002008B500786C
:10EAB000FFF79AFA03280BD843001818054B1818CB
:10EAC0004078002804D0044B1B68002B00D09847E6
:10EAD00008BDC046A42300205823002008B5FFF736
:10EAE00075FA08BD70B5804B051C1B680024DB0758
:10EAF00001D4201C70BD7D4E3378002B06D1172D1C
:10EB000000D9EFE07A4AAB00D3589F463470FFF744
:10EB100003FAF4E7012301203370FFF721FA754B64
:10EB200075481B6800229900C918FCF7C5FF041C32
:10EB3000DFE7012301203370FFF712FA6D4B6E48B7
:10EB400019680022FCF7B8FF041CD2E7FFF7E4F9CC
:10EB50000120FFF7C7F91422684B00241A70C8E798
:10EB60000020FFF7BFF90722644B00241A70C0E7AA
:10EB7000FFF7D2F90020FFF7B5F90120FFF7B2F94E
:10EB800015225E4B00241A70B3E70020FFF79CF9B2
:10EB9000002800D19DE00020FFF7B2F908210322F0
:10EBA000564B1A7077E00020FFF78EF9002800D14D
:10EBB00085E00020FFF7A4F928210422F0E70020D7
:10EBC000FFF782F9002800D17FE00020FFF798F9D5
:10EBD00005224A4B48481A70464B002219684900E2
:10EBE000FCF76AFF041C84E70020FFF7B9F906224E
:10EBF000424B1A70A2E7FFF7A1F90C223F4B002409
:10EC00001A7076E73E4E301CFCF7B8FF041C11204A
:10EC1000451B49D0002C47D1012D0DD0B7306421C0
:10EC2000684307F04BFD334B00221B684343301C05
:10EC3000191CFCF741FF041C0220FFF753F958E7A9
:10EC4000FFF76AF912222D4B00241A7051E7FFF7E3
:10EC500063F90020FFF746F91322284B00241A70AD
:10EC600047E7FFF76BF9254B00241D7041E7FFF7DD
:10EC700053F90022214B00241A703AE70020FFF7D5
:10EC800023F9002814D00020FFF73AF9022D27D0ED
:10EC900028211A4B1D70174B17481B680022594337
:10ECA000FCF70AFF041C24E70220FFF729F920E7FC
:10ECB0000020FFF717F9022D10D00421E9E700200A
:10ECC000FFF710F9042104226AE70020FFF70AF990
:10ECD0007EE70020FFF706F9022160E70221D8E76E
:10ECE0001221D6E7002404E74C2300205023002003
:10ECF000AC6B020054230020282300207C2300203A
:10ED00008023002038B5204B051C19601F4B18606C
:10ED10001F4B1A60830713D50E221E4B1E481A7014
:10ED20000132DA7001329A7101325A724A080421B2
:10ED3000FCF7FAFA041E19D0EB0712D4201C38BDD8
:10ED4000C3070DD415480021154AFCF79BFE041E8D
:10ED5000F4D114480121144AFCF794FE041CEDE799
:10ED60000024FFF717F9002CE8D1EBE7FCF736FB9E
:10ED7000041EE1D10D4800210D4AFCF783FE041C5E
:10ED8000EB07F0D5EDE7C046542300204C230020CC
:10ED900058230020A4230020146C0200106C0200F1
:10EDA000C1E80100346C0200FDE701000C6C0200B8
:10EDB000ADEA0100031C0720032B00D97047012A8C
:10EDC00013D0012917D0002908D0022919D15800E1
:10EDD000C3180D48C3185A700020EFE75800C31835
:10EDE0000948C3189A700020E8E700220129E8D1F9
:10EDF0001A1C0E32D2B258000349C3185A540020CC
:10EE0000DCE70720DAE7C046A423002008B5FFF7B7
:10EE1000FFF8A023DB059C46E02380006044DB0074
:10EE2000C158054A0A40C021C250C25889020A434B
:10EE3000C250002008BDC046FFFFFCFF08B50020FF
:10EE4000FFF7E4FF002802D0062800D008BD01200B
:10EE5000FFF7DCFF031C0020002BF7D0062BF5D0BA
:10EE6000181CF3E710B50388102B08D0112B05D11F
:10EE7000294A1368013B1360002B07D010BD264CB4
:10EE80002368002B11D001332360F7E70020022113
:10EE90000122FFF78FFF00282BD0072829D01F4B16
:10EEA0001B68002BEAD09847E8E7002000210122E8
:10EEB000FFF780FF002808D0072806D0174B1B68F3
:10EEC000002B00D098472368DDE7012002210722AC
:10EED000FFF770FF002801D00728EFD100200221A2
:10EEE0000422FFF767FF0028EDD00728E6D123684A
:10EEF000C9E7012002210722FFF75CFF002801D0AB
:10EF00000728CCD1002000210A22FFF753FF002858
:10EF1000B4D00728C3D1B1E7B4230020B023002028
:10EF2000214B10B50C1E186006D00120FFF7D6FD4E
:10EF3000002826D0022323701C4B1B68002B01D015
:10EF4000002010BD002002210122FFF733FF00281E
:10EF500001D00728F5D1012002210722FFF72AFF5F
:10EF6000002801D00728ECD1002000210A22FFF759
:10EF700021FF0028E4D0C31F5A1E93415B42184072
:10EF8000DFE70020FFF7AAFD002805D1074B20701E
:10EF90001B68002BD4D1D5E70B232370034B1B68D0
:10EFA000002BCDD1CEE7C046B0230020B4230020F3
:10EFB00076DF704778DF70477ADF70477CDF704715
:10EFC000A8DF704767DF70473CDF704748DF704756
:10EFD0007047C04608B5FCF719FA08BD08B50248E5
:10EFE00007F04AFA08BDC0468425002008B5012371
:10EFF000034A044811785940117007F039FA08BDE6
:10F00000D82300208425002010B510491048FEF7B1
:10F010003BFF104C81B223680F480133236007F097
:10F0200073F90823021C9A4307D00C4B984204D072
:10F030000B4B984201D0FCF7E9F92068032107F057
:10F04000C3FB4B1E9941074B197010BD14260020BD
:10F050007425002044260020842500200430000070
:10F06000013400004820002008B50A490A48FEF78C
:10F070000BFFC1B2094806F0B5FD0823021C9A43F4
:10F0800007D0074B984204D0064B984201D0FCF7BA
:10F09000BDF908BDE42500207C2500203C2500208A
:10F0A000043000000134000010B5041CFEF790FB92
:10F0B000201C01F013FB10BD10B5041C84B001F03E
:10F0C00093FC201C05F0E8F92E48211C06F0B4FF43
:10F0D000211C2D4806F068FC201C01F031FC201C8E
:10F0E000FFF7C0FE2388112B3ED017D9512B24D017
:10F0F000552B0AD03A2B08D0201C01F08FFA234858
:10F10000211C02F009FE04B010BDA0881321FFF7F6
:10F110004FFF0028F0D0FCF779F9EDE7022B28D05B
:10F12000102BE9D10720FFF7DDFC002801D0FCF708
:10F130006DF9A288164B1A80DEE7A379A27B002B1B
:10F14000DAD0043A022AD7D8023B5A4253416A46DF
:10F1500001331370C1235B009380A0886946FFF7D9
:10F160002FFF0028C8D0D6E70122094B52421A804F
:10F17000C2E7074B00211888FFF724FF0028BBD007
:10F18000C9E7C046842500203C250020DC23002060
:10F190004A20002008B50378002B00D008BD054B9D
:10F1A0003B211888FFF704FF0028F7D0FCF72EF961
:10F1B000F4E7C0464A20002008B507281ED00A28D8
:10F1C0000ED0042800D008BD134B13211888FFF778
:10F1D000EFFE0823021C9A43F5D0FCF717F9F2E77B
:10F1E0000020FFF77FFC002813D1FFF727FE00283F
:10F1F0000CD1FFF7E9FE0028E5D0EEE7064B1A88B0
:10F20000064B9A42DFD101F09BFAE2E7FCF7FEF8E9
:10F21000EFE7FCF7FBF8E8E74A200020FFFF0000DB
:10F2200070B51C4B1B78002B32D01B4E1B4D301C75
:10F23000291CFEF729FE1A4C81B2201C07F0FEF8AB
:10F24000291C301CFEF720FE81B2201C07F0F6F8C6
:10F25000291C301CFEF718FE81B2201C07F0EEF8C6
:10F26000291C301CFEF710FE81B2201C07F0E6F8C6
:10F27000291C301CFEF708FE81B2201C07F0DEF8C6
:10F28000291C301CFEF700FE81B2201C07F0D6F8C6
:10F2900070BDC0464820002034250020D425002021
:10F2A0008425002000B5037883B0043BDBB20A2B31
:10F2B0000AD8144A9B00D3589F46032001F08CF9CA
:10F2C000002801D0FCF7A2F803B000BD8068002838
:10F2D000FAD0F7E7FDF756FF0E28F5D00823021CF9
:10F2E0009A43F1D0EEE705F05DF9EDE700690028FB
:10F2F000EAD0E7E7002301A90B70408805F04EF93A
:10F30000E2E7C046386C020008B5002807D00328A1
:10F3100004D10138FFF7E6FB00280DD108BD00201D
:10F32000FFF7E0FB00280AD1FFF788FD002809D18C
:10F33000FFF74AFE0028F1D0FCF768F8EEE7FCF78B
:10F3400065F8F1E7FCF762F8F2E7C04608B503207C
:10F3500001F042F9002801D0FCF758F808BDC0467A
:10F3600008B50448044902F0D5FC002801D0FCF798
:10F370004DF808BDDC230020DDEF0100A020EE22C7
:10F38000F0B503234F464646C005D200C0B48350B3
:10F390000832835080218022CF4BA1270526994631
:10F3A000C9055205CD4CC150C2502468CC4DA4466D
:10F3B000CC4CA1B0FF00C151231CC251C046C04675
:10F3C000C046C046C046C046C046C046AC4500D058
:10F3D000C046013BF2D14B46C150C250231CC0462F
:10F3E000C046C046C046C046C046C046C046AC4502
:10F3F00000D0C046013BF2D1013EF6B2002EDAD178
:10F4000000200521B84A0023FCF7E4FA002801D0C7
:10F41000FBF7FCFFB5480121B54AFCF733FB002898
:10F4200001D0FBF7F3FFB3480121B34AFCF72AFBF5
:10F43000002801D0FBF7EAFFB0480121B04AFCF7F1
:10F4400021FB002801D0FBF7E1FFAE480121AE4AC5
:10F45000FCF718FB002801D0FBF7D8FF0320AB49CD
:10F46000AB4AFFF74FFC002801D0FBF7CFFF10ACF1
:10F470000020211CFFF754FD002801D0FBF7C6FF38
:10F4800008ADA4490422281C267807F0A8FA281CF5
:10F49000A149D022002307F071F8002801D0FBF722
:10F4A000B5FF00200121221C07F0E2F8002801D05E
:10F4B000FBF7ACFF201C07F0F3F8002801D0FBF7A6
:10F4C000A5FF964807F0A8F8002801D0FBF79EFF9B
:10F4D000934807F0ABF8002801D0FBF797FF04F042
:10F4E000EDFF002801D0FBF791FF022E00D1A9E12A
:10F4F00000210522201CFBF78BFE01218D232278A1
:10F5000002200A43134030221A437F231A40783BDB
:10F51000637009332270A370E27823790A430B43A6
:10F5200002430343201CE270237105F029F80028F0
:10F5300001D0FBF76BFF7B4805F008F8002801D0ED
:10F54000FBF764FF7848FDF7C1F8002801D0FBF70E
:10F550005DFF0F2101222B78744E8B431343102241
:10F560000B401343301C2B7007F056FA311C82B24B
:10F57000281CFFF723FD002801D0FBF747FF6C484C
:10F58000FFF718FD002801D0FBF740FF201C0021E9
:10F590000822FBF73DFEA0235B002380C833638075
:10F5A0000023A3809133FF33201CE380FFF704FD89
:10F5B000002801D0FBF72AFF00213C22201CFBF78A
:10F5C00027FE0223012623700433E370033B2382CA
:10F5D000584B00212022281C6361A670FBF718FEFF
:10F5E00096235B002B61783B6B610023EE70201C3F
:10F5F000009300212A1C504B00F018FF002801D076
:10F60000FBF704FF0B27FFF7ABFE032303AE6F44AA
:10F6100000211422301C3B70FBF7FAFD00230F2061
:10F620000121B7601027039301333371337BF27BE1
:10F6300083430B4303403B43337300237373B37320
:10F64000031C82430A4313403B43F37300233B4FA5
:10F65000311C381C337406F019FD002801D0FBF76B
:10F66000D5FE00211422281CFBF7D2FD0F21012218
:10F6700010206B7B8B4313430B4003436B73AB7BBB
:10F680008B4313430B400343AB730023EB732B7C7F
:10F690008B431A430023114001220143297408932C
:10F6A000AB6027486433291C2A712B7306F0ACF930
:10F6B000002801D0FBF7AAFE40220021201CFBF706
:10F6C000A7FD201C1F4901F0A3FA3C210F200122B5
:10F6D000635C8343134337E00C0500007420002073
:10F6E0000024F40090D00300EC2300208C6C020076
:10F6F00069F00100686C020009F00100946C0200DE
:10F7000021F20100906C0200EDEF0100CD0C000031
:10F71000B9F10100646C020064240020B9F001001A
:10F72000A9F00100A5F20100D1EF01006C6C02000C
:10F73000410300004C20002009F301008425002033
:10F740003C250020786C02001022034013436354D0
:10F7500000223D23201CE25406F0F2FA002801D0DA
:10F76000FBF754FE512301263A493B480B60133303
:10F7700098464B608E600E73FEF77AFB8C23002553
:10F78000364937480B60A0334B60233BFF3B8B600F
:10F790000D73FEF76DFB4346324933480B609133DE
:10F7A000FF334B608E600D73FEF762FB201C00215F
:10F7B0001C22FBF72DFDA0239B026360F0231B039B
:10F7C000A360032310952373BB89201CE381274B7F
:10F7D00025746361264BA36101F076F8002801D0FF
:10F7E000FBF714FE8021234849020022FCF764F94C
:10F7F000002801D0FBF70AFE80211F4809020022E1
:10F80000FCF75AF9002801D0FBF700FE1B481C4901
:10F810000022FCF751F9002801D0FBF7F7FDA021E9
:10F82000184889020022FCF747F9002801D0FBF7AD
:10F83000EDFDFFF78BFDFFF7C9FB0028FBD0FBF7C1
:10F84000E5FDF8E704F0B8FE002800D150E6FBF72C
:10F85000DDFD4DE6E42500207C2500201426002057
:10F8600074250020D42500203425002095F10100C6
:10F87000D5EF01005425002024260020F425002087
:10F8800066260000B823002071DF704772DF7047E2
:10F8900079DF70477DDF704765DF7047F0B504881A
:10F8A000051C83B00720012C04D01488A01C9842AA
:10F8B00002D90C2003B0F0BD2E78012E04D16E7851
:10F8C00002363619B342F4D3023B1C1B6B460F1CA5
:10F8D000A4B20818991D161CDC80FFF7DBFF002876
:10F8E000E8D12B78022B18D0012B11D0231C082132
:10F8F000FE2BDED83288581CB854328800200132E2
:10F9000092B23280B954328801329B183380D1E7E9
:10F910006B789C42EBD2231CE9E76B46DB8809211C
:10F920009C42E5D2231CE2E7F0B55F4656464446CA
:10F930004D46F0B485B09A460EAB80CB061C1B88B2
:10F9400000919B463B88904601930388002B5BD037
:10F950000023994602AB0024DD1C03E03388013408
:10F96000A3422ADD7368A1009C460422614403A8D7
:10F9700007F035F803A8291C0022FFF78DFF0028A7
:10F9800026D12B784345E9D14B46002B27D043465F
:10F990003A88D3185B4539DC524403A8291CFFF789
:10F9A0007BFF002814D13B882A780134D3183B8090
:10F9B000012399463388A342D4DC4B46002B23D045
:10F9C0003B88019A013B9B1A9BB20C20FF2B18D954
:10F9D00005B03CBC90469946A246AB46F0BD4246B7
:10F9E0003B889A1802325A4510DC69465246013368
:10F9F00009789BB23B80D1543A88013292B23A8066
:10FA0000CAE7111C524653540020E1E70C20DFE7FF
:10FA1000F0B544465F464D465646F0B41388141C74
:10FA20009846002313802D33C25C87B0051C0F1C41
:10FA30000023002A00D0BAE0AA78002A00D0E3E030
:10FA4000E978002900D0A7E06A68002A14D011786C
:10FA5000DA1C424500D9A2E00222FA542388083277
:10FA600001339BB22380FA54238801339BB2238055
:10FA7000F9542388013323802B89002B00D0F6E032
:10FA80002B8A002B00D00DE12B8B002B00D024E122
:10FA90002B6A002B45D022880C20911D414500D9AE
:10FAA0007EE0198805388B46052900D878E0C04EDD
:10FAB0005E44B6B2B146BF4EB446B14500D86FE021
:10FAC0005E88B246052E6BD9B94E6946B146D1441F
:10FAD0004E46CE81CE89664562D9B74EB34503D036
:10FAE000B24501D0D3455BD80521B95422880D31E8
:10FAF000013292B22280B9542288013292B222801D
:10FB00001988BA181170090A51702288023292B20B
:10FB100022805988BB181970090A5970238802334A
:10FB200023806E6A002E2CD0B2882188131D5B18AA
:10FB30000C20434534D8931CFE2B31D803327A5421
:10FB4000FF22238801339BB22380FA542388013398
:10FB50009BB223803288FB181A70120A5A702388CD
:10FB600002339BB22380B288002A0AD0B1680538DC
:10FB7000002915D0F81806F032FF2288B388D31870
:10FB800023802C23EB5C002B00D0C1E02B78002BD2
:10FB900000D004E1002003E0DA1C424555D90C20D6
:10FBA00007B03CBC90469946A246AB46F0BD4346E2
:10FBB0000C20082BF4D904A8FFF766FE0028EFD12B
:10FBC000082223880921FA542388133201339BB277
:10FBD0002380FA5402AB9C462088153A013080B24B
:10FBE00020806144381806F0FAFE238802AA063302
:10FBF000127A9BB22380002A00D00122FA54238873
:10FC000001339BB2238017E704330C204345C7D848
:10FC100004A8FFF73DFE0028C2D103222388FA542E
:10FC20002388163201339BB22380FA54238802AA18
:10FC300001339BB212892380FB181A70120A5A7082
:10FC4000238802339BB22380FAE60222FA542388E7
:10FC5000013A01339BB22380FA54238801339BB2CB
:10FC60002380F954238801339BB22380ECE62E1CB9
:10FC70004346083601930094301C022102223B1CAB
:10FC8000FFF752FE002800D08AE743460094019314
:10FC9000301C062110223B1CFFF746FE002800D036
:10FCA0007EE7EDE62E1C4346103601930094301C8F
:10FCB000032102223B1CFFF737FE002800D06FE72C
:10FCC000434600940193301C072110223B1CFFF790
:10FCD0002BFE002800D063E7D6E62E1C43461836DC
:10FCE00001930094301C142102223B1CFFF71CFEE0
:10FCF000002800D054E7434600940193301C15219E
:10FD000010223B1CFFF710FE002800D048E7BFE69A
:10FD1000AE6A002E4AD0B3880233FE2B00D93EE7EC
:10FD20000022914616329246163293462088524659
:10FD300001333B54238801339BB22380FA54238838
:10FD400001339BB223803288FB181A70120A5A7052
:10FD50002088023080B22080B288002A0AD0B168A0
:10FD6000002923D0381806F03AFE2088B388C0183E
:10FD700080B220804B460133DBB299465B46EB5C98
:10FD80004B4500D802E74B465E00AB6A4E449C46AA
:10FD9000B6006644B3880233FE2BC8D9FFE6281CA0
:10FDA000391C221C4346FFF779FDF9E60720F7E6E8
:10FDB0007FF3FFFF7DF30000FFFF0000F0B54D462D
:10FDC00044465F4656461F23F0B497B002AA041C6F
:10FDD0000D1CD381002800D10CE1C078430700D46A
:10FDE000C9E0002302AA93812D33E35C002B00D0ED
:10FDF000C9E0A3780EAF002B00D01BE10023002147
:10FE0000032206AE02277754591C02339BB289B2F3
:10FE1000013F7754F05493B202AA93816268002A9A
:10FE20000FD01078DA1C1F2A00D9E1E002210A273E
:10FE3000F154591C02339BB289B27754F05402AB8F
:10FE40009A812389002B00D05CE1238A002B00D00B
:10FE500076E1238B002B00D096E1236A002B44D05F
:10FE600002AA92890C20911D8B461F2900D983E09C
:10FE70001888824657460720052F00D87CE0BF4FE0
:10FE80006946BC46D4446746CF81CF89BC46BC4F47
:10FE9000B846BC4570D95F88BC46052F6CD9B74FB2
:10FEA0006744CF81BFB2474566D9B64FBA4503D044
:10FEB000BC4501D0E2455FD805201227B054501C44
:10FEC00080B23754901C80B202AFB8811F883018BE
:10FED00007703F0A47705888131D5A469BB2F318A3
:10FEE0001870000A587002AB9A81676A002F31D0EF
:10FEF000BB88991C02AB9B899A1C5018804691467E
:10FF000042460C201F2A37D8FE2935D80131F1543A
:10FF1000591C89B2F33070544A466946CA81CA896D
:10FF200002A98A813988B2180433117098B2090A7B
:10FF300002AB51709881BA88002A0BD0B9680029A9
:10FF400019D0301806F04BFD02ABBA889B89D31844
:10FF500002AA93812C23E15C002900D089E0237858
:10FF6000002B4AD0201C311C05AA1F23FFF796FC4A
:10FF7000002842D000E0072017B03CBC90469946CC
:10FF8000A246AB46F0BD0EAF381CFFF77DFC002843
:10FF9000F2D1082202AB9B8906AEF2545A1C0233FE
:10FFA00098B21B2102AB9C4692B2B1541631988193
:10FFB00061440622301806F012FD02AB9B8902A9AB
:10FFC0009A1D92B28A813978002900D00121073325
:10FFD000B1549BB202AA9381A278002A26D1E0787C
:10FFE000002800D11AE7DA1C191C1F2A00D809E7DB
:10FFF0000C20C1E7002602AB9881002D34D0EB78AD
:020000022000DC
:10000000002BB8D102AA94460E236344281C0EA9E3
:100010001A1CFFF7FDFC0028AED102AB9B7B0EAA99
:1000200002A9097B301CFFF731FCA5E704330C2043
:100030001F2BA1D8381CFFF72BFC00289CD10322D2
:10004000192102AB9B8906AEF2545A1C92B2B154EC
:100050009A1C398892B2B21811700433090A51708F
:100060009BB202AA9381BAE702ABDD810022002392
:10007000D6E7A76A002F00D17DE7BB880233FE2BAD
:10008000B6D802AA908900229046163291461632BE
:1000900092460AE043465F00A36A47449C46BF007D
:1000A0006744BB880233FE2BA2D84A46013333543F
:1000B000431C9BB2F254831C9BB202AA93813A88E0
:1000C000F3181A700430120A5A7080B202AB988189
:1000D000BA88002A0FD0B968002900D14BE7301840
:1000E00006F07DFC02AB9B89B888C01880B202ABD9
:1000F00098815346E15C43460133DBB298468B421C
:10010000C8D32CE705AB271C00931F23083798465C
:100110000193381C02210222331CFFF705FC002842
:1001200000D029E705AB00934346381C0193062114
:100130001022331CFFF7F8FB002800D01CE784E6F0
:1001400005AB271C00931F23103798460193381CDA
:1001500003210222331CFFF7E7FB002800D00BE746
:1001600005AB00934346381C019307211022331C32
:10017000FFF7DAFB002800D0FEE66AE67FF3FFFF18
:100180007DF30000FFFF000005AB271C00931F2339
:10019000183798460193381C14210222331CFFF7AC
:1001A000C3FB002800D0E7E605AB00934346381CAC
:1001B000019315211022331CFFF7B6FB002800D055
:1001C000DAE64AE673DF704774DF7047F0B58C4CAF
:1001D00087B0071C0021201C0722FBF719F8894D66
:1001E0006B78002B3DD1AB78874E002B4DD16378D7
:1001F000002B6AD1A378002B67D1E378002B64D160
:100200002379002B61D16379002B5ED1A3795A1E2B
:100210009341DBB2022F50D03DD9032F43D0042F9E
:1002200055D12A790423002A45D03370774B1B68B7
:10023000002B03D02A78002A00D0CEE00022744B95
:100240001A70182268460021FAF7E2FF00236A4676
:10025000137013723378042B62D86E4A9B00D35804
:100260009F46694E3378012B04D0AA78002ABED06D
:10027000022BBCD1654B1B68002B00D1B8E00121DB
:10028000654A082011709847B1E73378012BF1D007
:10029000022BACD1EEE7012F19D16A78002A0CD0DD
:1002A000002B00D0A7E0EA780323002ABDD12A79E9
:1002B0000423002AB9D13270C0E7AA78002AF2D00C
:1002C0000222002BEFD03270B8E70123A2E7002210
:1002D0003270B3E76B462A8A1A82AA8A5A822B782E
:1002E000002B00D171E04D4B1B78002B00D06CE04F
:1002F0004B4B1A79002A02D11A7B002A65D003934E
:100300006A4602234748137200210233C370FFF785
:1003100055FD002800D071E00522434B1A70337858
:10032000002B13D1394B1B68002B18D1002007B0CC
:10033000F0BD02223C4B01941A7001236A461370EF
:100340006B46AA895A826A46AB6813826846FFF7F1
:1003500039FF0028EBD12D4B1B68002BE6D0324A29
:1003600010789847E2E700222F4B1A70F3E76B46AC
:100370002A8B1A82AA8B5A822B78002B29D0274BE2
:100380001B78002B25D1264B1A79002A02D11A7B23
:10039000002A1ED003936A460223224813720021CA
:1003A0000233C370FFF70AFD002827D106221E4B37
:1003B0001A703378B4E701231B4A019413706A461C
:1003C0001370002353821382C0E70322164B1A7066
:1003D000BCE70422144B1A70B8E7104A1278002ABE
:1003E00000D02BE701210A4A07201170984728E71F
:1003F000094A1370FBE6012232701FE733788FE75A
:10040000BC260020C4260020E427002090260020DF
:10041000A8270020986C0200E5270020B7260020BE
:100420005820002048260020F4270020F8B5051C9D
:100430000E20002D00D1AEE0002A00D1ABE00F1C51
:1004400055490D3808700020544908705448011C63
:1004500051CA51C151CA51C111CA11C1514A0021D9
:100460001360514B069A51481A600122504B524278
:100470001A800832FAF7CCFE4E4E00213C22301C86
:10048000FAF7C6FE2B782A1C3370AB781032B370A3
:10049000EB78F3706B787370331C103303CA03C3AB
:1004A000331C103A083303CA03C3331C0832183311
:1004B00003CA03C36B6A002B11D03F4B3F4C7362DE
:1004C000696A9C600A881A8088889880002806D00B
:1004D00000238A68D25CE25401339842F9D1AB6AB6
:1004E000002B14D0364B3748B362A96A98608C88C9
:1004F0009C800A881A800023002C05D08A68D25C70
:10050000C2540133A342F9D12C23EA5CF2542B6A82
:10051000002B06D02C4B33622A6A518859801288EE
:100520001A806B68002B00D073602849284B0A683A
:10053000D81D13600A685060181C0E309060181C9B
:100540001530D060181C1C301061181C233050610D
:10055000181C3133D3611F4B2A309061181C8A68F4
:10056000103013608A685060181C8A6820309060D0
:100570008A68191C3031D160191C40311161191C75
:1005800050315161191C703360319161D361301C5D
:10059000391CFFF713FCF8BDE6270020E4270020F4
:1005A000C426002090260020B8260020BC2600206B
:1005B000AA27002048260020842600209826002014
:1005C000E8270020082700200427002058200020CA
:1005D000AC2700202827002010B50D4B041C1B78E9
:1005E00082B00820002B01D102B010BD094B01A838
:1005F0001C70FDF7E1F8019B002B04D00122064B93
:1006000000201A70F0E7201CFFF7E0FDECE7C04681
:10061000E6270020E42700209426002030B5038838
:1006200083B0112B1CD01B2B0AD0102B01D003B090
:1006300030BD837D8288012BF9D1224B1A80F6E7E9
:10064000037A002BF3D1204B204C1B782278082012
:10065000002B1FD11E4B1B68002BE8D09847E6E704
:1006600000211C4A83881170164A12889A42DED1F2
:10067000154B08201B78002BECD00122134B01A84E
:100680001A70FDF799F8019B002B15D00122124B2F
:100690001A70CCE7501C052106F086F901A8CDB2EE
:1006A0002570FDF789F8019B002BEFD1281CFFF77F
:1006B0008DFD0028BBD0CDE70120FFF787FD002886
:1006C000B5D0C7E7AA270020E6270020E4270020AE
:1006D000B8260020B72600209426002030B5023826
:1006E00083B0012803D8124C2378002B01D103B02A
:1006F00030BD002323700F4B08201D780E4B1B7854
:10070000002B05D10D4B1B68002BF0D09847EEE76E
:1007100001A8FDF751F8019B002B02D001232370A3
:10072000E5E7281CFFF752FD0028E0D0EAE7C046C5
:1007300094260020E4270020E6270020B826002089
:1007400070B5012582B0FFF73FFD154B15481D70B0
:1007500006230021C370FFF731FB041E02D0201CCA
:1007600002B070BD104B08201E78104B1B78002B78
:1007700006D10F4B1B68002B00D098470024EEE7F2
:1007800001A8FDF719F8019B002B02D0094B1D7041
:10079000E5E7301CFFF71AFD0028EAD10024DEE768
:1007A000B726002048260020E4270020E627002066
:1007B000B82600209426002075DF704776DF70474A
:1007C0007ADF70477BDF704710B5184B82B018880E
:1007D000174B984214D0174A174C13780133DBB2E9
:1007E0001370217B99420DD200231370237C002BC0
:1007F00012D16369002B03D0002201A80270984730
:1008000002B010BD0D49FFF7D7FF0028F8D0A3694B
:10081000002BF5D09847F3E73B21FFF7CFFF0028E7
:10082000E7D0A369002BE4D09847E2E764280020D2
:10083000FFFF00002428002028280020682800202E
:1008400030B51B4B1B4A5B88118883B099420FD887
:1008500052889A420CD3184B5B69002B03D00122BB
:1008600001A802709847154C0023237003B030BDD7
:10087000124C2378002B08D00F4B5B69002BF3D070
:10088000002201A802709847EEE70D4B0A4D1B7835
:10089000002B0BD0A9680B480022FBF70DF90028AC
:1008A000E2D0AB69002BDFD09847DDE76968F2E75B
:1008B0001C28002068280020282800201828002054
:1008C0002428002044280020164938B5021C0B1C9F
:1008D00032CA32C332CA32C312681A600022124BC3
:1008E00001681A70002916D0104C0832201C06F03E
:1008F00076F8201CFFF764FF00280BD101220C4B77
:1009000052421A8000220B4B0B481A7000210B4AEE
:10091000FBF7B8F838BD0548FFF754FF0028EDD0C5
:10092000F8E7C04628280020182800206828002062
:100930006428002024280020AC6C0200C9070200B3
:1009400010B50388112B33D021D9122B18D0502B7E
:100950001CD1204CC288E3899A4217D1038A022B0A
:1009600014D1123000F04AF900280DD11A48FBF7D3
:1009700005F900280AD0A369002B07D0984705E0A5
:10098000164B083006C806C3FFF75AFF10BD102BE0
:10099000FCD18288124B18301A80104B06C806C34F
:1009A0000022104B1A700B4BDB89002BEED1EBE7CA
:1009B00001220B4B52421A8000220A4B06481A7041
:1009C000FBF7DCF80028E1D0024B9B69002BDDD05F
:1009D0009847DBE728280020442800201C28002016
:1009E0006428002024280020F0B55F4656464D4676
:1009F0004446F0B4038889B0071C112B00D16CE089
:100A00001A2B50D0102B06D009B03CBC904699460A
:100A1000A246AB46F0BD374E03A8331D9846327D43
:100A2000737D41469A43FDF7E7F9039B03AC994672
:100A30000025002B10D014239B4600239A46B34474
:100A40005246A3884046009259461D220135FDF7C3
:100A500089F802344D45F3D1307DBC88C043C0B223
:100A6000FDF716F8244B98423FD0311C4000351D4D
:100A700030188480221C281C15310123FDF734F81E
:100A8000311C281C221C14310123FDF72DF8BB7DDD
:100A9000311C023B584243411631BA88DBB2281C54
:100AA000FDF722F8B0E71F233C7A124EA3429B4188
:100AB000311C5B42301DBA881731DBB2FDF714F8E8
:100AC0002F233C7A311CA3429B415B42301D1831DD
